:100000000C94B2000C94DA000C94DA000C9486196B
:100010000C942C1A0C94081A0C94DA000C94AC185A
:100020000C94DA000C94DA000C94DA000C94DA00E8
:100030000C94DA000C94DA000C94DA000C94DA00D8
:100040000C9462180C94DA000C9454190C942E1928
:100050000C94DA000C94DA000C94DA000C94DA00B8
:100060000C94DA000C94DA0000C2010001001100C7
:1000700011000C0000E100000A002500250021000D
:10008000009600001900390039003600127A00008D
:100090001F004600460044008070000022004D0012
:1000A0004D004A00004B00003600750075007200DC
:1000B000403800004A009C009C0099008025000008
:1000C0007200EC00EC00E900C0120000E900DA0167
:1000D000DA01D70160090000D701B603B603B30304
:1000E000B0040000B3036E076E076B0758020000F0
:1000F0006E07DC0EDC0ED80E2C010000DC0EC11DDC
:10010000C11DBE1D0200000000240027002A0000BF
:1001100000000800020100000304070000000000C6
:10012000000000000000002300260029000000005D
:1001300000250028002B0004040404040404040225
:100140000202020202030303030303010204081074
:100150002040800102040810200102040810200041
:10016000681AF42211241FBECFEFD8E0DEBFCDBF46
:1001700016E0A0E0B1E0ECE0F1E502C005900D92E0
:10018000A838B107D9F728E0A8E8B6E001C01D9269
:10019000A134B207E1F710E0C1EBD0E004C0219731
:1001A000FE010E949D27C03BD107C9F70E946A1B30
:1001B0000C9479280C940000833081F028F481306D
:1001C00099F08230A9F008958730A9F08830C9F0FD
:1001D0008430B1F4809180008F7D03C080918000D5
:1001E0008F7780938000089584B58F7784BD0895BC
:1001F00084B58F7DFBCF8091B0008F778093B00066
:1002000008958091B0008F7DF9CFCF93DF93282F91
:1002100030E0F901E15FFE4F8491F901E55BFE4FAB
:10022000D491F901E95CFE4FC491CC23A1F0811176
:100230000E94DC00EC2FF0E0EE0FFF1FED5DFE4FA3
:10024000A591B491EC91ED2381E090E009F480E078
:10025000DF91CF91089580E090E0FACF1F93CF9384
:10026000DF93282F30E0F901E15FFE4F8491F9011F
:10027000E55BFE4FD491F901E95CFE4FC491CC23BC
:10028000A9F0162F81110E94DC00EC2FF0E0EE0F98
:10029000FF1FE35DFE4FA591B4918FB7F894EC91E9
:1002A000111108C0D095DE23DC938FBFDF91CF9171
:1002B0001F910895DE2BF8CF9CB59F7D9CBD9CB50A
:1002C000937F9CBD9CB59C7F9CBD9DB591609DBD61
:1002D000682F809133080C942E01CF93DF9390E028
:1002E000FC01E55BFE4F2491895C9E4FFC018491EB
:1002F0008823C9F090E0880F991FFC01EB5FFE4F47
:10030000A591B491FC01E35DFE4FC591D4916111BB
:100310000DC09FB7F8948C91209582238C9388818F
:10032000282328839FBFDF91CF910895623051F435
:100330009FB7F8943C91822F809583238C93E8811A
:100340002E2BEFCF8FB7F894EC912E2B2C938FBFE1
:10035000EACF0F931F93CF93DF9307E018E061E09C
:10036000F80181810E946D01C3ECD0E0CE010197BC
:10037000F1F760E0F80180810E946D01CE010197E4
:10038000F1F760E0F80181810E946D012197F1F79A
:10039000DF91CF911F910F910895EF92FF920F93EC
:1003A0001F93CF93DF93082F18E0C3ECD0E061E0F8
:1003B000809107080E946D01CE010197F1F7E02EB0
:1003C000F12C60E000FF61E0809108080E946D015F
:1003D000CE010197F1F760E0809107080E946D015E
:1003E000CE010197F1F7F594E7940E2D1150F9F62F
:1003F00061E0809107080E946D0160E0809108082B
:100400000E946D01CE010197F1F760E0809107082D
:100410000E946D012197F1F7809108080E94050163
:10042000182F811105C061E0809108080E946D01BC
:10043000C3ECD0E0CE010197F1F761E080910708AD
:100440000E946D012197F1F781E0111101C080E058
:10045000DF91CF911F910F91FF90EF90089561E090
:10046000809108080E946D0183EC90E00197F1F7FC
:1004700008950F931F93CF93DF938C010E942F0257
:1004800080E40E94CD010E94A9010E942F0280EC0D
:100490000E94CD01E8010C5F1F4F89910E94CD01A0
:1004A000C017D107D1F70E94A9010E942F028091A5
:1004B00009088F7080580E94CD01DF91CF911F9164
:1004C0000F910C94A9018E50806480937C008091E0
:1004D0007A00806480937A0080917A0086FDFCCF58
:1004E000809178009091790008953FB7F8948091B9
:1004F000660790916707A0916807B091690726B5D4
:10050000A89B05C02F3F19F00196A11DB11D3FBF4B
:10051000BA2FA92F982F8827BC01CD01620F711D1A
:10052000811D911D42E0660F771F881F991F4A9514
:10053000D1F708958F929F92AF92BF92CF92DF92A0
:10054000EF92FF924B015C010E9475026B017C01EE
:100550000E9475026C197D098E099F09683E7340DF
:1005600081059105A8F321E0821A9108A108B1083C
:1005700088EEC80E83E0D81EE11CF11C81149104A2
:10058000A104B10429F7FF90EF90DF90CF90BF90C6
:10059000AF909F908F9008952FB7F8946091620765
:1005A0007091630780916407909165072FBF08954C
:1005B000DC01ED91FC910190F081E02D0994AF9266
:1005C000BF92CF92DF92EF92FF920F931F93CF9340
:1005D000DF936C017B018B01040F151FEB015E01A2
:1005E000AE18BF08C017D10759F06991D601ED9137
:1005F000FC910190F081E02DC6010995892B79F7D6
:10060000C501DF91CF911F910F91FF90EF90DF9087
:10061000CF90BF90AF900895FC01538D448D252F4E
:1006200030E0842F90E0821B930B541710F0CF968C
:10063000089501970895FC01918D828D981761F0BE
:10064000A28DAE0FBF2FB11D5D968C91928D9F5FD5
:100650009F73928F90E008958FEF9FEF0895FC01B4
:10066000918D828D981731F0828DE80FF11D858D67
:1006700090E008958FEF9FEF0895FC01918D228DFA
:10068000892F90E0805C9F4F821B91098F7399277F
:1006900008958AE697E00E943D0321E0892B09F442
:1006A00020E0822F089580E090E0892B29F00E94BD
:1006B000490381110C9400000895FC01A48DA80F3A
:1006C000B92FB11DA35ABF4F2C91848D90E0019694
:1006D0008F739927848FA689B7892C93A089B189B4
:1006E0008C91837080648C93938D848D981306C055
:1006F0000288F389E02D80818F7D80830895EF92B9
:10070000FF920F931F93CF93DF93EC0181E0888FCB
:100710009B8D8C8D98131AC0E889F989808185FF9B
:1007200015C09FB7F894EE89FF896083E889F9893D
:1007300080818370806480839FBF81E090E0DF913F
:10074000CF911F910F91FF90EF900895F62E0B8D92
:1007500010E00F5F1F4F0F731127E02E8C8D8E114D
:100760000CC00FB607FCFACFE889F989808185FFB4
:10077000F5CFCE010E945D03F1CFEB8DEC0FFD2F85
:10078000F11DE35AFF4FF0829FB7F8940B8FEA896F
:10079000FB8980818062CFCFCF93DF93EC01888D7E
:1007A0008823B9F0AA89BB89E889F9898C9185FDEC
:1007B00003C0808186FD0DC00FB607FCF7CF8C917A
:1007C00085FFF2CF808185FFEDCFCE010E945D03D2
:1007D000E9CFDF91CF910895DC015196ED91FC9125
:1007E0005297908150968C918095892380830895AB
:1007F00020913107309132072817390781F4909101
:100800002F0780913007981751F0E0912F07F0E003
:10081000E151F94F8081082E000C990B08958FEF5C
:100820009FEF08952091310730913207281739073B
:1008300039F48FB7F8941092300710922F078FBFBA
:10084000089520913107309132072817390771F444
:100850008091300720912F0790E0805C9F4F821B92
:10086000910960E470E00E944827089590E080E0DC
:100870000895209131073091320728173907B9F4CC
:1008800090912F0780913007981789F0E0912F07FA
:10089000F0E0E151F94F808120912F0730E02F5F88
:1008A0003F4F2F73332720932F0790E008958FEF4A
:1008B0009FEF089520E001972FEF8F3F9207D9F720
:1008C000089590E080E008958EBD00000DB407FE0D
:1008D000FDCF8EB50895CF93DF93C82FD62F80E03C
:1008E0000E945C018C2F80620E946404C82F8D2FAF
:1008F0000E94640481E00E945C018C2FDF91CF9103
:100900000895CF93C82F80E00E945C018C2F0E9435
:1009100064048FEF0E946404C82F81E00E945C0190
:100920008C2FCF91089580E00E94810481FD0EC03C
:1009300080E00E948104682F626080E00E946B0466
:1009400065E070E080E090E00C949A0208950F93C7
:100950001F93CF938C0186E00E948104C82FC77D2E
:100960000230110509F4C0626C2F86E00E946B040E
:1009700086E00E94810491E0C81390E0892FCF9116
:100980001F910F91089560E0809132080E942E011E
:1009900080E00E948104682F6D7F80E00C946B04DE
:1009A000CF93C82F80E00E945C018C2F0E946404CA
:1009B000C82F81E00E945C018C2FCF9108950F9386
:1009C0001F93CF93DF93D82FC62F80E00E945C0146
:1009D0008D2F80620E946404D82F07E011E0C1507F
:1009E00030F0F80181918F010E946404F8CF81E01A
:1009F0000E945C018D2FDF91CF911F910F9108957F
:100A00004F925F926F927F92AF92BF92CF92DF929E
:100A1000EF92FF920F931F93CF932091EE06211137
:100A200009C05B018C0180910601813189F08F3F03
:100A300009F44FC0CF911F910F91FF90EF90DF907D
:100A4000CF90BF90AF907F906F905F904F90089540
:100A5000E4E0F1E0C491C7FDEDCF61E081E10E94E7
:100A60006D01CC2319F0C23009F0E6C0712C612C65
:100A700060E472E48FE090E0A30198010E947E2779
:100A800069017A0181E0C81AD108E108F108C23091
:100A900009F08EC092E08FEFC816D104E104F10492
:100AA00089F084F060E970ED83E090E0A3019801A3
:100AB0000E947E2769017A0181E0C81AD108E10805
:100AC000F10893E08091B100887F892B8093B10079
:100AD00092C081E180930601E4E0F1E0C491CF3F50
:100AE00009F4A8CFC13021F150F0C23009F43EC062
:100AF000C7FDA0CF61E081E10E946D01B4CF14BCBD
:100B000015BC84B5826084BD85B5816085BDE8E48F
:100B1000F1E0E491F0E0EE0FFF1FE35DFE4F859101
:100B20009491ECE5F1E0E491E093E506C0E095CF27
:100B300010928000109281008091810088608093E3
:100B4000810080918100816080938100E8E4F1E080
:100B5000E491F0E0EE0FFF1FE35DFE4F859194916D
:100B6000ECE5F1E0E491E093E40677CF1092B00079
:100B70001092B1008091B00082608093B0008091AB
:100B8000B10081608093B100E8E4F1E0E491F0E02D
:100B9000EE0FFF1FE35DFE4F8591949190935B07ED
:100BA00080935A07ECE5F1E0E491E0935C0755CFC0
:100BB0008FEFC816D104E104F104A9F0A4F068E4B1
:100BC00078EE81E090E0A30198010E947E27690100
:100BD0007A0181E0C81AD108E108F10894E0C11156
:100BE00071CF93E003C092E0C1116CCF85B5887FCF
:100BF000892B85BDC0E09801220F331FD5010E94CB
:100C00000D2628EE33E040E050E00E945C27C13022
:100C100061F1C230E1F1C1110DCFC7BC2093EA06EA
:100C20003093EB064093EC065093ED0680916E00F6
:100C3000826080936E00FECE980150E040E060E05C
:100C400072E18AE790E00E947E2769017A0181E0E3
:100C5000C81AD108E108F108C13069F68091810015
:100C6000887F816080938100C6CFD0928900C09236
:100C700088002093E6063093E7064093E8065093F9
:100C8000E90680916F00826080936F00D3CEC0929E
:100C9000B30020935D0730935E0740935F07509346
:100CA000600780917000826080937000C3CECF9304
:100CB000DF9300D000D0CDB7DEB789836A834B8342
:100CC0002C83CE0101960E9439020F900F900F9055
:100CD0000F90DF91CF9108952F923F924F925F92A4
:100CE0006F927F928F929F92AF92BF92CF92DF923C
:100CF000EF92FF920F931F93CF93DF93CDB7DEB7A1
:100D000028970FB6F894DEBF0FBECDBF4B015C0134
:100D100028EE33E040E050E00E945C272D833E83C4
:100D20004F83588710E1811617E29106A104B104A0
:100D300008F071C0CD80DE80C501B40124E630E04A
:100D400040E050E00E945C2729012AE02C9DC00170
:100D50002D9D900D11247201E81AF90AC501B40104
:100D60002AE030E040E050E00E945C27E6EF1E2FD2
:100D7000B20116031001179F300C1124220E331EEE
:100D80001203C001139F900D11249C01280D391DE1
:100D9000EC2DEF70F0E0EF5CFE4F80818983EE2D4B
:100DA000EF70F0E0EF5CFE4F8081022D0F70E02FBE
:100DB000F0E0EF5CFE4F90819B832F70E22FF0E01C
:100DC000EF5CFE4F90819C8320E1821627E2920621
:100DD000A104B10408F080C08F778A83CE01019608
:100DE0000E94390228960FB6F894DEBF0FBECDBF21
:100DF000DF91CF911F910F91FF90EF90DF90CF90F7
:100E0000BF90AF909F908F907F906F905F904F902A
:100E10003F902F900895D501C40180519742A109B8
:100E2000B1098035934CA105B105C8F5C501B401E0
:100E300020E137E240E050E00E945C27690166EF64
:100E400062037001639FF00C11248D819E81E80E76
:100E5000F91EC501B40124E630E040E050E00E94F4
:100E60005C27290146EF2D813E8142038001439F8B
:100E7000100D11241801240C351CC501B4012AE001
:100E800030E040E050E00E945C2716EFB20116030C
:100E9000C001179F900D1124280F391F79CF2D8184
:100EA0003E81C90168E572E00E9434276B01C901E7
:100EB0006CE370E00E9434274AE04C9D90014D9D08
:100EC000300D11247B01E21AF30A6AE070E00E94FF
:100ED00034271B019C015CCF80687FCFCF93DF93C9
:100EE00000D000D0CDB7DEB7E82F392F68EE73E021
:100EF0000E943427F62F8E2F932F60E177E20E9415
:100F0000342726EFAF2F269FA00D1124AF70B0E03D
:100F1000AF5CBE4F8C9189838E2F932F64E670E077
:100F20000E943427462FA62F2F9FA00D1124AF70AB
:100F3000B0E0AF5CBE4F8C918A838E2F932F6AE016
:100F400070E00E943427A62F249FA00D1124AF70BB
:100F5000B0E0AF5CBE4F8C918B83269FE00D1124D7
:100F6000EF70F0E0EF5CFE4F80818C83CE01019644
:100F70000E9439020F900F900F900F90DF91CF9148
:100F80000895CF93DF9300D000D0CDB7DEB7E82F20
:100F9000392F81E389838E2F64E670E00E94342725
:100FA000462F8E2F932F68EE73E00E94342726EF92
:100FB000A42F269FA00D1124AF70B0E0AF5CBE4FF0
:100FC0008C918A838E2F932F6AE070E00E943427E1
:100FD000A62F249FA00D1124AF70B0E0AF5CBE4FD0
:100FE0008C918B83269FE00D1124EF70F0E0EF5C75
:100FF000FE4F80818C83CE0101960E9439020F90B2
:101000000F900F900F90DF91CF910895DF92EF92A4
:10101000FF920F931F93CF93DF93EC01898D9A8DED
:10102000892B71F481E090E09B838A8390E080E0DB
:10103000DF91CF911F910F91FF90EF90DF90089576
:10104000162FDFB6F8948B8D81FD29C0CE010E944A
:10105000EC03898D9A8D05960E945A048B8D98E039
:10106000E92EF12C01E081FF28C0812F8023F1F0CF
:10107000CE010E94EC03898D9A8D0E945A04000FC4
:1010800081E0E81AF10889F7CE010E94EC03DFBE87
:10109000898D9A8D0E945A0481E090E0C9CFE98938
:1010A000FA8980819889892B8083D3CFE989FA894D
:1010B00080819889892B8083DECF812F8023B1F0B6
:1010C000E989FA8980819889892B8083898D9A8D15
:1010D0000E945A04000F81E0E81AF10871F7E989CB
:1010E000FA8980819889892B8083D1CFCE010E9493
:1010F000EC03ECCFFB0101900020E9F73197AF0141
:10110000461B570BDC01ED91FC910280F381E02D31
:1011100009948F929F92AF92BF92EF92FF920F939A
:101120001F93CF93DF93CDB7DEB7A1970FB6F89497
:10113000DEBF0FBECDBF7C01FA01CB0119A2223068
:1011400008F42AE08E010F5D1F4F822E912CB12CE6
:10115000A12CBF01A50194010E945C27F901CA01DD
:101160006A300CF5605DD8016E938D01232B242B22
:10117000252B79F790E080E0109721F0BD01C701A1
:101180000E947A08A1960FB6F894DEBF0FBECDBFBD
:10119000DF91CF911F910F91FF90EF90BF90AF9093
:1011A0009F908F900895695CDECFCF92DF92EF928F
:1011B000FF920F931F93CF93DF9377FF1DC06A01B8
:1011C0007B01EC016DE20E94D8028C014427552777
:1011D000BA014C195D096E097F092AE0CE010E940F
:1011E0008908800F911FDF91CF911F910F91FF9080
:1011F000EF90DF90CF9008952AE0DF91CF911F917B
:101200000F91FF90EF90DF90CF900C948908CF92D0
:10121000DF92EF92FF926C01990FEE08FF08B70181
:10122000A6018AE697E00E94D508B701A6018AE0E8
:1012300098E0FF90EF90DF90CF900C94D508CF927C
:10124000DF92EF92FF92C82ED12CF12CE12CB70146
:10125000A6018AE697E00E94D508B701A6018AE0B8
:1012600098E00E94D508FF90EF90DF90CF9008950E
:10127000CF92DF92EF92FF92C82ED12CF12CE12C6D
:101280002AE0B701A6018AE697E00E9489082AE0D1
:10129000B701A6018AE098E00E948908FF90EF90CC
:1012A000DF90CF900895CF92DF92EF92FF926C0182
:1012B000F12CE12C2AE0B701AC018AE697E00E940C
:1012C00089082AE0B701A6018AE098E0FF90EF9034
:1012D000DF90CF900C9489084F925F926F927F922B
:1012E0008F929F92AF92BF92CF92DF92EF92FF9236
:1012F0001F93CF93DF93EC016A017B01AB01960151
:10130000CB01B6010E942F2761E871E0811126C050
:1013100046015701E894B7F82FEF3FEF4FE75FE73B
:10132000C501B4010E942F2781110CC02FEF3FEFA0
:101330004FE75FE7C501B4010E94912465E871E0C1
:10134000181664F02FEF3FEF4FE75FE4C701B601D7
:101350000E942A271816A4F469E871E0CE01DF91F3
:10136000CF911F91FF90EF90DF90CF90BF90AF9003
:101370009F908F907F906F905F904F900C947A0821
:101380002FEF3FEF4FE75FECC701B6010E949124BA
:1013900087FDE2CF20E030E0A901C701B6010E943D
:1013A0009124B12CA12C87FF09C06DE2CE010E94CF
:1013B000D8025C01F7FAF094F7F8F0942EE632E1E7
:1013C00043E05AE3C701B6010E941D262B013C01F0
:1013D0000E94FB266B017C010E9496249B01AC01BC
:1013E000C301B2010E941C262B013C012AE0B70177
:1013F000A601CE010E9489087C01EA0CFB1C6EE26A
:10140000CE010E94D802E80EF91E14E0115021F11D
:1014100020E030E040E251E4C301B2010E94F72431
:101420002B013C010E94FB264B01B12CA12C2AE090
:10143000B501A401CE010E948908E80EF91EC5017C
:10144000B4010E9496249B01AC01C301B2010E9429
:101450001C262B013C01DACFC701DF91CF911F91F0
:10146000FF90EF90DF90CF90BF90AF909F908F90C4
:101470007F906F905F904F900895CF93DF93EC0132
:10148000BC018AE697E00E947A08BE018AE098E0F3
:10149000DF91CF910C947A082F923F924F925F92F6
:1014A0006F927F928F929F92AF92BF92CF92DF9274
:1014B000EF92FF920F931F93CF934B015C0128EEA5
:1014C00033E040E050E00E945C272901C501B401EF
:1014D00020E63AEE40E050E00E945C27690128EEE9
:1014E00033E0249DC001259D900D349D900D112465
:1014F0008401081B190BCCE3CC9DC001CD9D900D40
:1015000011241201281A390AC501B40120E83EEE5F
:1015100046E350E00E945C27C29FC001C39F900D2C
:101520001124C81AD90A8AE0C816D10408F440C0A8
:101530008BEE92E00E943D0AC6010E9453098FE1A2
:1015400092E00E943D0A8AE028163104A0F18BEE59
:1015500092E00E943D0AC1010E9453098FE891E088
:101560000E943D0A8BEE92E00A30110510F48DE8DE
:1015700091E00E943D0A8BEE92E00436110510F4D2
:101580008DE891E00E943D0AC801CF911F910F9113
:10159000FF90EF90DF90CF90BF90AF909F908F9093
:1015A0007F906F905F904F903F902F900C945309D5
:1015B0008DE891E0BFCF8DE891E0CBCF80912C08F2
:1015C00090912D08009711F00C94302360E070E0AA
:1015D000CB010895FC0124813581232B31F421E0D6
:1015E000FB01672B49F4822F089580819181611559
:1015F000710539F421E0FC0180818823A1F320E00A
:10160000F2CF0E94692821E0892B69F3F8CF0F936C
:101610001F93CF93DF93EC0188819981009759F054
:101620002A813B812617370730F081E0DF91CF9187
:101630001F910F9108958B016F5F7F4F0E94A32729
:10164000009759F0998388831B830A832C813D81FD
:10165000232B59F7FC011082E8CF80E0E7CFEF920F
:10166000FF920F931F93CF93DF93EC017B018A01CD
:10167000BA010E94070B28813981811114C02115FC
:10168000310519F0C9010E940824198218821D82AF
:101690001C821B821A82CE01DF91CF911F910F9184
:1016A000FF90EF9008951D830C83B701C9010E943C
:1016B0007228F1CF50E040E06BEE72E00C942F0BFB
:1016C0000F931F93CF93DF938C01EB010E94B525FD
:1016D0008883C80101960E94B5258983CE01DF91D8
:1016E000CF911F910F91089582E090E00E94B5255F
:1016F0008093E3068BED91E00E943D0A8091E30622
:101700000E941F098AEE92E00E943D0A83E090E069
:101710000E94B5258093360781E991E00E943D0A39
:10172000809136070E9438098AEE92E00E943D0AB5
:101730001092340782E292E00E943D0A80913407C1
:101740000E9438098AEE92E00E943D0A6CE377E03D
:1017500085E090E00E94600BFC0180819181909374
:101760003D0780933C078FE991E00E943D0A8091FC
:101770003C0790913D070E9453098AEE92E00E9437
:101780003D0A68E377E087E090E00E94600BFC018F
:1017900080819181909339078093380788E692E0A1
:1017A0000E943D0A80913807909139070E945309A1
:1017B0008AEE92E00E943D0A61EE76E089E090E0D8
:1017C0000E94600BFC01808191819093E2068093DE
:1017D000E10686E492E00E943D0A8091E106909144
:1017E000E2060E9453098AEE92E00E943D0A8BE0D5
:1017F00090E00E94B5258093EE068EEB92E00E9469
:101800003D0A8091EE060E941F098AEE92E00E9436
:101810003D0A6FED76E08CE090E00E94600BFC01E9
:10182000808191819093E0068093DF0686E992E0C3
:101830000E943D0A8091DF069091E0060E945309C4
:101840008AEE92E00E943D0A8AEE92E00C943D0AF4
:10185000CF92DF92EF92FF920F931F93CF93DF937C
:10186000CDB7DEB72C970FB6F894DEBF0FBECDBF55
:1018700026E0289F7001299FF00C11248701005E4B
:101880001F4F6E0187E0C80ED11CE6E2EE0EF11C80
:10189000C8010E94B525F60181936F010F5F1F4FAC
:1018A000E016F106A9F786E0FE013796DE011196F3
:1018B00001900D928A95E1F729813A814B815C81F3
:1018C0006D817E8180E090E02C960FB6F894DEBFAB
:1018D0000FBECDBFDF91CF911F910F91FF90EF9081
:1018E000DF90CF900895CF92DF92EF92FF920F9307
:1018F0001F93CF93DF93CDB7DEB728970FB6F89439
:10190000DEBF0FBECDBF6C01BE01695F7F4F90E0AF
:1019100080E00E94600BFC018081918198878F8319
:10192000892BA9F1F12CE12C10E000E08F81988542
:1019300006978E159F0558F1C8010E94280C29832F
:101940003A834B835C836D837E8389819A81C11442
:10195000D10419F0C816D90681F40E9453098BE10D
:1019600095E00E943D0A6B817C818D819E810E9461
:101970004C0A8AEE92E00E943D0AF6E0EF0EF11C5E
:10198000083E83E0180719F00F5F1F4FCFCF28964E
:101990000FB6F894DEBF0FBECDBFDF91CF911F9180
:1019A0000F91FF90EF90DF90CF900895FF920F93EB
:1019B0001F93CF93DF93EC01F62E08811981C801A4
:1019C0000E94B525F81621F06F2DC8010E94BD2593
:1019D000CE01DF91CF911F910F91FF900895EF926B
:1019E000FF920F931F93CF93DF9300D0CDB7DEB755
:1019F0008C017B019A838983FB016081CE01019672
:101A00000E94D60C0F5F1F4F1A830983F701618173
:101A1000CE0101960E94D60CC7010F900F90DF9166
:101A2000CF911F910F91FF90EF9008950F931F9307
:101A3000CF93DF9300D0CDB7DEB78B019A83898334
:101A4000FB016081CE0101960E94D60CC8010F9067
:101A50000F90DF91CF911F910F910895CF92DF9258
:101A6000EF92FF920F931F93CF93DF93CDB7DEB723
:101A70002A970FB6F894DEBF0FBECDBF9A83898335
:101A80004B835C836D837E83BE01675F7F4F90E0F5
:101A900080E00E94600B09851A85780180E2E80EDB
:101AA000F11CFE0131966F010A5D1F4FF886EF822F
:101AB000F60161916F01CE0107960E94D60CFFEFEF
:101AC000EF1AFF0AE016F10689F789859A850696CE
:101AD0009A878987BE01675F7F4F90E080E00E9410
:101AE000EF0C86EB91E00E943D0A89859A852A9643
:101AF0000FB6F894DEBF0FBECDBFDF91CF911F911F
:101B00000F91FF90EF90DF90CF9008953F924F920A
:101B10005F926F927F928F929F92AF92BF92CF927D
:101B2000DF92EF92FF920F931F93CF93DF93CDB786
:101B3000DEB728970FB6F894DEBF0FBECDBFD82E04
:101B40002A013B0181115DC00E94CC0200919306E5
:101B5000109194062091950630919606601B710BAA
:101B6000820B930B623371058105910508F449C01E
:101B700080E10E9405015C0188248394892B09F08F
:101B8000812C82E00E9405017C0133243394892B4F
:101B900009F0312C83E00E9405018C01CC24C39410
:101BA000892B09F0C12C982C93289C28B1F08091A6
:101BB0008F0690919006A0919106B0919206892B84
:101BC0008A2B8B2B51F40E94CC0260938F0670936A
:101BD00090068093910690939206AB2829F180910C
:101BE0008E068823A1F180928E060E94CC0260931B
:101BF0009306709394068093950690939606DD2441
:101C0000D39480915607811131C68091550721E008
:101C1000D21280C09091540791118FC0811178C069
:101C200080E18093550789C00E94CC0220918F06E5
:101C3000309190064091910650919206621B730B71
:101C4000840B950B693E73408105910570F6809277
:101C50008E06EF2899F080918D06882311F1C092AD
:101C60008D060E94CC026093930670939406809335
:101C700095069093960692E0D92EC3CF0E94CC028F
:101C800020918F06309190064091910650919206D6
:101C9000621B730B840B950B693E734081059105A4
:101CA00000F730928D06012B99F080918C068823E5
:101CB00011F1C0928C060E94CC026093930670933F
:101CC0009406809395069093960683E0D82E99CF3C
:101CD0000E94CC0200918F061091900620919106EF
:101CE00030919206601B710B820B930B693E73401F
:101CF0008105910500F7C0928C06911082CF109259
:101D00008F0610929006109291061092920679CF4B
:101D1000815087CF92E0D9121FC090915607913021
:101D200061F090915607911102C0813031F080919D
:101D3000540791E08927809354071091550711119A
:101D40009CC080915407811115C029E749E367E7DA
:101D500081E30E94570648C1E3E0DE12EECF909186
:101D600054079111EACF803118F010925507E5CF52
:101D70008F5F57CF80910401909105010E94C107A8
:101D8000F1E0DF1220C080910401909105010297DB
:101D9000A0F08091040190910501019790930501B5
:101DA0008093040180910401909105010E94FF1726
:101DB00080915407882309F44BC1809155078F7E89
:101DC00009F046C14EC523E0D2120DC08091040136
:101DD00090910501873E934080F780910401909196
:101DE00005010196DBCFF4E0DF123CC0E090040176
:101DF000F090050110E000E021E030E040E050E02C
:101E000061E070E080E090E00E94AB1681E080939A
:101E100056070E94CC026093BC067093BD06809367
:101E2000BE069093BF061092B8061092B9061092A3
:101E3000BA061092BB061092B7061092B6066CE274
:101E400071E08AE593E20E9400058DEB91E00E942B
:101E50003D0A80910401909105010E94530981EC93
:101E600091E024C22AE0D21272C7411451046104E5
:101E7000710409F4A2CFC20199CF113009F09DC0BD
:101E80008091540781110EC028E748E36DE681E395
:101E90000E94570682E0D812A7C0109354071092F0
:101EA000B50686CFBE01695F7F4F90E080E00E945B
:101EB000600BFC018081918198878F83009729F5C1
:101EC0002FE347E368E088E00E945706F2E0DF1264
:101ED00004C01092B5061092540728960FB6F894D5
:101EE000DEBF0FBECDBFDF91CF911F910F91FF904D
:101EF000EF90DF90CF90BF90AF909F908F907F90AA
:101F00006F905F904F903F90089566E070E00E9460
:101F100034276150710980910001909101018F3047
:101F2000974221F4709301016093000180910001B8
:101F300090910101E1E0DE1227C00097F9F470935F
:101F400001016093000180910001909101010E94C4
:101F5000280C29833A834B835C836D837E83809135
:101F6000B50681111EC089819A810E94C10722E0B5
:101F7000D212BAC081E08093B5061ACF0197909330
:101F8000010180930001DFCFF3E0DF12DCCF861781
:101F9000970728F01092010110920001D4CF01960A
:101FA000EECF8B819C810E94C10782E0D8129CC039
:101FB0001092B50610925407FBCE1230C9F48091EE
:101FC0005407811105C026E74DE668E381E7C1CEDD
:101FD00090E080E00E94730C64EF71E080E090E09C
:101FE0000E949A0210925407DD2009F476CF30C087
:101FF000133081F580915407811105C028E041E339
:1020000068E389E3A6CE24E548E068E08EE60E9416
:10201000570691E0D91671F2E3E0DE1298C61A82F3
:102020001982BE016F5F7F4F90E080E00E94EF0C4D
:102030008AEC91E00E943D0A8AEE92E00E943D0AFD
:1020400064EF71E080E090E00E949A0210925407E1
:1020500060E008C4143009F04BC08091540729E7B0
:102060004CE167E7882309F4F1C39D2D9D7F9130F2
:10207000F9F48091E30689278093E30663EE76E026
:1020800082E090E00E94160D2CE0D21220C081E088
:1020900045284628472809F480E08093E30663EE4C
:1020A00076E082E090E00E94160D8AEE91E005C095
:1020B000FBE08AED91E0DF12E7CF0E943D0A8091BC
:1020C000E3060E941F098AEE92E00E943D0A809179
:1020D000E3062DE649E76EE6811103C02FE347E3EF
:1020E00068E088E00E945706DD2009F4F6CE60CE55
:1020F000153081F480915407811105C02DE347E329
:1021000060E183E726CE8091CF069091D0060E94B1
:102110006E076ACF163069F480915407811105C0AB
:1021200028E74DE66FE388E314CE8091C40690E083
:10213000EECF173009F072C080915407811105C0AD
:1021400028E74DE669E788E704CE0E94CC020091BB
:10215000B1061091B2062091B3063091B406601B0F
:10216000710B820B930B6D3271408105910530F13B
:10217000E090AF06F090B006FAE0EF0EF11C10E030
:1021800000E021E030E040E050E066E070E080E018
:1021900090E00E94AB168091AF069091B006019638
:1021A0009093B0068093AF060E94CC026093B10674
:1021B0007093B2068093B3069093B40625E0D212D2
:1021C00022C04092AB065092AC066092AD0670926F
:1021D000AE068EEF91E00E943D0A8BE195E00E94F1
:1021E0003D0A2AE0B301A2018AE697E00E9489082D
:1021F0002AE0B301A2018AE098E00E9489088AEEF1
:1022000092E00E943D0A6091AB067091AC0680910D
:10221000AD069091AE060E946C0666CF183009F0AC
:1022200048C080915407811105C021E348E767E762
:102230008FE78FCD20913E0730913F0740914007B7
:1022400050914107A8EEB3E00E94CB250E9496244E
:102250002CEB3CE644EA5BE30E94F7240E94FB2659
:10226000CB010E946E0784E1D81271C580E192E033
:102270000E943D0A8BE195E00E943D0A60913E0775
:1022800070913F0780914007909141070E949624EA
:102290002CEB3CE644EA5BE30E94F724AB01BC0173
:1022A0008AE098E00E946C098AEE92E00E943D0A62
:1022B0007FCD193099F5809154072DE647E369E702
:1022C000882309F4C3C28091360791E0D91216C061
:1022D000811112C081E08093360766E377E083E0E6
:1022E00090E00E94501A8091360781110FC028E3B8
:1022F00040E167E781E7F6CE8150EDCFE3E0DE1203
:10230000F2CF882339F310923607E7CF813009F0F6
:10231000EBCE29E74DE660E181E3E4CE1A3009F027
:102320005AC080915407811105C029E74FE36FE33C
:1023300084E50FCD8D2D8D7F8130D1F490913407C0
:10234000911180E08093340764E377E084E090E0CB
:102350000E94501A2EE0D21222C04092340764E349
:1023600077E084E090E00E94501A89E392E005C093
:10237000FDE0DF12EFCF81E292E00E943D0A809102
:1023800034070E94380980913407811115C089E211
:1023900092E00E943D0A8AEE92E00E943D0A8091FE
:1023A000340781110CC02DE643E767E788E30E94FC
:1023B00057060E94C30498CE81E392E0EACF8130B1
:1023C00009F092CE29E747E360E188E30E945706CF
:1023D0000E94930489CE1B3009F07DC08091540780
:1023E000811133C027E343E767E788E30E9457067C
:1023F00082E0D81221C08091A9069091AA0620916E
:10240000E1063091E20682179307B1F09093E2065D
:102410008093E10661EE76E089E090E00E94EF0CA7
:1024200064E670E088EB9BE00E94000566E970E0DE
:1024300080E090E00E949A028091E1069091E2068D
:102440009093AA068093A9064FCE8091A9069091F9
:10245000AA06E1E0DE1221C0009729F001979093CF
:10246000AA068093A9068091A9069091AA060E94C7
:102470006E072FE0D21219C08091E1069091E2061A
:102480000E946E0785E492E00E943D0A8091E10679
:102490009091E2060E94530907CFF3E0DF12E3CFE9
:1024A0008F3F910500F70196DACF80E1D8124FC433
:1024B0005092E2064092E10661EE76E089E090E01B
:1024C0000E94EF0C8091E1069091E2060E946E0757
:1024D00084E592E0D9CF1C3009F053C080915407B5
:1024E000811133C02DE34EE367E78DE60E94570666
:1024F00092E0D91221C08091A7069091A806209160
:102500003C0730913D0782179307B1F090933D0748
:1025100080933C076CE377E085E090E00E94EF0C4D
:1025200064E670E088EB9BE00E94000566E970E0DD
:1025300080E090E00E949A0280913C0790913D07D4
:102540009093A8068093A706CFCD8091A70690917F
:10255000A806E1E0DE120DC08330910528F0019756
:102560009093A8068093A7068091A7069091A8064D
:10257000CECDF3E0DF12F8CF8F3F9105A8F701969B
:10258000EFCF1D3009F091C080915407811148C0F0
:1025900028E34CE168E38DE60E94570622E0D21260
:1025A00021C08091A5069091A60620913807309110
:1025B000390782179307B1F0909339078093380752
:1025C00068E377E087E090E00E94EF0C64E670E05B
:1025D00088EB9BE00E94000566E970E080E090E0F7
:1025E0000E949A0280913807909139079093A6062D
:1025F0008093A50623E0D21230C08091A506909169
:10260000A6068F3F910528F401969093A606809325
:10261000A5068091A5069091A6060E946E07C8CBDC
:102620008091A5069091A606E1E0DE120EC000970B
:1026300029F001979093A6068093A5068091A506A0
:102640009091A6060E946E07D5CFF3E0DF12F6CF79
:102650008F3F910598F70196EDCF81E1D8120FC019
:1026600080913807909139070E946E0787E692E0C3
:102670000E943D0A80913807909139070BCF92E173
:10268000D91232CD509239074092380768E377E08B
:1026900087E090E00E94EF0C809138079091390715
:1026A0000E946E078CE792E0E3CF1E3009F085C0F0
:1026B0008091540781113FC028E744E568E78DE623
:1026C0000E945706E2E0DE1221C08091A30690919D
:1026D000A4062091DF063091E00682179307B1F03F
:1026E0009093E0068093DF066FED76E08CE090E05B
:1026F0000E94EF0C64E670E088EB9BE00E9400050E
:1027000066E970E080E090E00E949A028091DF0626
:102710009091E0069093A4068093A30683E0D812DC
:1027200024C08091A3069091A40601969093A406DC
:102730008093A30672CF8091A3069091A406F1E046
:10274000DF120EC0009729F001979093A4068093A2
:10275000A3068091A3069091A4060E946E07DECF87
:1027600023E0D212F6CF0196F0CF97E1D9120FC035
:102770008091DF069091E0060E946E0785E992E065
:102780000E943D0A8091DF069091E00683CEE8E149
:10279000DE12AACC5092E0064092DF066FED76E0A2
:1027A0008CE090E00E94EF0C8091DF069091E006B3
:1027B0000E946E0787EA92E0E3CF1F30E9F580912F
:1027C000540729E748E76EE3882309F4B1CD9D2D2E
:1027D0009D7F9130F9F48091EE0689278093EE0673
:1027E0006EEE76E08BE090E00E94160D26E1D212AC
:1027F00020C081E045284628472809F480E08093DE
:10280000EE066EEE76E08BE090E00E94160D85EC11
:1028100092E005C0F5E18DEB92E0DF12E7CF0E9478
:102820003D0A8091EE060E941F098AEE92E00E9406
:102830003D0A8091EE064DCC103109F055CC8091C7
:102840005407811105C028E347E769E38DE681CA93
:1028500080913A0790913B070E946E07DD2009F4B2
:102860003CCB61E086E00E942E0137CB8091560779
:10287000813009F01EC282E0D81619F098E2D91210
:1028800072C081ED92E00E943D0A80910401909116
:1028900005010E9453098AEE92E00E943D0AE12C54
:1028A000F12C870122E030E040E050E061E070E090
:1028B00080E090E00E94AB1628E349E367E389E3F8
:1028C0000E9457061092B8061092B9061092BA06E6
:1028D0001092BB061092B7061092B60610929F0691
:1028E0001092A0061092A1061092A20668EC70E069
:1028F00088EB9BE00E9400056AEF70E080E090E0CA
:102900000E949A0268EC70E088EB9BE00E94000550
:102910006AEF70E080E090E00E949A021092560701
:102920000E94CC0200919B0610919C0620919D066E
:1029300030919E06601B710B820B930B683E7340B7
:102940008105910508F4D0CB0E94CC020091BC0611
:102950001091BD062091BE063091BF06601B710B21
:10296000820B930B58CCE5E0DE1284C0F1E84F16E1
:10297000510461047104A0F28FED92E00E943D0ABF
:1029800080910401909105010E94530982EC93E02B
:102990000E943D0AC301B2010E9496242FE632E153
:1029A00043E85AE30E94F7244B015C01BC01A401F7
:1029B0008AE697E00E946C09B501A4018AE098E0DC
:1029C0000E946C0989EE92E00E943D0A4092B8068E
:1029D0005092B9066092BA067092BB06C301B2016A
:1029E0000E946C0664E670E088EB9BE00E940005A4
:1029F00066E970E080E090E00E949A0264E670E090
:102A000088EB9BE00E94000566E970E080E090E0C2
:102A10000E949A0264E670E088EB9BE00E94000549
:102A200066E970E080E090E00E949A028091E306FF
:102A3000882341F08091040190910501B301A20126
:102A40000E942E0DBE016F5F7F4F90E080E00E94DC
:102A5000600BFC018081918166E070E00E94342768
:102A600061507109709301016093000182E08093CD
:102A7000560756CFF4E0DF1253CF8091340781110F
:102A80004FCF68E270E080EA9FE00E9400056CE3AF
:102A900070E080E090E00E949A0268E270E080EAD4
:102AA0009FE00E9400050E94CC0260939B067093F9
:102AB0009C0680939D0690939E060091B606109109
:102AC000B7060F5F1F4F1093B7060093B6060E941C
:102AD000CC024090BC065090BD066090BE0670903F
:102AE000BF06641975098609970980909F06909022
:102AF000A006A090A106B090A206681979098A09DB
:102B00009B0960939706709398068093990690931B
:102B10009A060E94CC026419750986099709609388
:102B20009F067093A0068093A1069093A206C80109
:102B30000E946E078CEE92E00E943D0A8091B606DC
:102B40009091B7060E94530982EC93E00E943D0ADF
:102B500060919F067091A0068091A1069091A206B7
:102B60000E944C0A8BE195E00E943D0A6091970615
:102B7000709198068091990690919A060E944C0A4D
:102B80002091B6063091B7068091E1069091E20659
:102B90002817390708F4C4CE80919F069091A006AB
:102BA000A091A106B091A2068093B8069093B906B1
:102BB000A093BA06B093BB0682EF92E00E943D0A52
:102BC0008BE195E00E943D0A8091040190910501FE
:102BD0000E94530982EC93E00E943D0A6091B8067E
:102BE0007091B9068091BA069091BB060E944C0A7A
:102BF00089EE92E00E943D0A1092B7061092B60646
:102C00008090B8069090B906A090BA06B090BB0626
:102C1000C501B4010E946C0664E670E088EB9BE09D
:102C20000E94000566E970E080E090E00E949A0250
:102C300064E670E088EB9BE00E94000566E970E0C6
:102C400080E090E00E949A0264E670E088EB9BE0EE
:102C50000E94000566E970E080E090E00E949A0220
:102C60008091E306882341F0809104019091050151
:102C7000B501A4010E942E0DBE016F5F7F4F90E051
:102C800080E00E94600BFC018081918166E070E031
:102C90000E94342761507109709301016093000113
:102CA00010929F061092A0061092A1061092A20602
:102CB000DDCE80915607823009F016CA6091B806C1
:102CC0007091B9068091BA069091BB0661157105A5
:102CD0008105910511F00E946C068FEF8D0D8330F8
:102CE00018F41092560764C824E0D212FDC9E0908F
:102CF0000401F090050110E000E021E030E040E048
:102D000050E061E070E080E090E00E94AB1681E06E
:102D1000809356070E94CC026093BC067093BD0658
:102D20008093BE069093BF066CE271E08AE593E261
:102D30000E9400051092B8061092B9061092BA06C9
:102D40001092BB061092B7061092B6067EC8DD2020
:102D500009F4C3C832C88F929F92AF92BF92CF92AC
:102D6000DF92EF92FF920F931F93CF93DF93E09147
:102D70003407EE2309F4E7C06093D3067093D406BA
:102D80008093D5069093D6062093D7063093D80625
:102D90004093D9065093DA06E092DB06F092DC0607
:102DA0000093DD061093DE060E9475024B015C0164
:102DB00080913608C4E18111C0E080E00E945C018E
:102DC00080EA0E94640403ED16E0DDE0D15031F0AA
:102DD000F80181918F010E946404F8CFC15020F066
:102DE00080E00E946404FACF81E00E945C0161E00F
:102DF000809132080E942E018FEF0E94D0048073D0
:102E0000D9F360E0809132080E942E0160E787E0EC
:102E10000E946B0484FD37C08091020190910301F0
:102E200001969093030180930201C090CF06D09049
:102E3000D006E090D106F090D206C114D104E1048E
:102E4000F10409F48DC00E94750222E0CC0CDD1C57
:102E5000EE1CFF1C2A95D1F7C818D908EA08FB0810
:102E60006C0D7D1D8E1D9F1D25E030E040E050E083
:102E70000E945C272093CF063093D0064093D10662
:102E80005093D2067BC081EE0E94D0048091C90687
:102E90009091CA0601969093CA068093C9060E9433
:102EA000CC020091C5061091C6062091C70630914C
:102EB000C806601B710B820B930B69387341810547
:102EC000910508F440C06091C9067091CA06072EAA
:102ED000000C880B990B0E9498246B017C01609177
:102EE000020170910301072E000C880B990B0E94C0
:102EF00098249B01AC01C701B6010E9489269B0161
:102F0000AC0160E070E080E89FE30E941C2620E0B6
:102F100030E048EC52E40E94F7240E94FB266093C4
:102F2000C4061092CA061092C906109203011092AC
:102F300002010E94CC026093C5067093C60680937E
:102F4000C7069093C806DF91CF911F910F91FF9014
:102F5000EF90DF90CF90BF90AF909F908F900895AB
:102F60000E947502681979098A099B096093CF0646
:102F70007093D0068093D1069093D20687E10E9489
:102F8000810480FD8CCF80E2F82E87E10E948104CD
:102F900080FD85CFC0913508C43008F0C4E0809131
:102FA0003608DF2DDC1B8111D0E080E00E945C013F
:102FB00081E60E9464040BEC16E0C15038F08FEFFC
:102FC0000E946404F80181938F01F7CFD15020F063
:102FD0008FEF0E946404FACF81E00E945C0160E7F9
:102FE00087E00E946B044091CB065091CC06609123
:102FF000CD067091CE0685E00E94860DC6CFEF9279
:10300000FF920F931F939093050180930401809189
:103010000401909105010E94C1078BEF92E00E948C
:103020003D0A80910401909105010E9453098AEEA6
:1030300092E00E943D0AE0900401F090050110E04A
:1030400000E021E030E040E050E062E070E080E04D
:1030500090E00E94AB161F910F91FF90EF900895A2
:103060000F931F930E94CC020091C0061091C106DD
:103070002091C2063091C306AB01BC01401B510B2D
:10308000620B730B8091DF069091E006B0E0A0E048
:10309000481759076A077B0790F00E94CC0260939B
:1030A000C0067093C1068093C2069093C30640E0A9
:1030B00050E0BA0184E01F910F910C94860D1F918E
:1030C0000F9108951F920F920FB60F9211242F9314
:1030D0003F938F939F93AF93BF938091620790919B
:1030E0006307A0916407B09165073091610723E001
:1030F000230F2D3758F50196A11DB11D20936107AF
:103100008093620790936307A0936407B093650769
:103110008091660790916707A0916807B091690751
:103120000196A11DB11D8093660790936707A09338
:103130006807B0936907BF91AF919F918F913F91BD
:103140002F910F900FBE0F901F90189526E8230F18
:103150000296A11DB11DD2CF1F920F920FB60F92F2
:1031600011242F933F934F935F936F937F938F938C
:103170009F93AF93BF93EF93FF9380915D079091DF
:103180005E07A0915F07B0916007892B8A2B8B2B7C
:10319000D1F190915C07E0915A07F0915B07808133
:1031A0008927808380915D0790915E07A0915F07DA
:1031B000B0916007181619061A061B069CF4809138
:1031C0005D0790915E07A0915F07B091600701973E
:1031D000A109B10980935D0790935E07A0935F07F3
:1031E000B0936007FF91EF91BF91AF919F918F9145
:1031F0007F916F915F914F913F912F910F900FBEF3
:103200000F901F90189580910601E4E0F1E0E491A1
:103210009FEF90930601E13051F030F0E23069F019
:1032200060E00E942E01DECF10926E00F9CF9091E7
:103230006F009D7F90936F00F3CF909170009D7F02
:103240009093700091E09093B0009091B100987FBE
:1032500094609093B1001092B300E2CF1F920F924E
:103260000FB60F9211242F933F934F935F936F9359
:103270007F938F939F93AF93BF93EF93FF938AE6D0
:1032800097E00E945D03FF91EF91BF91AF919F91F5
:103290008F917F916F915F914F913F912F910F90FF
:1032A0000FBE0F901F9018951F920F920FB60F929E
:1032B00011242F938F939F93EF93FF93E0917A07BD
:1032C000F0917B078081E0918007F091810782FD7A
:1032D0001BC09081809183078F5F8F73209184073B
:1032E000821741F0E0918307F0E0E659F84F958F9F
:1032F00080938307FF91EF919F918F912F910F9072
:103300000FBE0F901F9018958081F4CF1F920F92DF
:103310000FB60F921124EF92FF920F931F932F93EA
:103320003F934F935F936F937F938F939F93AF934D
:10333000BF93CF93DF93EF93FF93C0913107D09169
:103340003207209749F0EE85FF859D858B8D81FFA3
:103350001AC080818923D1F4FF91EF91DF91CF9141
:10336000BF91AF919F918F917F916F915F914F919D
:103370003F912F911F910F91FF90EF900F900FBEF3
:103380000F901F9018958081892331F78B899C8934
:103390000E945A0488E0E82EF12C10E001E08D89AB
:1033A0009E890E945A04EE85FF8580819D85892330
:1033B00039F1102B000F81E0E81AF10881F78F89AD
:1033C000988D0E945A048B8D81FD10958091300755
:1033D00020912F0790E001968F73992728171906DF
:1033E00099F0E0913007F0E0E151F94F10838091BE
:1033F000300790E001968F73992780933007ACCF08
:10340000802F80951823D6CF8B8D81608B8FA4CF92
:103410001F920F920FB60F9211242F933F934F9349
:103420005F936F937F938F939F93AF93BF93EF932C
:10343000FF930E948619FF91EF91BF91AF919F91E9
:103440008F917F916F915F914F913F912F910F904D
:103450000FBE0F901F9018951F920F920FB60F92EC
:1034600011242F933F934F935F936F937F938F9389
:103470009F93AF93BF93EF93FF930E948619FF91A1
:10348000EF91BF91AF919F918F917F916F915F91DC
:103490004F913F912F910F900FBE0F901F90189555
:1034A0000F931F93CF93DF9300D0CDB7DEB78B017F
:1034B0009A838983FB016081CE0101960E94D60C1C
:1034C000C8010F900F90DF91CF911F910F91089538
:1034D000CF92DF92EF92FF9210926D0710926C07DD
:1034E00098EEC92E93E0D92EE12CF12CC0926E07F4
:1034F000D0926F07E0927007F092710781E691E039
:1035000090936B0780936A0785EC90E09093770720
:103510008093760784EC90E0909379078093780706
:1035200080EC90E090937B0780937A0781EC90E0A9
:1035300090937D0780937C0782EC90E090937F07C7
:1035400080937E0786EC90E09093810780938007BC
:1035500010928307109284071092850710928607B5
:1035600089E0809332088AE080933308109234080F
:1035700080E2809335081092360885E080933C08FD
:1035800010922D0810922C0810922F0810922E08DD
:10359000109231081092300850E040E06BEE72E07B
:1035A0008CE298E00E942F0B1092270810922608B8
:1035B000109229081092280810922B0810922A08BD
:1035C00050E040E06BEE72E086E298E00E942F0B44
:1035D00010920D0810920C08C0920E08D0920F089D
:1035E000E0921008F092110883E791E090930B08A5
:1035F00080930A0810921E0810921D08109220084D
:1036000010921F081092220810922108109224088C
:1036100010922308809125088E7F8D7F8093250846
:1036200061E087E00E946D0161E087E00E942E0169
:10363000E2E5F1E0E491E0931A08EEE3F1E0E491D1
:10364000F0E0EE0FFF1FE35DFE4F859194919093A4
:103650001C0880931B0860E088E00E946D01809147
:10366000250881FD04C061E088E00E942E0188E009
:1036700080931608E3E5F1E0E491E0931708EFE3A7
:10368000F1E0E491F0E0EE0FFF1FED5DFE4F85915C
:103690009491909319088093180885E08093070807
:1036A00084E08093080860E085E00E946D0160E09E
:1036B000809108080E946D0160E0809107080E94D7
:1036C0002E0160E080910808FF90EF90DF90CF908E
:1036D0000C942E01CF93DF93CDB7DEB72C970FB6A6
:1036E000F894DEBF0FBECDBF789484B5826084BDF0
:1036F00084B5816084BD85B5826085BD85B58160F6
:1037000085BD80916E00816080936E001092810073
:10371000809181008260809381008091810081602E
:1037200080938100809180008160809380008091EF
:10373000B10084608093B1008091B000816080937B
:10374000B00080917A00846080937A0080917A0042
:10375000826080937A0080917A00816080937A0001
:1037600080917A00806880937A001092C100E09185
:103770007A07F0917B0782E08083E0917607F091F1
:1037800077071082E0917807F09179078FEC8083BA
:1037900010928207E0917E07F0917F0786E0808398
:1037A000E0917C07F0917D07808180618083E091CA
:1037B0007C07F0917D07808188608083E0917C07A1
:1037C000F0917D07808180688083E0917C07F09193
:1037D0007D0780818F7D80831092240810922308BA
:1037E00010922208109221081092200810921F08AF
:1037F00090E080E0FC01E859FF4F459155916591BB
:10380000749141155B446105710509F081C3FC01A8
:10381000E459FF4F2591349130931E0820931D08E1
:10382000FC01E259FF4F25913491309320082093F9
:103830001F08FC01E059FF4F259134913093220875
:1038400020932108FC01EE58FF4F859194919093AD
:103850002408809323088091210890912208892BC5
:10386000B1F190911608963160F52091680084E0DE
:10387000983048F031E09E3008F430E081E001C03B
:10388000880F3A95EAF7822B80936800EDE6F0E026
:10389000983050F0EBE6F0E09E3030F0ECE6F0E0EF
:1038A000963110F0F0E0E0E04081292F30E09830D0
:1038B00008F038C381E001C0880F9A95EAF7842B9D
:1038C000808380912308909124080E945A0480915B
:1038D0003107909132078A50984091F080912508E5
:1038E0008E7F809325088FB7F8941092300710923E
:1038F0002F072AE038E030933207209331078FBF3B
:1039000084E690E0A0E0B0E080930E0890930F086A
:10391000A0931008B093110887E093E00E943D0A3D
:103920000E94740B62E082E10E946D0162E080E11E
:103930000E946D0162E082E00E946D0162E083E01E
:103940000E946D0161E081E10E946D0161E082E110
:103950000E946D0160E082E10E942E0160E08FE034
:103960000E946D0161E086E00E946D0160E086E0EA
:103970000E942E0160E083E10E946D0161E0809170
:1039800032080E946D0161E0809133080E946D0150
:103990001FB7F89480913307811127C0E1E4F1E06B
:1039A0008491E5E5F1E09491E82FF0E0EE0FFF1F40
:1039B000EB5FFE4FA591B491EC91E92321F461E016
:1039C0008AE00E942E0161E08AE00E946D018CB5C0
:1039D00080618CBD8CB580648CBD61E08DE00E94FF
:1039E0006D0161E08BE00E946D01809133078F5F74
:1039F000809333071FBF60E0809132080E942E0140
:103A000081E00E945C0165E070E080E090E00E944F
:103A10009A026FE584E00E946B0482E090E00E94CD
:103A2000A704882319F081E08093340890E080E0B7
:103A30000E94A70480E00E948104682F6C6080E0EF
:103A40000E946B0460E787E00E946B046CE485E0F1
:103A50000E946B0482EE0E94D00481EE0E94D0048A
:103A60000E94930480E00E948104682F6E7F80E0B2
:103A70000E946B046FE381E00E946B046FE084E0BE
:103A80000E946B0480E00E945C0180E50E94640457
:103A900083E70E94640481E00E945C018DE10E9442
:103AA0008104682F66608DE10E946B048CE10E94A6
:103AB0008104682F63608CE10E946B0481E0809335
:103AC000360880E28093350860913C088AE00E94C5
:103AD000DF0460913C0880E10E94DF0460913508BA
:103AE00081E10E946B046CE085E00E946B0486E03B
:103AF0000E948104887F682F636086E00E946B04C7
:103B000090E080E00E94A7040E94930460E080910E
:103B100032080E942E0181EE0E94D00480E00E94B3
:103B20008104682F6E7F80E00E946B0483E092E046
:103B30000197F1F780913407811102C00E94C304FC
:103B40008FE08093090829E749E367E781E30E9452
:103B5000570664E670E08CEA9DE00E94000566E985
:103B600070E080E090E00E949A0264E670E088EBEA
:103B70009BE00E94000566E970E080E090E00E9412
:103B80009A0264E670E084EC99E00E94000566E920
:103B900070E080E090E00E949A023AE0832E912C3F
:103BA000A12CB12CDD24D39490E1C92E20E0222E4B
:103BB00020E0322E20913A0730913B0780913C075C
:103BC00090913D070197829F8001839F100D929FE6
:103BD000100D112483E10E946302800F911F6091F8
:103BE0003C0770913D070E94342770933B07609318
:103BF0003A0720913A0730913B078091380790911E
:103C000039072817390708F49AC1D092370710E00E
:103C100080913607811198C1111108C08091350734
:103C2000882321F0109235070E9430181093350731
:103C300040E050E0BA0180E00E94860D0E94CC0274
:103C400000914207109143072091440730914507A6
:103C5000601B710B820B930B643671058105910516
:103C600038F140903E0750903F07609040077090B9
:103C700041078FE0411451046104710409F06EC1E1
:103C80000E946302092E000CAA0BBB0B80933E0717
:103C900090933F07A0934007B09341070E94CC0246
:103CA00060934207709343078093440790934507BE
:103CB0000E94CC02009146071091470720914807C7
:103CC00030914907601B710B820B930B643F71406D
:103CD00081059105F8F080915607E0900401F0907D
:103CE000050110E000E021E030E040E050E08130EC
:103CF00009F052C163E070E080E090E00E94AB16F2
:103D00000E94CC0260934607709347078093480750
:103D1000909349078AE098E00E942104181619063A
:103D20000CF061C08091520790915307892B71F478
:103D300021E030E0309353072093520786E298E069
:103D40000E945A0B8CE298E00E945A0B8091520715
:103D500090915307029731F483E090E090935307DA
:103D6000809352078AE098E00E943904803209F07B
:103D700018C1E2E0F0E0F0935307E093520720917E
:103D80005207309153072130310509F014C189835E
:103D90001A8200912A0810912B080F5F1F4FB8015B
:103DA00086E298E00E94070B882399F0209126086C
:103DB0003091270880912A0890912B08BE016F5FEF
:103DC0007F4F820F931F0E94722810932B0800933D
:103DD0002A080E94CC0260934A0770934B07809395
:103DE0004C0790934D078091520790915307049789
:103DF000F9F481E4E82E81E0F82E10E000E0F7010C
:103E0000619171917F0186E298E00E94EA0A88231D
:103E100021F010935807009357070F5F1F4F0E3084
:103E2000110569F7D0925907109253071092520763
:103E30000E94CC0200914A0710914B0720914C0739
:103E400030914D07601B710B820B930B6B3071052A
:103E50008105910550F08091520790915307892B6D
:103E600021F010925307109252078091590788232E
:103E700009F43CC210925907809157079091580756
:103E8000009709F0C0C080915607813009F420C224
:103E90000E94DE0A672B682B692B09F4C3C08BE2F2
:103EA00093E00E943D0A1A8219821C821B821E82A4
:103EB0001D8260912C0870912D086115710541F0EB
:103EC0004091300850913108CE0101960E942F0B8D
:103ED0004D815E8169817A818AE697E00E94DF02E6
:103EE0004D815E8169817A818AE098E00E94DF02DB
:103EF0008F8198850E94082489819A810E940824D4
:103F000089EE92E00E943D0A0E94DE0ACB0194C035
:103F10000C968C39910509F06DCC10921E08109208
:103F20001D0899CC9E3040F42850310981E001C031
:103F3000880F2A95EAF7C3CC2E503109F7CF10919C
:103F400037071092370764CE112309F46FCE8091A2
:103F5000350781116BCED092350766CE0E94630281
:103F60008C01A9E0B0E0A30192010E94CB25012EB3
:103F7000000C220B330B600F711F821F931FA501D2
:103F800094010E945C2720933E0730933F074093A3
:103F900040075093410782CE64E070E080E090E0FB
:103FA000ADCE8B3309F0EBCE24E030E030935307F5
:103FB00020935207E4CE2330310509F00ACF8983DC
:103FC0001A8200913008109131080F5F1F4FB8011D
:103FD0008CE298E00E94070B882309F4FACE209126
:103FE0002C0830912D088091300890913108BE0145
:103FF0006F5F7F4F820F931F0E94722810933108CA
:1040000000933008E6CE81309105E9F082309105C9
:1040100009F078C180915607813009F459C10E9496
:10402000740B56C18EE193E00E943D0A89EE92E046
:104030000E943D0A90E080E00E94730C8AEE92E0BC
:104040000E943D0A45C180915607813009F440C164
:104050000E94CC0200914E0710914F07209150070B
:1040600030915107601B710B820B930B683E7340BC
:104070008105910508F42CC18FE393E00E943D0A6D
:104080008EE493E00E943D0A8EE00E9463020E944B
:1040900007098AEE92E00E943D0A83E593E00E94C0
:1040A0003D0A8FE00E9463020E9407098AEE92E0B7
:1040B0000E943D0A88E593E00E943D0A80E10E944B
:1040C00063020E9407098AEE92E00E943D0A8DE594
:1040D00093E00E943D0A81E10E9463020E94070969
:1040E0008AEE92E00E943D0A82E693E00E943D0A39
:1040F00082E10E9463020E9407098AEE92E00E9418
:104100003D0A87E693E00E943D0A83E10E94630234
:104110000E9407098AEE92E00E943D0A8CE793E034
:104120000E943D0A84E10E9463020E9407098AEE10
:1041300092E00E943D0A81E893E00E943D0A85E1F9
:104140000E9463020E9407098AEE92E00E943D0AE3
:1041500086E893E00E943D0A80E00E9405010E94EB
:1041600007098AEE92E00E943D0A8BE893E00E94E4
:104170003D0A81E00E9405010E9407098AEE92E053
:104180000E943D0A80E993E00E943D0A82E00E947D
:1041900005010E9407098AEE92E00E943D0A8FE91C
:1041A00093E00E943D0A83E00E9405010E940709F6
:1041B0008AEE92E00E943D0A84EA93E00E943D0A62
:1041C00084E00E9405010E9407098AEE92E00E94A5
:1041D0003D0A89EA93E00E943D0A85E00E940501BC
:1041E0000E9407098AEE92E00E943D0A8EEA93E05F
:1041F0000E943D0A86E00E9405010E9407098AEE9E
:1042000092E00E943D0A85EC93E00E943D0A87E01F
:104210000E9405010E9407098AEE92E00E943D0A71
:104220008AEC93E00E943D0A88E00E9405010E940A
:1042300007098AEE92E00E943D0A8FEC93E00E940B
:104240003D0A89E00E9405010E9407098AEE92E07A
:104250000E943D0A84ED93E00E943D0A8AE00E949C
:1042600005010E9407098AEE92E00E943D0A8AED4C
:1042700093E00E943D0A8BE00E9405010E9407091D
:104280008AEE92E00E943D0A80EE93E00E943D0A91
:104290008CE00E9405010E9407098AEE92E00E94CC
:1042A0003D0A86EE93E00E943D0A8DE00E940501E2
:1042B0000E9407098AEE92E00E943D0A0E94CC0209
:1042C00060934E0770934F07809350079093510768
:1042D000E0E3F0E0F0935807E09357078CE298E0B2
:1042E0000E945A0B10925307109252072114310466
:1042F00009F460CC0E944903882309F453CC0E943E
:10430000000050CC83309105C9F48091560781306C
:10431000F9F2109255070E94DE0A21E016161706E0
:10432000180619060CF020E0209354070E94DE0ABC
:10433000AB01BC018AE00E94860DCACF8430910592
:10434000B1F480915607813019F284E080935507CB
:10435000D09254076BEE72E08CE298E00E94EA0A79
:104360008823F9F040E050E0BA018BE0E4CF8B30D5
:10437000910549F580915607813009F4A9CF8FE066
:1043800080935507D09254076BEE72E08CE298E070
:104390000E94EA0A882379F140E050E0BA0185E101
:1043A000CACF0E94DE0ADC01CB0141E050E060E0B0
:1043B00070E0181619061A061B061CF040E050E0C3
:1043C000BA018CE0B8CF8530910539F1863091057E
:1043D00009F44CC08C30910509F465C08730910513
:1043E00009F47EC08830910509F095C040E050E0A6
:1043F000BA0188E2A0CF0E94DE0ADC01CB0141E0D5
:1044000050E060E070E0181619061A061B061CF052
:1044100040E050E0BA0186E18ECF809156078130AE
:1044200009F456CF8AE080935507D09254076BEE7B
:1044300072E08CE298E00E94EA0A882329F040E0CA
:1044400050E0BA018DE077CF0E94DE0ADC01CB019B
:1044500041E050E060E070E0181619061A061B06ED
:104460001CF040E050E0BA018EE065CF8091560725
:10447000813009F42DCF8BE080935507D0925407FB
:104480006BEE72E08CE298E00E94EA0A882329F041
:1044900040E050E0BA018FE04ECF0E94DE0AAB014F
:1044A000BC0180E148CF80915607813009F410CFDC
:1044B0002EE020935507D09254076BEE72E08CE209
:1044C00098E00E94EA0A882329F040E050E0BA010F
:1044D00087E131CF0E94DE0AAB01BC0188E12BCF1E
:1044E00080915607813009F4F3CE3DE030935507B3
:1044F0006BEE72E08CE298E00E94EA0A882329F0D1
:1045000040E050E0BA0181E116CF0E94DE0AAB0123
:10451000BC0182E110CF8930910571F4809156077A
:10452000813009F4D5CEC0925507D092540740E0AF
:1045300050E0BA0183E1FFCE8A30910509F445C00D
:104540000D9709F0C5CE80915607813009F4C0CE91
:104550008CEE93E00E943D0A8CEF93E00E943D0AAE
:104560008CE294E00E943D0A83E594E00E943D0ABB
:104570008FE694E00E943D0A87E894E00E943D0A9D
:1045800080EC94E00E943D0A8BEE94E00E943D0A8C
:104590008DE195E00E943D0A86E495E00E943D0A87
:1045A0008EE795E00E943D0A84EB95E00E943D0A6B
:1045B0008AED95E00E943D0A89EF95E00E943D0A50
:1045C0008CE196E00E943D0A39CD809156078130FA
:1045D00009F47ECE88E080935507D092540740E0DE
:1045E00050E0BA0184E1A7CE83E791E090930B08F5
:1045F00080930A08209116082631C0F4EDE6F0E019
:10460000283030F0EBE6F0E02E3010F0ECE6F0E091
:104610003081422F50E02830A8F481E090E001C0C2
:10462000880F2A95EAF78095832380838091260856
:10463000909127080E94082480912C0890912D08C1
:104640000C9408242E3048F44850510981E090E041
:1046500001C0880F4A95EAF7E6CF4E505109F6CFD0
:104660001F93FC0199278827BC01E894119110320F
:10467000E9F3193010F01E30C8F31B3251F01D322F
:1046800049F4689406C00E945723610F711D811D73
:10469000911D119110531A30B0F33EF4909580950E
:1046A000709561957F4F8F4F9F4F1F910895592FA0
:1046B000482F372F262F660F771F881F991F660FE9
:1046C000771F881F991F620F731F841F951F660F26
:1046D000771F881F991F08950F931F93CF93DF9320
:1046E0008230910510F482E090E0E0913F08F09173
:1046F000400830E020E0B0E0A0E0309799F42115C8
:10470000310509F44AC0281B390B24303105D8F58E
:104710008A819B816115710589F1FB0193838283F5
:10472000FE0111C040815181028113814817590750
:10473000E0F04817590799F4109761F012960C931E
:10474000129713961C933296CF01DF91CF911F9150
:104750000F91089500933F0810934008F4CF21155E
:10476000310551F04217530738F0A901DB019A01D6
:10477000BD01DF01F801C1CFEF01F9CF90934008EF
:1047800080933F08CDCFFE01E20FF31F81939193F9
:104790002250310939832883D7CF20913D083091A9
:1047A0003E08232B41F420912D0130912E013093AE
:1047B0003E0820933D0820912B0130912C012115BA
:1047C000310541F42DB73EB740912F015091300192
:1047D000241B350BE0913D08F0913E08E217F307EA
:1047E000A0F42E1B3F0B2817390778F0AC014E5F61
:1047F0005F4F2417350748F04E0F5F1F50933E0858
:1048000040933D08819391939FCFF0E0E0E09CCFEF
:10481000CF93DF930097E9F0FC0132971382128265
:10482000A0913F08B0914008ED0130E020E01097E2
:10483000A1F420813181820F931F20913D08309196
:104840003E082817390709F061C0F0933E08E0934D
:104850003D08DF91CF910895EA01CE17DF07E8F513
:104860004A815B819E0141155105B1F7E901FB8346
:10487000EA8349915991C40FD51FEC17FD0761F4E4
:10488000808191810296840F951FE9019983888325
:10489000828193819B838A83F0E0E0E012968D9180
:1048A0009C9113970097B9F52D913C911197CD01EB
:1048B0000296820F931F20913D0830913E082817E1
:1048C000390739F6309751F51092400810923F0899
:1048D000B0933E08A0933D08BCCFD383C2834081F0
:1048E0005181840F951FC817D90761F44E5F5F4F40
:1048F00088819981480F591F518340838A819B8108
:10490000938382832115310509F0B0CFF0934008DD
:10491000E0933F089ECFFD01DC01C0CF13821282DD
:10492000D7CF0E94D32408F481E00895E89409C009
:1049300097FB3EF490958095709561957F4F8F4FD2
:104940009F4F9923A9F0F92F96E9BB279395F695E8
:10495000879577956795B795F111F8CFFAF4BB0F66
:1049600011F460FF1BC06F5F7F4F8F4F9F4F16C0CA
:10497000882311F096E911C0772321F09EE8872F54
:10498000762F05C0662371F096E8862F70E060E010
:104990002AF09A95660F771F881FDAF7880F969589
:1049A000879597F90895990F0008550FAA0BE0E82D
:1049B000FEEF16161706E807F907C0F012161306E1
:1049C000E407F50798F0621B730B840B950B39F421
:1049D0000A2661F0232B242B252B21F408950A2687
:1049E00009F4A140A6958FEF811D811D08950E94B5
:1049F0000A250C947B250E946D2538F00E947425B1
:104A000020F0952311F00C9464250C946A25112450
:104A10000C94AF250E948C2570F3959FC1F3950FE0
:104A200050E0551F629FF001729FBB27F00DB11D32
:104A3000639FAA27F00DB11DAA1F649F6627B00DC2
:104A4000A11D661F829F2227B00DA11D621F739FAB
:104A5000B00DA11D621F839FA00D611D221F749FB9
:104A60003327A00D611D231F849F600D211D822F00
:104A7000762F6A2F11249F5750409AF0F1F0882327
:104A80004AF0EE0FFF1FBB1F661F771F881F915054
:104A90005040A9F79E3F510580F00C9464250C947A
:104AA000AF255F3FE4F3983ED4F3869577956795FD
:104AB000B795F795E7959F5FC1F7FE2B880F911D7E
:104AC0009695879597F9089597F99F6780E870E024
:104AD00060E008959FEF80EC089500240A94161674
:104AE000170618060906089500240A9412161306DC
:104AF000140605060895092E0394000C11F488236A
:104B000052F0BB0F40F4BF2B11F460FF04C06F5F85
:104B10007F4F8F4F9F4F089557FD9058440F551F5B
:104B200059F05F3F71F04795880F97FB991F61F02F
:104B30009F3F79F087950895121613061406551FA6
:104B4000F2CF4695F1DF08C0161617061806991F12
:104B5000F1CF86957105610508940895E894BB2707
:104B600066277727CB0197F90895F999FECF92BD73
:104B700081BDF89A992780B50895262FF999FECF1F
:104B80001FBA92BD81BD20BD0FB6F894FA9AF99A6A
:104B90000FBE019608950E940D26A59F900DB49F0B
:104BA000900DA49F800D911D112408952F923F9286
:104BB0004F925F926F927F928F929F92AF92BF922D
:104BC000CF92DF92EF92FF920F931F93CF93DF93D9
:104BD000CDB7DEB7CA1BDB0B0FB6F894DEBF0FBE36
:104BE000CDBF09942A88398848885F846E847D8483
:104BF0008C849B84AA84B984C884DF80EE80FD8085
:104C00000C811B81AA81B981CE0FD11D0FB6F894FA
:104C1000DEBF0FBECDBFED010895A29FB001B39FCF
:104C2000C001A39F700D811D1124911DB29F700DB5
:104C3000811D1124911D08955058BB27AA270E9459
:104C400034260C947B250E946D2538F00E94742533
:104C500020F039F49F3F19F426F40C946A250EF4E1
:104C6000E095E7FB0C946425E92F0E948C2558F30E
:104C7000BA17620773078407950720F079F4A6F541
:104C80000C94AE250EF4E0950B2EBA2FA02D0B013F
:104C9000B90190010C01CA01A0011124FF27591B81
:104CA00099F0593F50F4503E68F11A16F040A22F87
:104CB000232F342F4427585FF3CF469537952795F8
:104CC000A795F0405395C9F77EF41F16BA0B620BF7
:104CD000730B840BBAF09150A1F0FF0FBB1F661F3E
:104CE000771F881FC2F70EC0BA0F621F731F841F81
:104CF00048F4879577956795B795F7959E3F08F0A7
:104D0000B0CF9395880F08F09927EE0F9795879568
:104D100008950E949D260C947B250E94742558F0CE
:104D20000E946D2540F029F45F3F29F00C94642522
:104D300051110C94AF250C946A250E948C2568F3C0
:104D40009923B1F3552391F3951B550BBB27AA2744
:104D500062177307840738F09F5F5F4F220F331F7E
:104D6000441FAA1FA9F335D00E2E3AF0E0E832D046
:104D700091505040E695001CCAF72BD0FE2F29D049
:104D8000660F771F881FBB1F261737074807AB071B
:104D9000B0E809F0BB0B802DBF01FF2793585F4F90
:104DA0003AF09E3F510578F00C9464250C94AF25A1
:104DB0005F3FE4F3983ED4F3869577956795B79572
:104DC000F7959F5FC9F7880F911D9695879597F97D
:104DD0000895E1E0660F771F881FBB1F62177307F6
:104DE0008407BA0720F0621B730B840BBA0BEE1F0B
:104DF00088F7E09508950E94942588F09F5798F0D1
:104E0000B92F9927B751B0F0E1F0660F771F881FCF
:104E1000991F1AF0BA95C9F714C0B13091F00E94E9
:104E2000AE25B1E008950C94AE25672F782F882722
:104E3000B85F39F0B93FCCF3869577956795B39510
:104E4000D9F73EF490958095709561957F4F8F4F7F
:104E50009F4F08950E94D32408F48FEF08950E9475
:104E6000D324880B990B0895AA1BBB1B51E107C0E3
:104E7000AA1FBB1FA617B70710F0A61BB70B881FEA
:104E8000991F5A95A9F780959095BC01CD01089579
:104E900097FB072E16F4009407D077FD09D00E94E7
:104EA000342707FC05D03EF4909581959F4F0895D7
:104EB000709561957F4F0895A1E21A2EAA1BBB1B26
:104EC000FD010DC0AA1FBB1FEE1FFF1FA217B307D6
:104ED000E407F50720F0A21BB30BE40BF50B661FEC
:104EE000771F881F991F1A9469F7609570958095B0
:104EF00090959B01AC01BD01CF010895052E97FB54
:104F00001EF400940E94952757FD07D00E945C274D
:104F100007FC03D04EF40C9495275095409530959E
:104F200021953F4F4F4F5F4F089590958095709515
:104F300061957F4F8F4F9F4F0895EE0FFF1F059094
:104F4000F491E02D0994B0E0A0E0E9EAF7E20C94D6
:104F5000D8258C01009751F4CB010E946C238C0161
:104F6000C801CDB7DEB7E0E10C94F425FC01E60FF3
:104F7000F71F9C0122503109E217F30708F49DC086
:104F8000D901CD91DC911197C617D70798F0C5309C
:104F9000D10530F3CE0104978617970708F3C61B97
:104FA000D70B2297C193D1936D937C93CF010E942D
:104FB0000824D6CF5B01AC1ABD0A4C018C0E9D1E95
:104FC000A0913F08B0914008512C412CF12CE12CCC
:104FD000109731F580913D0890913E08881599050C
:104FE00009F05CC04616570608F058C080912B01A6
:104FF00090912C01009741F48DB79EB740912F01FD
:1050000050913001841B950BE817F90708F055C043
:10501000F0933E08E0933D08F90171836083A0CFCF
:105020008D919C91119712966C90129713967C908B
:105030001397A815B90559F56C0142E0C40ED11CAF
:10504000CA14DB0420F1AC014A195B09DA0112969B
:10505000159780F06282738251834083D9016D93EA
:105060007C93E114F10471F0D7011396FC93EE9355
:10507000129776CF22968C0F9D1FF9019183808322
:10508000F301EFCFF0934008E0933F0869CF481653
:10509000590608F42C017D01D3019ACFCB010E945F
:1050A0006C237C01009749F0AE01B8010E94602892
:1050B000C8010E940824870153CF10E000E050CFC0
:1050C000FB01DC0102C001900D9241505040D8F725
:1050D0000895FB01DC018D91019080190110D9F335
:1050E000990B0895FB01DC0101900D920020E1F77E
:1050F000089510E0C1EBD0E004C0FE010E949D279E
:0C5100002196C23BD107C9F7F894FFCFFD
:10510C000F2701000100FF314E6F646500324E6FB6
:10511C00646500334E6F646500344E6F6465003512
:10512C004E6F646500364E6F646500000041088068
:10513C00003F065B4F666D7D077F6F777C395E792C
:10514C007130063B0645064F065406820459065E2E
:10515C000664066B06700675067A06830600000068
:10516C00007F03DF020C03CC033D031B032F030062
:10517C000000000608DF026104120421043904F85F
:10518C00036E616E00696E66006F76660030002EED
:10519C000053454E534F525F4D4F44453A200053F8
:1051AC00454E534F525F4D415F56414C5545535FF1
:1051BC004E554D3A200053617665640A000A722000
:1051CC0000207374617274656400526573756C743D
:1051DC007320636C6561726564000A534156455FC8
:1051EC00524553554C54533A20000A53657420537E
:1051FC004156455F524553554C54533A2000526525
:10520C006369657665642074657374696E673A00CA
:10521C000A42617465727920766F6C746167653AC5
:10522C00000A4D4F44453A200020284C4150532948
:10523C000020284C494E4529000A536574204D4FD7
:10524C0044453A20000A4C4150535F4E554D42455F
:10525C00523A20000A536574204C4150535F4E550E
:10526C004D4245523A20000A53454E534F525F541B
:10527C005255455F4C4556454C3A20000A536574CF
:10528C002053454E534F525F545255455F4C455633
:10529C00454C3A20000A53454E534F525F54494DEA
:1052AC00454F55543A20000A5365742053454E53CC
:1052BC004F525F54494D454F55543A20000A4D55B5
:1052CC0054453A20000A536574204D5554453A20F4
:1052DC000043616E63656C20726163653A20000A5D
:1052EC00526573756C743A20000A0A000A4C61709E
:1052FC0020000A526573756C743A00536574207201
:10530C00616365723A20000A203D3D3D3D205443C7
:10531C00205374617274203D3D3D3D200A000A52B9
:10532C006573756C747320616C6C000A52657375CF
:10533C006C747320666F7220726163657220000A50
:10534C00496E7075742076616C7565730A00413016
:10535C003A200041313A200041323A200041333AA0
:10536C00200041343A2000413520286C617365726D
:10537C005F73656E7350494E293A200041363A20CE
:10538C000041373A200044303A200044313A2000A2
:10539C004432202873656E7350494E293A200044DC
:1053AC00333A200044343A200044353A2000443645
:1053BC0020286C6173657250494E204F4E2F4F461A
:1053CC0046293A200044373A200044383A20004419
:1053DC00393A20004431303A20004431313A20002F
:1053EC004431323A20004431333A20000A54657873
:1053FC007420436F6D6D616E64733A000A67657457
:10540C00726573756C7473203C696E743E3A2072CD
:10541C00657475726E7320726573756C7420666F2B
:10542C00722072616365722F616C6C000A6765741F
:10543C00696E70757473203A2072657475726E7330
:10544C0020616C6C20696E707574732076616C755C
:10545C006573000A676574636F6E666967203A202E
:10546C0072657475726E7320636F6E666967000A7D
:10547C0072616365203A20676F20746F20726163DC
:10548C0065206D6F6465000A73617665203C696EFA
:10549C007420312F303E3A206765742F7365742069
:1054AC00736176696E6720726573756C74732074A2
:1054BC006F206D656D6F7279206F7074696F6E00FF
:1054CC000A6D6F6465203C696E7420312F303E3A52
:1054DC00206765742F736574204C696E65206F723C
:1054EC00204C617073206D6F6465000A6C61707381
:1054FC00203C696E743E3A206765742F7365742086
:10550C006C617073206E756D6265722028666F72A7
:10551C00204C617073206D6F64652920000A6C65E6
:10552C0076656C203C696E743E3A206765742F7307
:10553C0065742073656E736F722054525545206CE0
:10554C006576656C20000A7374696D656F757420DF
:10555C003C696E743E3A206765742F7365742073D2
:10556C00656E736F722074696D656F757420696EEA
:10557C00206D696C6C697365636F6E6473000A638C
:10558C00616E63656C203A2063616E63656C20729A
:10559C0061636520666F7220637572657420726139
:1055AC006365722028696620697420737461727453
:1055BC00656429000A7363616C203A20676F20745C
:1055CC006F2073656E736F722063616C69627261B8
:1055DC0074696F6E206D6F6465000A62617472206D
:1055EC003A2072657475726E73206261746572799B
:1055FC0020766F6C74616765000A6D757465203C6C
:10560C00696E743E3A206765742F736574206D75EE
:10561C0074696E6720736F756E6473000A68656CCD
:10562C0070203A207072696E7420746869735E0021
:10563C00676574726573756C747300676574696EF5
:10564C007075747300676574636F6E66696700725A
:10565C006163650073617665006C617073006C65E5
:10566C0076656C0063616E63656C007363616C00DE
:10567C0062617472006D757465007374696D656F29
:08568C0075740068656C700084
:00000001FF
