:100000000C94B2000C94DA000C94DA000C94011AEF
:100010000C94A71A0C94831A0C94DA000C942719E8
:100020000C94DA000C94DA000C94DA000C94DA00E8
:100030000C94DA000C94DA000C94DA000C94DA00D8
:100040000C94DD180C94DA000C94CF190C94A919B7
:100050000C94DA000C94DA000C94DA000C94DA00B8
:100060000C94DA000C94DA0000C2010001001100C7
:1000700011000C0000E100000A002500250021000D
:10008000009600001900390039003600127A00008D
:100090001F004600460044008070000022004D0012
:1000A0004D004A00004B00003600750075007200DC
:1000B000403800004A009C009C0099008025000008
:1000C0007200EC00EC00E900C0120000E900DA0167
:1000D000DA01D70160090000D701B603B603B30304
:1000E000B0040000B3036E076E076B0758020000F0
:1000F0006E07DC0EDC0ED80E2C010000DC0EC11DDC
:10010000C11DBE1D0200000000240027002A0000BF
:1001100000000800020100000304070000000000C6
:10012000000000000000002300260029000000005D
:1001300000250028002B0004040404040404040225
:100140000202020202030303030303010204081074
:100150002040800102040810200102040810200041
:10016000E31A792311241FBECFEFD8E0DEBFCDBF45
:1001700016E0A0E0B1E0E6E1F2E502C005900D92E4
:10018000AA37B107D9F728E0AAE7B6E001C01D9267
:10019000A333B207E1F710E0C1EBD0E004C0219730
:1001A000FE010E942228C03BD107C9F70E94E51B2F
:1001B0000C94FE280C940000833081F028F48130E8
:1001C00099F08230A9F008958730A9F08830C9F0FD
:1001D0008430B1F4809180008F7D03C080918000D5
:1001E0008F7780938000089584B58F7784BD0895BC
:1001F00084B58F7DFBCF8091B0008F778093B00066
:1002000008958091B0008F7DF9CFCF93DF93282F91
:1002100030E0F901E15FFE4F8491F901E55BFE4FAB
:10022000D491F901E95CFE4FC491CC23A1F0811176
:100230000E94DC00EC2FF0E0EE0FFF1FED5DFE4FA3
:10024000A591B491EC91ED2381E090E009F480E078
:10025000DF91CF91089580E090E0FACF1F93CF9384
:10026000DF93282F30E0F901E15FFE4F8491F9011F
:10027000E55BFE4FD491F901E95CFE4FC491CC23BC
:10028000A9F0162F81110E94DC00EC2FF0E0EE0F98
:10029000FF1FE35DFE4FA591B4918FB7F894EC91E9
:1002A000111108C0D095DE23DC938FBFDF91CF9171
:1002B0001F910895DE2BF8CF9CB59F7D9CBD9CB50A
:1002C000937F9CBD9CB59C7F9CBD9DB591609DBD61
:1002D000682F809125080C942E01CF93DF9390E036
:1002E000FC01E55BFE4F2491895C9E4FFC018491EB
:1002F0008823C9F090E0880F991FFC01EB5FFE4F47
:10030000A591B491FC01E35DFE4FC591D4916111BB
:100310000DC09FB7F8948C91209582238C9388818F
:10032000282328839FBFDF91CF910895623051F435
:100330009FB7F8943C91822F809583238C93E8811A
:100340002E2BEFCF8FB7F894EC912E2B2C938FBFE1
:10035000EACF0F931F93CF93DF9309EF17E061E08C
:10036000F80181810E946D01C3ECD0E0CE010197BC
:10037000F1F760E0F80180810E946D01CE010197E4
:10038000F1F760E0F80181810E946D012197F1F79A
:10039000DF91CF911F910F910895EF92FF920F93EC
:1003A0001F93CF93DF93082F18E0C3ECD0E061E0F8
:1003B0008091F9070E946D01CE010197F1F7E02EBF
:1003C000F12C60E000FF61E08091FA070E946D016E
:1003D000CE010197F1F760E08091F9070E946D016D
:1003E000CE010197F1F7F594E7940E2D1150F9F62F
:1003F00061E08091F9070E946D0160E08091FA0749
:100400000E946D01CE010197F1F760E08091F9073C
:100410000E946D012197F1F78091FA070E94050172
:10042000182F811105C061E08091FA070E946D01CB
:10043000C3ECD0E0CE010197F1F761E08091F907BC
:100440000E946D012197F1F781E0111101C080E058
:10045000DF91CF911F910F91FF90EF90089561E090
:100460008091FA070E946D0183EC90E00197F1F70B
:1004700008950F931F93CF93DF938C010E942F0257
:1004800080E40E94CD010E94A9010E942F0280EC0D
:100490000E94CD01E8010C5F1F4F89910E94CD01A0
:1004A000C017D107D1F70E94A9010E942F028091A5
:1004B000FB078F7080580E94CD01DF91CF911F9173
:1004C0000F910C94A9018E50806480937C008091E0
:1004D0007A00806480937A0080917A0086FDFCCF58
:1004E000809178009091790008953FB7F8948091B9
:1004F000580790915907A0915A07B0915B0726B50C
:10050000A89B05C02F3F19F00196A11DB11D3FBF4B
:10051000BA2FA92F982F8827BC01CD01620F711D1A
:10052000811D911D42E0660F771F881F991F4A9514
:10053000D1F708958F929F92AF92BF92CF92DF92A0
:10054000EF92FF924B015C010E9475026B017C01EE
:100550000E9475026C197D098E099F09683E7340DF
:1005600081059105A8F321E0821A9108A108B1083C
:1005700088EEC80E83E0D81EE11CF11C81149104A2
:10058000A104B10429F7FF90EF90DF90CF90BF90C6
:10059000AF909F908F9008952FB7F8946091540773
:1005A0007091550780915607909157072FBF089576
:1005B000DC01ED91FC910190F081E02D0994AF9266
:1005C000BF92CF92DF92EF92FF920F931F93CF9340
:1005D000DF936C017B018B01040F151FEB015E01A2
:1005E000AE18BF08C017D10759F06991D601ED9137
:1005F000FC910190F081E02DC6010995892B79F7D6
:10060000C501DF91CF911F910F91FF90EF90DF9087
:10061000CF90BF90AF900895FC01538D448D252F4E
:1006200030E0842F90E0821B930B541710F0CF968C
:10063000089501970895FC01918D828D981761F0BE
:10064000A28DAE0FBF2FB11D5D968C91928D9F5FD5
:100650009F73928F90E008958FEF9FEF0895FC01B4
:10066000918D828D981731F0828DE80FF11D858D67
:1006700090E008958FEF9FEF0895FC01918D228DFA
:10068000892F90E0805C9F4F821B91098F7399277F
:1006900008958CE597E00E943D0321E0892B09F441
:1006A00020E0822F089580E090E0892B29F00E94BD
:1006B000490381110C9400000895FC01A48DA80F3A
:1006C000B92FB11DA35ABF4F2C91848D90E0019694
:1006D0008F739927848FA689B7892C93A089B189B4
:1006E0008C91837080648C93938D848D981306C055
:1006F0000288F389E02D80818F7D80830895EF92B9
:10070000FF920F931F93CF93DF93EC0181E0888FCB
:100710009B8D8C8D98131AC0E889F989808185FF9B
:1007200015C09FB7F894EE89FF896083E889F9893D
:1007300080818370806480839FBF81E090E0DF913F
:10074000CF911F910F91FF90EF900895F62E0B8D92
:1007500010E00F5F1F4F0F731127E02E8C8D8E114D
:100760000CC00FB607FCFACFE889F989808185FFB4
:10077000F5CFCE010E945D03F1CFEB8DEC0FFD2F85
:10078000F11DE35AFF4FF0829FB7F8940B8FEA896F
:10079000FB8980818062CFCFCF93DF93EC01888D7E
:1007A0008823B9F0AA89BB89E889F9898C9185FDEC
:1007B00003C0808186FD0DC00FB607FCF7CF8C917A
:1007C00085FFF2CF808185FFEDCFCE010E945D03D2
:1007D000E9CFDF91CF910895DC015196ED91FC9125
:1007E0005297908150968C918095892380830895AB
:1007F00020912307309124072817390781F490911D
:10080000210780912207981751F0E0912107F0E02D
:10081000EF51F94F8081082E000C990B08958FEF4E
:100820009FEF089520912307309124072817390757
:1008300039F48FB7F89410922207109221078FBFD6
:10084000089520912307309124072817390771F460
:10085000809122072091210790E0805C9F4F821BAE
:10086000910960E470E00E94CD27089590E080E057
:100870000895209123073091240728173907B9F4E8
:100880009091210780912207981789F0E091210724
:10089000F0E0EF51F94F80812091210730E02F5F88
:1008A0003F4F2F7333272093210790E008958FEF58
:1008B0009FEF089520E001972FEF8F3F9207D9F720
:1008C000089590E080E008958EBD00000DB407FE0D
:1008D000FDCF8EB50895CF93DF93C82FD62F80E03C
:1008E0000E945C018C2F80620E946404C82F8D2FAF
:1008F0000E94640481E00E945C018C2FDF91CF9103
:100900000895CF93C82F80E00E945C018C2F0E9435
:1009100064048FEF0E946404C82F81E00E945C0190
:100920008C2FCF91089580E00E94810481FD0EC03C
:1009300080E00E948104682F626080E00E946B0466
:1009400065E070E080E090E00C949A0208950F93C7
:100950001F93CF938C0186E00E948104C82FC77D2E
:100960000230110509F4C0626C2F86E00E946B040E
:1009700086E00E94810491E0C81390E0892FCF9116
:100980001F910F91089560E0809124080E942E012C
:1009900080E00E948104682F6D7F80E00C946B04DE
:1009A000CF93C82F80E00E945C018C2F0E946404CA
:1009B000C82F81E00E945C018C2FCF9108950F9386
:1009C0001F93CF93DF93D82FC62F80E00E945C0146
:1009D0008D2F80620E946404D82F07E011E0C1507F
:1009E00030F0F80181918F010E946404F8CF81E01A
:1009F0000E945C018D2FDF91CF911F910F9108957F
:100A00004F925F926F927F92AF92BF92CF92DF929E
:100A1000EF92FF920F931F93CF932091E006211145
:100A200009C05B018C0180910601813189F08F3F03
:100A300009F46AC0CF911F910F91FF90EF90DF9062
:100A4000CF90BF90AF907F906F905F904F90089540
:100A5000E4E0F1E0C491C7FDEDCF61E081E10E94E7
:100A60006D01CC2319F0C23009F04AC12801712C64
:100A7000612C60E472E48FE090E0A30198010E9491
:100A8000032869017A0181E0C81AD108E108F10858
:100A9000C23009F0A8C09FEFC916D104E104F104E7
:100AA00009F00CF469C160E970ED83E090E0A30106
:100AB00098010E94032869017A0181E0C81AD108CF
:100AC000E108F10883E09FEFC916D104E104F104C5
:100AD00009F00CF40EC168E478EE81E090E0A30127
:100AE00098010E94032869017A0191E0C91AD1088E
:100AF000E108F1088FEFC816D104E104F10411F008
:100B00000CF0CBC084E0F5C081E180930601E4E005
:100B1000F1E0C491CF3F09F48DCFC13021F150F005
:100B2000C23009F43EC0C7FD85CF61E081E10E947B
:100B30006D0199CF14BC15BC84B5826084BD85B5A8
:100B4000816085BDE8E4F1E0E491F0E0EE0FFF1F85
:100B5000E35DFE4F85919491ECE5F1E0E491E09343
:100B6000D706C0E07ACF1092800010928100809169
:100B700081008860809381008091810081608093F2
:100B80008100E8E4F1E0E491F0E0EE0FFF1FE35DA7
:100B9000FE4F85919491ECE5F1E0E491E093D60667
:100BA0005CCF1092B0001092B1008091B0008260D2
:100BB0008093B0008091B10081608093B100E8E43F
:100BC000F1E0E491F0E0EE0FFF1FE35DFE4F859151
:100BD000949190934D0780934C07ECE5F1E0E491FC
:100BE000E0934E073ACF8FEFC816D104E104F10429
:100BF00009F00CF47AC068E478EE81E090E0A3019B
:100C000098010E94032869017A0191E0C91AD1086C
:100C1000E108F10884E0C11150C083E09FEFC916DC
:100C2000D104E104F10489F084F062E17AE780E024
:100C300090E0A30192010E94032869017A0191E0EA
:100C4000C91AD108E108F10884E095B5987F892B8D
:100C500085BDC0E09801220F331FD5010E94922666
:100C600028EE33E040E050E00E94E127C13009F473
:100C700061C0C23009F470C0C111DCCEC7BC209382
:100C8000DC063093DD064093DE065093DF0680914C
:100C90006E00826080936E00CDCE64E274EF80E0DF
:100CA00090E0A30192010E94032869017A0181E08A
:100CB000C81AD108E108F10885E09FEFC916D104F0
:100CC000E104F10499F090F062E17AE780E090E0CD
:100CD000A30192010E94032869017A0181E0C81AE8
:100CE000D108E108F10886E004C082E0CC2309F4D1
:100CF000ACCF9091B100987F892B8093B100AACF9F
:100D0000980150E040E060E072E18AE790E00E94E4
:100D1000032869017A0181E0C81AD108E108F108C5
:100D2000C13009F097CF80918100887F81608093E6
:100D3000810090CFD0928900C09288002093D8067D
:100D40003093D9064093DA065093DB0680916F000A
:100D5000826080936F006ECEC092B30020934F07E5
:100D60003093500740935107509352078091700081
:100D70008260809370005ECE82E0BBCFCF93DF9322
:100D800000D000D0CDB7DEB789836A834B832C8334
:100D9000CE0101960E9439020F900F900F900F9094
:100DA000DF91CF9108952F923F924F925F926F9271
:100DB0007F928F929F92AF92BF92CF92DF92EF92EB
:100DC000FF920F931F93CF93DF93CDB7DEB7289792
:100DD0000FB6F894DEBF0FBECDBF4B015C0128EE0D
:100DE00033E040E050E00E94E1272D833E834F83B3
:100DF000588710E1811617E29106A104B10408F0AA
:100E000071C0CD80DE80C501B40124E630E040E051
:100E100050E00E94E12729012AE02C9DC0012D9D70
:100E2000900D11247201E81AF90AC501B4012AE0F3
:100E300030E040E050E00E94E127E6EF1E2FB201D3
:100E400016031001179F300C1124220E331E1203BB
:100E5000C001139F900D11249C01280D391DEC2D0C
:100E6000EF70F0E0EF5CFE4F80818983EE2DEF7034
:100E7000F0E0EF5CFE4F8081022D0F70E02FF0E07C
:100E8000EF5CFE4F90819B832F70E22FF0E0EF5CD0
:100E9000FE4F90819C8320E1821627E29206A104F6
:100EA000B10408F080C08F778A83CE0101960E943A
:100EB000390228960FB6F894DEBF0FBECDBFDF9182
:100EC000CF911F910F91FF90EF90DF90CF90BF9047
:100ED000AF909F908F907F906F905F904F903F90DA
:100EE0002F900895D501C40180519742A109B109FD
:100EF0008035934CA105B105C8F5C501B40120E1C9
:100F000037E240E050E00E94E127690166EF6203AA
:100F10007001639FF00C11248D819E81E80EF91EF3
:100F2000C501B40124E630E040E050E00E94E12732
:100F3000290146EF2D813E8142038001439F100D20
:100F400011241801240C351CC501B4012AE030E03D
:100F500040E050E00E94E12716EFB2011603C00105
:100F6000179F900D1124280F391F79CF2D813E81B5
:100F7000C90168E572E00E94B9276B01C9016CE301
:100F800070E00E94B9274AE04C9D90014D9D300DC4
:100F900011247B01E21AF30A6AE070E00E94B9278B
:100FA0001B019C015CCF80687FCFCF93DF9300D083
:100FB00000D0CDB7DEB7E82F392F68EE73E00E947E
:100FC000B927F62F8E2F932F60E177E20E94B92781
:100FD00026EFAF2F269FA00D1124AF70B0E0AF5CBD
:100FE000BE4F8C9189838E2F932F64E670E00E9410
:100FF000B927462FA62F2F9FA00D1124AF70B0E068
:10100000AF5CBE4F8C918A838E2F932F6AE070E085
:101010000E94B927A62F249FA00D1124AF70B0E025
:10102000AF5CBE4F8C918B83269FE00D1124EF7037
:10103000F0E0EF5CFE4F80818C83CE0101960E9430
:1010400039020F900F900F900F90DF91CF9108957C
:10105000CF93DF9300D000D0CDB7DEB7E82F392F84
:1010600081E389838E2F64E670E00E94B927462FC2
:101070008E2F932F68EE73E00E94B92726EFA42FDE
:10108000269FA00D1124AF70B0E0AF5CBE4F8C91D5
:101090008A838E2F932F6AE070E00E94B927A62FD3
:1010A000249FA00D1124AF70B0E0AF5CBE4F8C91B7
:1010B0008B83269FE00D1124EF70F0E0EF5CFE4F74
:1010C00080818C83CE0101960E9439020F900F908F
:1010D0000F900F90DF91CF910895DF92EF92FF92E2
:1010E0000F931F93CF93DF93EC01898D9A8D892BFA
:1010F00071F481E090E09B838A8390E080E0DF914F
:10110000CF911F910F91FF90EF90DF900895162FD0
:10111000DFB6F8948B8D81FD29C0CE010E94EC03CF
:10112000898D9A8D05960E945A048B8D98E0E92E40
:10113000F12C01E081FF28C0812F8023F1F0CE0146
:101140000E94EC03898D9A8D0E945A04000F81E061
:10115000E81AF10889F7CE010E94EC03DFBE898D01
:101160009A8D0E945A0481E090E0C9CFE989FA89FA
:1011700080819889892B8083D3CFE989FA898081FE
:101180009889892B8083DECF812F8023B1F0E98974
:10119000FA8980819889892B8083898D9A8D0E9414
:1011A0005A04000F81E0E81AF10871F7E989FA8919
:1011B00080819889892B8083D1CFCE010E94EC0356
:1011C000ECCFFB0101900020E9F73197AF01461BFE
:1011D000570BDC01ED91FC910280F381E02D099425
:1011E0008F929F92AF92BF92EF92FF920F931F93B5
:1011F000CF93DF93CDB7DEB7A1970FB6F894DEBFDC
:101200000FBECDBF7C01FA01CB0119A2223008F438
:101210002AE08E010F5D1F4F822E912CB12CA12C44
:10122000BF01A50194010E94E127F901CA016A30BA
:101230000CF5605DD8016E938D01232B242B252B9B
:1012400079F790E080E0109721F0BD01C7010E947E
:10125000E108A1960FB6F894DEBF0FBECDBFDF91B7
:10126000CF911F910F91FF90EF90BF90AF909F9003
:101270008F900895695CDECFCF92DF92EF92FF925C
:101280000F931F93CF93DF9377FF1DC06A017B01FC
:10129000EC016DE20E94D8028C0144275527BA0167
:1012A0004C195D096E097F092AE0CE010E94F00801
:1012B000800F911FDF91CF911F910F91FF90EF90C1
:1012C000DF90CF9008952AE0DF91CF911F910F9189
:1012D000FF90EF90DF90CF900C94F008CF92DF92C8
:1012E000EF92FF926C01990FEE08FF08B701A6017B
:1012F0008CE597E00E943C09B701A6018CEF97E0CE
:10130000FF90EF90DF90CF900C943C09CF92DF924A
:10131000EF92FF92C82ED12CF12CE12CB701A6013F
:101320008CE597E00E943C09B701A6018CEF97E09D
:101330000E943C09FF90EF90DF90CF900895CF92EC
:10134000DF92EF92FF92C82ED12CF12CE12C2AE0F3
:10135000B701A6018CE597E00E94F0082AE0B701EA
:10136000A6018CEF97E00E94F008FF90EF90DF90CD
:10137000CF900895CF92DF92EF92FF926C01F12C03
:10138000E12C2AE0B701AC018CE597E00E94F0085F
:101390002AE0B701A6018CEF97E0FF90EF90DF9075
:1013A000CF900C94F0084F925F926F927F928F9241
:1013B0009F92AF92BF92CF92DF92EF92FF921F93D4
:1013C000CF93DF93EC016A017B01AB019601CB0166
:1013D000B6010E94B42767E871E0811126C046017A
:1013E0005701E894B7F82FEF3FEF4FE75FE7C501EC
:1013F000B4010E94B42781110CC02FEF3FEF4FE7DB
:101400005FE7C501B4010E9416256BE871E018166C
:1014100064F02FEF3FEF4FE75FE4C701B6010E9492
:10142000AF271816A4F46FE871E0CE01DF91CF91D9
:101430001F91FF90EF90DF90CF90BF90AF909F9063
:101440008F907F906F905F904F900C94E1082FEFFA
:101450003FEF4FE75FECC701B6010E94162587FDFD
:10146000E2CF20E030E0A901C701B6010E941625B5
:10147000B12CA12C87FF09C06DE2CE010E94D802D9
:101480005C01F7FAF094F7F8F0942EE632E143E0CD
:101490005AE3C701B6010E94A2262B013C010E941B
:1014A00080276B017C010E941B259B01AC01C301BD
:1014B000B2010E94A1262B013C012AE0B701A6013E
:1014C000CE010E94F0087C01EA0CFB1C6EE2CE010A
:1014D0000E94D802E80EF91E14E0115021F120E01C
:1014E00030E040E251E4C301B2010E947C252B01AF
:1014F0003C010E9480274B01B12CA12C2AE0B501B0
:10150000A401CE010E94F008E80EF91EC501B40145
:101510000E941B259B01AC01C301B2010E94A126C0
:101520002B013C01DACFC701DF91CF911F91FF90D2
:10153000EF90DF90CF90BF90AF909F908F907F9073
:101540006F905F904F900895CF93DF93EC01BC01B3
:101550008CE597E00E94E108BE018CEF97E0DF91F7
:10156000CF910C94E1082F923F924F925F926F922D
:101570007F928F929F92AF92BF92CF92DF92EF9223
:10158000FF920F931F93CF934B015C0128EE33E042
:1015900040E050E00E94E1272901C501B40120E6A6
:1015A0003AEE40E050E00E94E127690128EE33E086
:1015B000249DC001259D900D349D900D1124840122
:1015C000081B190BCCE3CC9DC001CD9D900D1124BF
:1015D0001201281A390AC501B40120E83EEE46E39B
:1015E00050E00E94E127C29FC001C39F900D1124CB
:1015F000C81AD90A8AE0C816D10408F440C08AEE95
:1016000092E00E94A40AC6010E94BA098EE192E00B
:101610000E94A40A8AE028163104A0F18AEE92E022
:101620000E94A40AC1010E94BA0985E991E00E94C2
:10163000A40A8AEE92E00A30110510F483E991E0E1
:101640000E94A40A8AEE92E00436110510F483E9A0
:1016500091E00E94A40AC801CF911F910F91FF90C1
:10166000EF90DF90CF90BF90AF909F908F907F9042
:101670006F905F904F903F902F900C94BA0983E940
:1016800091E0BFCF83E991E0CBCF80911E0890918C
:101690001F08009711F00C94B52360E070E0CB01B7
:1016A0000895FC0124813581232B31F421E0FB01D5
:1016B000672B49F4822F089580819181611571050E
:1016C00039F421E0FC0180818823A1F320E0F2CFEE
:1016D0000E94EE2821E0892B69F3F8CF0F931F9326
:1016E000CF93DF93EC0188819981009759F02A818B
:1016F0003B812617370730F081E0DF91CF911F91B2
:101700000F9108958B016F5F7F4F0E9428280097EB
:1017100059F0998388831B830A832C813D81232B75
:1017200059F7FC011082E8CF80E0E7CFEF92FF92FB
:101730000F931F93CF93DF93EC017B018A01BA01D2
:101740000E946E0B28813981811114C02115310549
:1017500019F0C9010E948D24198218821D821C82F1
:101760001B821A82CE01DF91CF911F910F91FF90C2
:10177000EF9008951D830C83B701C9010E94F728DB
:10178000F1CF50E040E06AEE72E00C94960B0F93BC
:101790001F93CF93DF938C01EB010E943A2688833D
:1017A000C80101960E943A268983CE01DF91CF912C
:1017B0001F910F91089582E090E00E943A26809355
:1017C000D5068AED91E00E94A40A8091D5060E9478
:1017D000860989EE92E00E94A40A83E090E00E94CC
:1017E0003A268093280787E991E00E94A40A809115
:1017F00028070E949F0989EE92E00E94A40A109295
:10180000260781E292E00E94A40A809126070E94A6
:101810009F0989EE92E00E94A40A6EE277E085E0DB
:1018200090E00E94C70BFC018081918190932F076B
:1018300080932E0785EA91E00E94A40A80912E07EA
:1018400090912F070E94BA0989EE92E00E94A40AA3
:101850006AE277E087E090E00E94C70BFC0180819C
:10186000918190932B0780932A0787E692E00E944C
:10187000A40A80912A0790912B070E94BA0989EE49
:1018800092E00E94A40A63ED76E089E090E00E9475
:10189000C70BFC01808191819093D4068093D3067D
:1018A00085E492E00E94A40A8091D3069091D40628
:1018B0000E94BA0989EE92E00E94A40A8BE090E0AF
:1018C0000E943A268093E0068DEB92E00E94A40AE3
:1018D0008091E0060E94860989EE92E00E94A40AA7
:1018E00061ED76E08CE090E00E94C70BFC01808106
:1018F00091819093D2068093D10685E992E00E946F
:10190000A40A8091D1069091D2060E94BA0989EE6C
:1019100092E00E94A40A89EE92E00C94A40ACF926D
:10192000DF92EF92FF920F931F93CF93DF93CDB788
:10193000DEB72C970FB6F894DEBF0FBECDBF26E002
:10194000289F7001299FF00C11248701005E1F4F12
:101950006E0187E0C80ED11CE6E2EE0EF11CC80154
:101960000E943A26F60181936F010F5F1F4FE01628
:10197000F106A9F786E0FE013796DE011196019087
:101980000D928A95E1F729813A814B815C816D81C5
:101990007E8180E090E02C960FB6F894DEBF0FBEFB
:1019A000CDBFDF91CF911F910F91FF90EF90DF900E
:1019B000CF900895CF92DF92EF92FF920F931F93F3
:1019C000CF93DF93CDB7DEB728970FB6F894DEBF7D
:1019D0000FBECDBF6C01BE01695F7F4F90E080E01C
:1019E0000E94C70BFC018081918198878F83892B8E
:1019F000A9F1F12CE12C10E000E08F819885069789
:101A00008E159F0558F1C8010E948F0C29833A83D7
:101A10004B835C836D837E8389819A81C114D10459
:101A200019F0C816D90681F40E94BA0983E195E03D
:101A30000E94A40A6B817C818D819E810E94B30AE1
:101A400089EE92E00E94A40AF6E0EF0EF11C083E37
:101A500083E0180719F00F5F1F4FCFCF28960FB6FE
:101A6000F894DEBF0FBECDBFDF91CF911F910F91D4
:101A7000FF90EF90DF90CF900895FF920F931F9308
:101A8000CF93DF93EC01F62E08811981C8010E94E3
:101A90003A26F81621F06F2DC8010E944226CE0189
:101AA000DF91CF911F910F91FF900895EF92FF92D8
:101AB0000F931F93CF93DF9300D0CDB7DEB78C0188
:101AC0007B019A838983FB016081CE0101960E948C
:101AD0003D0D0F5F1F4F1A830983F7016181CE010E
:101AE00001960E943D0DC7010F900F90DF91CF919D
:101AF0001F910F91FF90EF9008950F931F93CF9335
:101B0000DF9300D0CDB7DEB78B019A838983FB01C9
:101B10006081CE0101960E943D0DC8010F900F908B
:101B2000DF91CF911F910F910895CF92DF92EF92A5
:101B3000FF920F931F93CF93DF93CDB7DEB72A9712
:101B40000FB6F894DEBF0FBECDBF9A8389834B8357
:101B50005C836D837E83BE01675F7F4F90E080E092
:101B60000E94C70B09851A85780180E2E80EF11CF6
:101B7000FE0131966F010A5D1F4FF886EF82F60174
:101B800061916F01CE0107960E943D0DFFEFEF1AA4
:101B9000FF0AE016F10689F789859A8506969A87E5
:101BA0008987BE01675F7F4F90E080E00E94560DFD
:101BB00089859A852A960FB6F894DEBF0FBECDBFF1
:101BC000DF91CF911F910F91FF90EF90DF90CF9019
:101BD00008953F924F925F926F927F928F929F9261
:101BE000AF92BF92CF92DF92EF92FF920F931F932B
:101BF000CF93DF93CDB7DEB728970FB6F894DEBF4B
:101C00000FBECDBFD82E2A013B018111F0C00E942A
:101C1000CC020091850610918606209187063091AE
:101C20008806601B710B820B930B62337105810573
:101C3000910508F4C9C080E10E9405015C01882477
:101C40008394892B09F0812C82E00E9405017C019C
:101C500033243394892B09F0312C83E00E94050151
:101C60008C01CC24C394892B09F0C12C982C932887
:101C70009C28B1F08091810690918206A091830604
:101C8000B0918406892B8A2B8B2B51F40E94CC02B5
:101C900060938106709382068093830690938406F6
:101CA000AB28C9F080918006882341F1809280069C
:101CB0000E94CC0260938506709386068093870607
:101CC00090938806DD24D3946AE070E08CE890E07D
:101CD0000E94000594C00E94CC02209181063091A0
:101CE00082064091830650918406621B730B840B1D
:101CF000950B693E734081059105D0F68092800670
:101D0000EF28C9F080917F06882341F1C0927F06B9
:101D10000E94CC02609385067093860680938706A6
:101D20009093880664E170E080E991E00E940005EC
:101D300082E0D82E49C00E94CC02209181063091C9
:101D400082064091830650918406621B730B840BBC
:101D5000950B693E734081059105D0F630927F0660
:101D6000012B99F080917E06882311F1C0927E06A6
:101D70000E94CC0260938506709386068093870646
:101D80009093880693E0D92E9FCF0E94CC020091B9
:101D90008106109182062091830630918406601B93
:101DA000710B820B930B693E73408105910500F71F
:101DB000C0927E06911008C0109281061092820691
:101DC0001092830610928406809148078111C9C53C
:101DD00080914707E1E0DE1218C09091460791110B
:101DE00027C0811110C080E18093470721C021E006
:101DF000821709F469CF83E0D81609F465CF92E021
:101E0000D912E2CF8FCF8150EFCFF2E0DF121FC0A7
:101E100090914807913061F090914807911102C06C
:101E2000813031F08091460791E089278093460701
:101E30001091470711119CC080914607811115C070
:101E400029E749E367E781E30E94BE0648C123E032
:101E5000D212EECF909146079111EACF803118F05F
:101E600010924707E5CF8F5FBFCF8091040190911B
:101E700005010E94280881E0D81220C08091040149
:101E8000909105010297A0F08091040190910501C5
:101E90000197909305018093040180910401909132
:101EA00005010E947A1880914607882309F44BC1E6
:101EB000809147078F7E09F046C14EC593E0D91245
:101EC0000DC08091040190910501873E934080F7F9
:101ED00080910401909105010196DBCFF4E0DF12BF
:101EE0003CC0E0900401F090050110E000E021E02A
:101EF00030E040E050E061E070E080E090E00E947F
:101F0000261781E0809348070E94CC026093AE06BA
:101F10007093AF068093B0069093B1061092AA0614
:101F20001092AB061092AC061092AD061092A90664
:101F30001092A8066CE271E08AE593E20E94000527
:101F40008CEB91E00E94A40A80910401909105011C
:101F50000E94BA0980EC91E024C22AE0D21272C732
:101F6000411451046104710409F4A2CFC20199CF54
:101F7000113009F09DC08091460781110EC028E7FD
:101F800048E36DE681E30E94BE0682E0D812A7C056
:101F9000109346071092A70686CFBE01695F7F4F58
:101FA00090E080E00E94C70BFC01808191819887BE
:101FB0008F83009729F52FE347E368E088E00E94CC
:101FC000BE06F2E0DF1204C01092A7061092460788
:101FD00028960FB6F894DEBF0FBECDBFDF91CF912C
:101FE0001F910F91FF90EF90DF90CF90BF90AF9037
:101FF0009F908F907F906F905F904F903F9008954B
:1020000066E070E00E94B92761507109809100017B
:10201000909101018F30974221F4709301016093F8
:1020200000018091000190910101E1E0DE1227C0E2
:102030000097F9F470930101609300018091000111
:10204000909101010E948F0C29833A834B835C831A
:102050006D837E838091A70681111EC089819A813C
:102060000E94280822E0D212BAC081E08093A7061D
:102070001ACF01979093010180930001DFCFF3E025
:10208000DF12DCCF8617970728F01092010110921B
:102090000001D4CF0196EECF8B819C810E9428084D
:1020A00082E0D8129CC01092A70610924607FBCE81
:1020B0001230C9F480914607811105C026E74DE62C
:1020C00068E381E7C1CE90E080E00E94DA0C64EF23
:1020D00071E080E090E00E949A0210924607DD20B5
:1020E00009F476CF30C0133081F580914607811115
:1020F00005C028E041E368E389E3A6CE24E548E093
:1021000068E08EE60E94BE0691E0D91671F2E3E027
:10211000DE1298C61A821982BE016F5F7F4F90E06F
:1021200080E00E94560D89EC91E00E94A40A89EE9D
:1021300092E00E94A40A64EF71E080E090E00E94C7
:102140009A021092460760E008C4143009F04BC0B0
:102150008091460729E74CE167E7882309F4F1C33A
:102160009D2D9D7F9130F9F48091D506892780932C
:10217000D50665ED76E082E090E00E947D0D2CE0D2
:10218000D21220C081E045284628472809F480E083
:102190008093D50665ED76E082E090E00E947D0DAB
:1021A00089EE91E005C0FBE089ED91E0DF12E7CF19
:1021B0000E94A40A8091D5060E94860989EE92E0C9
:1021C0000E94A40A8091D5062DE649E76EE68111AA
:1021D00003C02FE347E368E088E00E94BE06DD20ED
:1021E00009F4F6CE60CE153081F480914607811156
:1021F00005C02DE347E360E183E726CE8091C10669
:102200009091C2060E94D5076ACF163069F480917A
:102210004607811105C028E74DE66FE388E314CE39
:102220008091B60690E0EECF173009F072C0809131
:102230004607811105C028E74DE669E788E704CE27
:102240000E94CC020091A3061091A4062091A5063D
:102250003091A606601B710B820B930B6D3271409F
:102260008105910530F1E090A106F090A206FAE018
:10227000EF0EF11C10E000E021E030E040E050E023
:1022800066E070E080E090E00E9426178091A10651
:102290009091A20601969093A2068093A1060E94B7
:1022A000CC026093A3067093A4068093A506909336
:1022B000A60625E0D21222C040929D0650929E06AC
:1022C00060929F067092A0068DEF91E00E94A40A92
:1022D00083E195E00E94A40A2AE0B301A2018CE503
:1022E00097E00E94F0082AE0B301A2018CEF97E08A
:1022F0000E94F00889EE92E00E94A40A60919D0677
:1023000070919E0680919F069091A0060E94D30630
:1023100066CF183009F048C080914607811105C08A
:1023200021E348E767E78FE78FCD209130073091B1
:1023300031074091320750913307A8EEB3E00E9475
:1023400050260E941B252CEB3CE644EA5BE30E94EE
:102350007C250E948027CB010E94D50784E1D812FA
:1023600071C58FE092E00E94A40A83E195E00E948B
:10237000A40A6091300770913107809132079091E3
:1023800033070E941B252CEB3CE644EA5BE30E94EA
:102390007C25AB01BC018CEF97E00E94D30989EE4C
:1023A00092E00E94A40A7FCD193099F580914607EA
:1023B0002DE647E369E7882309F4C3C28091280723
:1023C00091E0D91216C0811112C081E080932807D4
:1023D00068E277E083E090E00E94CB1A80912807C2
:1023E00081110FC028E340E167E781E7F6CE815015
:1023F000EDCFE3E0DE12F2CF882339F31092280705
:10240000E7CF813009F0EBCE29E74DE660E181E3CB
:10241000E4CE1A3009F05AC080914607811105C0F8
:1024200029E74FE36FE384E50FCD8D2D8D7F81305C
:10243000D1F490912607911180E08093260766E2FF
:1024400077E084E090E00E94CB1A2EE0D21222C006
:102450004092260766E277E084E090E00E94CB1A83
:1024600088E392E005C0FDE0DF12EFCF80E292E06A
:102470000E94A40A809126070E949F098091260746
:10248000811115C088E292E00E94A40A89EE92E0D0
:102490000E94A40A8091260781110CC02DE643E713
:1024A00067E788E30E94BE060E94C30498CE80E3DB
:1024B00092E0EACF813009F092CE29E747E360E16C
:1024C00088E30E94BE060E94930489CE1B3009F067
:1024D0007DC080914607811133C027E343E767E75A
:1024E00088E30E94BE0682E0D81221C080919B063C
:1024F00090919C062091D3063091D40682179307C1
:10250000B1F09093D4068093D30663ED76E089E032
:1025100090E00E94560D64E670E088EB9BE00E941C
:10252000000566E970E080E090E00E949A028091E8
:10253000D3069091D40690939C0680939B064FCE31
:1025400080919B0690919C06E1E0DE1221C00097ED
:1025500029F0019790939C0680939B0680919B069F
:1025600090919C060E94D5072FE0D21219C080914D
:10257000D3069091D4060E94D50784E492E00E948D
:10258000A40A8091D3069091D4060E94BA0907CF7D
:10259000F3E0DF12E3CF8F3F910500F70196DACF2A
:1025A00080E1D8124FC45092D4064092D30663ED16
:1025B00076E089E090E00E94560D8091D3069091DC
:1025C000D4060E94D50783E592E0D9CF1C3009F0EC
:1025D00053C080914607811133C02DE34EE367E776
:1025E0008DE60E94BE0692E0D91221C08091990624
:1025F00090919A0620912E0730912F07821793070A
:10260000B1F090932F0780932E076EE277E085E07C
:1026100090E00E94560D64E670E088EB9BE00E941B
:10262000000566E970E080E090E00E949A028091E7
:102630002E0790912F0790939A0680939906CFCDFD
:102640008091990690919A06E1E0DE120DC08330E8
:10265000910528F0019790939A06809399068091AE
:10266000990690919A06CECDF3E0DF12F8CF8F3F16
:102670009105A8F70196EFCF1D3009F091C0809128
:102680004607811148C028E34CE168E38DE60E94CB
:10269000BE0622E0D21221C0809197069091980642
:1026A00020912A0730912B0782179307B1F090935E
:1026B0002B0780932A076AE277E087E090E00E9488
:1026C000560D64E670E088EB9BE00E94000566E929
:1026D00070E080E090E00E949A0280912A07909139
:1026E0002B07909398068093970623E0D21230C070
:1026F00080919706909198068F3F910528F4019656
:1027000090939806809397068091970690919806EB
:102710000E94D507C8CB8091970690919806E1E07A
:10272000DE120EC0009729F00197909398068093CF
:10273000970680919706909198060E94D507D5CF6D
:10274000F3E0DF12F6CF8F3F910598F70196EDCFBA
:1027500081E1D8120FC080912A0790912B070E9427
:10276000D50786E692E00E94A40A80912A079091FC
:102770002B070BCF92E1D91232CD50922B0740920A
:102780002A076AE277E087E090E00E94560D809188
:102790002A0790912B070E94D5078BE792E0E3CFA1
:1027A0001E3009F085C08091460781113FC028E79F
:1027B00044E568E78DE60E94BE06E2E0DE1221C035
:1027C00080919506909196062091D1063091D2067F
:1027D00082179307B1F09093D2068093D10661EDF2
:1027E00076E08CE090E00E94560D64E670E088EBA5
:1027F0009BE00E94000566E970E080E090E00E94A6
:102800009A028091D1069091D20690939606809379
:10281000950683E0D81224C0809195069091960683
:102820000196909396068093950672CF80919506B7
:1028300090919606F1E0DF120EC0009729F0019703
:1028400090939606809395068091950690919606B2
:102850000E94D507DECF23E0D212F6CF0196F0CF4B
:1028600097E1D9120FC08091D1069091D2060E94B3
:10287000D50784E992E00E94A40A8091D106909144
:10288000D20683CEE8E1DE12AACC5092D206409264
:10289000D10661ED76E08CE090E00E94560D8091CB
:1028A000D1069091D2060E94D50786EA92E0E3CF46
:1028B0001F30E9F58091460729E748E76EE3882352
:1028C00009F4B1CD9D2D9D7F9130F9F48091E00602
:1028D00089278093E00660EE76E08BE090E00E942E
:1028E0007D0D26E1D21220C081E0452846284728E8
:1028F00009F480E08093E00660EE76E08BE090E003
:102900000E947D0D84EC92E005C0F5E18CEB92E035
:10291000DF12E7CF0E94A40A8091E0060E94860998
:1029200089EE92E00E94A40A8091E0064DCC10311D
:1029300009F055CC80914607811105C028E347E78F
:1029400069E38DE681CA80912C0790912D070E9442
:10295000D507DD2009F43CCB61E086E00E942E0122
:1029600037CB80914807813009F01EC282E0D8162B
:1029700019F098E2D91272C080ED92E00E94A40A88
:1029800080910401909105010E94BA0989EE92E0BC
:102990000E94A40AE12CF12C870122E030E040E003
:1029A00050E061E070E080E090E00E94261728E3AC
:1029B00049E367E389E30E94BE061092AA061092DB
:1029C000AB061092AC061092AD061092A9061092BA
:1029D000A8061092910610929206109293061092F9
:1029E000940668EC70E088EB9BE00E9400056AEFBB
:1029F00070E080E090E00E949A0268EC70E088EB62
:102A00009BE00E9400056AEF70E080E090E00E9489
:102A10009A02109248070E94CC0200918D061091F4
:102A20008E0620918F0630919006601B710B820BF1
:102A3000930B683E73408105910508F4D0CB0E944A
:102A4000CC020091AE061091AF062091B0063091F5
:102A5000B106601B710B820B930B58CCE5E0DE12C4
:102A600084C0F1E84F16510461047104A0F28EEDA8
:102A700092E00E94A40A80910401909105010E94B5
:102A8000BA0981EC93E00E94A40AC301B2010E943A
:102A90001B252FE632E143E85AE30E947C254B01D7
:102AA0005C01BC01A4018CE597E00E94D309B5014B
:102AB000A4018CEF97E00E94D30988EE92E00E9477
:102AC000A40A4092AA065092AB066092AC0670929D
:102AD000AD06C301B2010E94D30664E670E088EB44
:102AE0009BE00E94000566E970E080E090E00E94B3
:102AF0009A0264E670E088EB9BE00E94000566E9BC
:102B000070E080E090E00E949A0264E670E088EB5A
:102B10009BE00E94000566E970E080E090E00E9482
:102B20009A028091D506882341F08091040190910A
:102B30000501B301A2010E94950DBE016F5F7F4F99
:102B400090E080E00E94C70BFC018081918166E0EB
:102B500070E00E94B9276150710970930101609380
:102B6000000182E08093480756CFF4E0DF1253CF94
:102B70008091260781114FCF68E270E080EA9FE0E4
:102B80000E9400056CE370E080E090E00E949A02F1
:102B900068E270E080EA9FE00E9400050E94CC029B
:102BA00060938D0670938E0680938F0690939006A7
:102BB0000091A8061091A9060F5F1F4F1093A90658
:102BC0000093A8060E94CC024090AE065090AF063B
:102BD0006090B0067090B10664197509860997096E
:102BE0008090910690909206A0909306B0909406E3
:102BF000681979098A099B096093890670938A0686
:102C000080938B0690938C060E94CC026419750900
:102C100086099709609391067093920680939306B4
:102C200090939406C8010E94D5078BEE92E00E9413
:102C3000A40A8091A8069091A9060E94BA0981EC85
:102C400093E00E94A40A609191067091920680918F
:102C50009306909194060E94B30A83E195E00E9446
:102C6000A40A6091890670918A0680918B069091E2
:102C70008C060E94B30A2091A8063091A906809183
:102C8000D3069091D4062817390708F4C4CE809152
:102C9000910690919206A0919306B091940680932C
:102CA000AA069093AB06A093AC06B093AD0681EF55
:102CB00092E00E94A40A83E195E00E94A40A809118
:102CC0000401909105010E94BA0981EC93E00E94F1
:102CD000A40A6091AA067091AB068091AC0690910F
:102CE000AD060E94B30A88EE92E00E94A40A1092F8
:102CF000A9061092A8068090AA069090AB06A09014
:102D0000AC06B090AD06C501B4010E94D30664E6DE
:102D100070E088EB9BE00E94000566E970E080E0CF
:102D200090E00E949A0264E670E088EB9BE00E94CB
:102D3000000566E970E080E090E00E949A0264E697
:102D400070E088EB9BE00E94000566E970E080E09F
:102D500090E00E949A028091D506882341F08091EC
:102D6000040190910501B501A4010E94950DBE01D9
:102D70006F5F7F4F90E080E00E94C70BFC01808175
:102D8000918166E070E00E94B927615071097093EB
:102D90000101609300011092910610929206109228
:102DA000930610929406DDCE80914807823009F098
:102DB00016CA6091AA067091AB068091AC069091FC
:102DC000AD06611571058105910511F00E94D306CC
:102DD0008FEF8D0D833018F41092480764C824E0FB
:102DE000D212FDC9E0900401F090050110E000E06E
:102DF00021E030E040E050E061E070E080E090E011
:102E00000E94261781E0809348070E94CC026093BD
:102E1000AE067093AF068093B0069093B1066CE255
:102E200071E08AE593E20E9400051092AA061092D2
:102E3000AB061092AC061092AD061092A906109245
:102E4000A8067EC8DD2009F4C3C832C88F929F92BD
:102E5000AF92BF92CF92DF92EF92FF920F931F93A8
:102E6000CF93DF93E0912607EE2309F4E7C0609348
:102E7000C5067093C6068093C7069093C806209334
:102E8000C9063093CA064093CB065093CC06E09215
:102E9000CD06F092CE060093CF061093D0060E9486
:102EA00075024B015C0180912808C4E18111C0E0EA
:102EB00080E00E945C0180EA0E94640405EC16E058
:102EC000DDE0D15031F0F80181918F010E9464045E
:102ED000F8CFC15020F080E00E946404FACF81E076
:102EE0000E945C0161E0809124080E942E018FEF16
:102EF0000E94D0048073D9F360E0809124080E947E
:102F00002E0160E787E00E946B0484FD37C080914A
:102F100002019091030101969093030180930201B5
:102F2000C090C106D090C206E090C306F090C406DF
:102F3000C114D104E104F10409F48DC00E947502AA
:102F400022E0CC0CDD1CEE1CFF1C2A95D1F7C81822
:102F5000D908EA08FB086C0D7D1D8E1D9F1D25E01C
:102F600030E040E050E00E94E1272093C10630931A
:102F7000C2064093C3065093C4067BC081EE0E94F4
:102F8000D0048091BB069091BC0601969093BC063C
:102F90008093BB060E94CC020091B7061091B80640
:102FA0002091B9063091BA06601B710B820B930B0E
:102FB000693873418105910508F440C06091BB06F2
:102FC0007091BC06072E000C880B990B0E941D25E2
:102FD0006B017C016091020170910301072E000CCE
:102FE000880B990B0E941D259B01AC01C701B601FE
:102FF0000E940E279B01AC0160E070E080E89FE337
:103000000E94A12620E030E048EC52E40E947C259A
:103010000E9480276093B6061092BC061092BB06F1
:1030200010920301109202010E94CC026093B70635
:103030007093B8068093B9069093BA06DF91CF914A
:103040001F910F91FF90EF90DF90CF90BF90AF90C6
:103050009F908F9008950E947502681979098A09D6
:103060009B096093C1067093C2068093C306909338
:10307000C40687E10E94810480FD8CCF80E2F82E97
:1030800087E10E94810480FD85CFC0912708C4306C
:1030900008F0C4E080912808DF2DDC1B8111D0E00E
:1030A00080E00E945C0181E60E9464040DEB16E062
:1030B000C15038F08FEF0E946404F80181938F01B2
:1030C000F7CFD15020F08FEF0E946404FACF81E057
:1030D0000E945C0160E787E00E946B044091BD069E
:1030E0005091BE066091BF067091C00685E00E94B7
:1030F000E90DC6CFEF92FF920F931F9390930501B6
:103100008093040180910401909105010E94280898
:103110008AEF92E00E94A40A809104019091050137
:103120000E94BA0989EE92E00E94A40AE09004018C
:10313000F090050110E000E021E030E040E050E0D8
:1031400062E070E080E090E00E9426171F910F91EE
:10315000FF90EF9008950F931F930E94CC0200916F
:10316000B2061091B3062091B4063091B506AB01BA
:10317000BC01401B510B620B730B8091D1069091E7
:10318000D206B0E0A0E0481759076A077B0790F025
:103190000E94CC026093B2067093B3068093B4068B
:1031A0009093B50640E050E0BA0184E01F910F9182
:1031B0000C94E90D1F910F9108951F920F920FB675
:1031C0000F9211242F933F938F939F93AF93BF93AD
:1031D0008091540790915507A0915607B0915707D9
:1031E0003091530723E0230F2D3758F50196A11D89
:1031F000B11D209353078093540790935507A093D4
:103200005607B09357078091580790915907A0919E
:103210005A07B0915B070196A11DB11D8093580715
:1032200090935907A0935A07B0935B07BF91AF9152
:103230009F918F913F912F910F900FBE0F901F90F4
:10324000189526E8230F0296A11DB11DD2CF1F921B
:103250000F920FB60F9211242F933F934F935F93CA
:103260006F937F938F939F93AF93BF93EF93FF934E
:1032700080914F0790915007A0915107B09152074C
:10328000892B8A2B8B2BD1F190914E07E0914C0723
:10329000F0914D0780818927808380914F0790911D
:1032A0005007A0915107B0915207181619061A0637
:1032B0001B069CF480914F0790915007A0915107F5
:1032C000B09152070197A109B10980934F079093DC
:1032D0005007A0935107B0935207FF91EF91BF9110
:1032E000AF919F918F917F916F915F914F913F919E
:1032F0002F910F900FBE0F901F901895809106018F
:10330000E4E0F1E0E4919FEF90930601E13051F0A9
:1033100030F0E23069F060E00E942E01DECF1092C2
:103320006E00F9CF90916F009D7F90936F00F3CF67
:10333000909170009D7F9093700091E09093B00009
:103340009091B100987F94609093B1001092B30077
:10335000E2CF1F920F920FB60F9211242F933F933B
:103360004F935F936F937F938F939F93AF93BF938D
:10337000EF93FF938CE597E00E945D03FF91EF913F
:10338000BF91AF919F918F917F916F915F914F917D
:103390003F912F910F900FBE0F901F9018951F9285
:1033A0000F920FB60F9211242F938F939F93EF9349
:1033B000FF93E0916C07F0916D078081E0917207B7
:1033C000F091730782FD1BC09081809175078F5F1C
:1033D0008F7320917607821741F0E0917507F0E036
:1033E000E45AF84F958F80937507FF91EF919F9165
:1033F0008F912F910F900FBE0F901F901895808185
:10340000F4CF1F920F920FB60F921124EF92FF92FA
:103410000F931F932F933F934F935F936F937F93DC
:103420008F939F93AF93BF93CF93DF93EF93FF93CC
:10343000C0912307D0912407209749F0EE85FF859E
:103440009D858B8D81FF1AC080818923D1F4FF91E6
:10345000EF91DF91CF91BF91AF919F918F917F912C
:103460006F915F914F913F912F911F910F91FF901D
:10347000EF900F900FBE0F901F90189580818923B9
:1034800031F78B899C890E945A0488E0E82EF12C40
:1034900010E001E08D899E890E945A04EE85FF8527
:1034A00080819D85892339F1102B000F81E0E81A76
:1034B000F10881F78F89988D0E945A048B8D81FDC8
:1034C0001095809122072091210790E001968F733B
:1034D00099272817190699F0E0912207F0E0EF519B
:1034E000F94F10838091220790E001968F739927FE
:1034F00080932207ACCF802F80951823D6CF8B8D59
:1035000081608B8FA4CF1F920F920FB60F92112460
:103510002F933F934F935F936F937F938F939F93DB
:10352000AF93BF93EF93FF930E94011AFF91EF9126
:10353000BF91AF919F918F917F916F915F914F91CB
:103540003F912F910F900FBE0F901F9018951F92D3
:103550000F920FB60F9211242F933F934F935F93C7
:103560006F937F938F939F93AF93BF93EF93FF934B
:103570000E94011AFF91EF91BF91AF919F918F919E
:103580007F916F915F914F913F912F910F900FBE5F
:103590000F901F9018950F931F93CF93DF9300D038
:1035A000CDB7DEB78B019A838983FB016081CE01A1
:1035B00001960E943D0DC8010F900F90DF91CF91B1
:1035C0001F910F910895CF92DF92EF92FF92109288
:1035D0005F0710925E0798EEC92E93E0D92EE12C7A
:1035E000F12CC0926007D0926107E0926207F092DE
:1035F000630787E691E090935D0780935C0785EC15
:1036000090E0909369078093680784EC90E0909332
:103610006B0780936A0780EC90E090936D0780932E
:103620006C0781EC90E090936F0780936E0782ECBB
:1036300090E0909371078093700786EC90E09093F0
:103640007307809372071092750710927607109295
:1036500077071092780789E0809324088AE08093A6
:1036600025081092260880E28093270810922808E7
:1036700085E080932E0810921F0810921E08109269
:10368000210810922008109223081092220850E07E
:1036900040E06AEE72E08EE198E00E94960B109294
:1036A00019081092180810921B0810921A0810920C
:1036B0001D0810921C0850E040E06AEE72E088E1BC
:1036C00098E00E94960B1092FF071092FE07C0929E
:1036D0000008D0920108E0920208F092030889E7FE
:1036E00091E09093FD078093FC07109210081092D0
:1036F0000F081092120810921108109214081092DC
:1037000013081092160810921508809117088E7FE2
:103710008D7F8093170861E087E00E946D0161E072
:1037200087E00E942E01E2E5F1E0E491E0930C08CD
:10373000EEE3F1E0E491F0E0EE0FFF1FE35DFE4FFA
:103740008591949190930E0880930D0860E088E035
:103750000E946D018091170881FD04C061E088E03E
:103760000E942E0188E080930808E3E5F1E0E491EF
:10377000E0930908EFE3F1E0E491F0E0EE0FFF1FC2
:10378000ED5DFE4F8591949190930B0880930A080C
:1037900085E08093F90784E08093FA0760E085E094
:1037A0000E946D0160E08091FA070E946D0160E067
:1037B0008091F9070E942E0160E08091FA07FF9046
:1037C000EF90DF90CF900C942E01CF93DF93CDB785
:1037D000DEB72C970FB6F894DEBF0FBECDBF78943E
:1037E00084B5826084BD84B5816084BD85B5826006
:1037F00085BD85B5816085BD80916E0081608093B7
:103800006E0010928100809181008260809381001F
:10381000809181008160809381008091800081602F
:10382000809380008091B10084608093B10080918A
:10383000B00081608093B00080917A0084608093B2
:103840007A0080917A00826080937A0080917A0079
:10385000816080937A0080917A00806880937A00FA
:103860001092C100E0916C07F0916D0782E08083B7
:10387000E0916807F09169071082E0916A07F09182
:103880006B078FEC808310927407E0917007F091C2
:10389000710786E08083E0916E07F0916F07808169
:1038A00080618083E0916E07F0916F07808188606E
:1038B0008083E0916E07F0916F078081806880833C
:1038C000E0916E07F0916F0780818F7D8083109269
:1038D00016081092150810921408109213081092EE
:1038E00012081092110890E080E0FC01E859FF4FA7
:1038F000459155916591749141155B446105710540
:1039000009F081C3FC01E459FF4F259134913093B4
:10391000100820930F08FC01E259FF4F25913491C4
:103920003093120820931108FC01E059FF4F2591B4
:1039300034913093140820931308FC01EE58FF4F84
:10394000859194919093160880931508809113089F
:1039500090911408892BB1F190910808963160F587
:103960002091680084E0983048F031E09E3008F4FF
:1039700030E081E001C0880F3A95EAF7822B80930E
:103980006800EDE6F0E0983050F0EBE6F0E09E30B5
:1039900030F0ECE6F0E0963110F0F0E0E0E040814D
:1039A000292F30E0983008F038C381E001C0880F3B
:1039B0009A95EAF7842B80838091150890911608D8
:1039C0000E945A0480912307909124078C5F9740AE
:1039D00091F0809117088E7F809317088FB7F89425
:1039E00010922207109221072CEF37E03093240722
:1039F000209323078FBF84E690E0A0E0B0E080939F
:103A0000000890930108A0930208B093030886E091
:103A100093E00E94A40A0E94DB0B62E082E10E9414
:103A20006D0162E080E10E946D0162E082E00E942F
:103A30006D0162E083E00E946D0161E081E10E941E
:103A40006D0161E082E10E946D0160E082E10E940F
:103A50002E0160E08FE00E946D0161E086E00E942F
:103A60006D0160E086E00E942E0160E083E10E942B
:103A70006D0161E0809124080E946D0161E08091F8
:103A800025080E946D011FB7F894809125078111C8
:103A900027C0E1E4F1E08491E5E5F1E09491E82FBD
:103AA000F0E0EE0FFF1FEB5FFE4FA591B491EC919C
:103AB000E92321F461E08AE00E942E0161E08AE0BE
:103AC0000E946D018CB580618CBD8CB580648CBD0D
:103AD00061E08DE00E946D0161E08BE00E946D016C
:103AE000809125078F5F809325071FBF60E080913D
:103AF00024080E942E0181E00E945C0165E070E0D4
:103B000080E090E00E949A026FE584E00E946B04DE
:103B100082E090E00E94A704882319F081E080935E
:103B2000260890E080E00E94A70480E00E948104C3
:103B3000682F6C6080E00E946B0460E787E00E9461
:103B40006B046CE485E00E946B0482EE0E94D0045A
:103B500081EE0E94D0040E94930480E00E948104C0
:103B6000682F6E7F80E00E946B046FE381E00E940B
:103B70006B046FE084E00E946B0480E00E945C01B3
:103B800080E50E94640483E70E94640481E00E944F
:103B90005C018DE10E948104682F66608DE10E94C6
:103BA0006B048CE10E948104682F63608CE10E94A9
:103BB0006B0481E08093280880E28093270860915D
:103BC0002E088AE00E94DF0460912E0880E10E94A6
:103BD000DF046091270881E10E946B046CE085E0BE
:103BE0000E946B0486E00E948104887F682F6360D6
:103BF00086E00E946B0490E080E00E94A7040E948F
:103C0000930460E0809124080E942E0181EE0E94BE
:103C1000D00480E00E948104682F6E7F80E00E94C3
:103C20006B0483E092E00197F1F780912607811100
:103C300002C00E94C3048FE08093FB0729E749E399
:103C400067E781E30E94BE0664E670E08CEA9DE0CF
:103C50000E94000566E970E080E090E00E949A0210
:103C600064E670E088EB9BE00E94000566E970E086
:103C700080E090E00E949A0264E670E084EC99E0B3
:103C80000E94000566E970E080E090E00E949A02E0
:103C90003AE0832E912CA12CB12CDD24D39490E119
:103CA000C92E20E0222E20E0322E20912C073091C8
:103CB0002D0780912E0790912F070197829F8001F9
:103CC000839F100D929F100D112483E10E946302C7
:103CD000800F911F60912E0770912F070E94B927C6
:103CE00070932D0760932C0720912C0730912D079E
:103CF00080912A0790912B072817390708F49AC159
:103D0000D092290710E080912807811198C11111E4
:103D100008C080912707882321F0109227070E946E
:103D2000AB181093270740E050E0BA0180E00E94F2
:103D3000E90D0E94CC0200913407109135072091C3
:103D4000360730913707601B710B820B930B64367B
:103D500071058105910538F1409030075090310789
:103D600060903207709033078FE041145104610472
:103D7000710409F06EC10E946302092E000CAA0BA7
:103D8000BB0B8093300790933107A0933207B09319
:103D900033070E94CC0260933407709335078093F9
:103DA0003607909337070E94CC0200913807109194
:103DB000390720913A0730913B07601B710B820B4A
:103DC000930B643F714081059105F8F0809148079D
:103DD000E0900401F090050110E000E021E030E007
:103DE00040E050E0813009F052C163E070E080E0D3
:103DF00090E00E9426170E94CC02609338077093CF
:103E0000390780933A0790933B078CEF97E00E9425
:103E10002104181619060CF061C080914407909196
:103E20004507892B71F421E030E03093450720935A
:103E3000440788E198E00E94C10B8EE198E00E945F
:103E4000C10B8091440790914507029731F483E0BC
:103E500090E090934507809344078CEF97E00E9491
:103E60003904803209F018C1E2E0F0E0F093450730
:103E7000E0934407209144073091450721303105F4
:103E800009F014C189831A8200911C0810911D0841
:103E90000F5F1F4FB80188E198E00E946E0B8823E6
:103EA00099F0209118083091190880911C08909180
:103EB0001D08BE016F5F7F4F820F931F0E94F7287E
:103EC00010931D0800931C080E94CC0260933C07CD
:103ED00070933D0780933E0790933F07809144077E
:103EE000909145070497F9F481E4E82E81E0F82EDB
:103EF00010E000E0F701619171917F0188E198E0A5
:103F00000E94510B882321F010934A070093490720
:103F10000F5F1F4F0131110569F7D0924B071092C7
:103F20004507109244070E94CC0200913C07109173
:103F30003D0720913E0730913F07601B710B820BBC
:103F4000930B6B3071058105910550F0809144070A
:103F500090914507892B21F0109245071092440754
:103F600080914B07882309F43CC210924B07809143
:103F7000490790914A07009709F0C0C0809148070F
:103F8000813009F420C20E94450B672B682B692BF6
:103F900009F4C3C08AE293E00E94A40A1A8219823B
:103FA0001C821B821E821D8260911E0870911F0858
:103FB0006115710541F04091220850912308CE010E
:103FC00001960E94960B4D815E8169817A818CE514
:103FD00097E00E94DF024D815E8169817A818CEFDA
:103FE00097E00E94DF028F8198850E948D2489814D
:103FF0009A810E948D2488EE92E00E94A40A0E9479
:10400000450BCB0194C00C968C39910509F06DCC11
:104010001092100810920F0899CC9E3040F428504E
:10402000310981E001C0880F2A95EAF7C3CC2E50F0
:104030003109F7CF109129071092290764CE112377
:1040400009F46FCE8091270781116BCED09227079C
:1040500066CE0E9463028C01A9E0B0E0A301920148
:104060000E945026012E000C220B330B600F711F93
:10407000821F931FA50194010E94E127209330071E
:1040800030933107409332075093330782CE64E078
:1040900070E080E090E0ADCE8B3309F0EBCE24E011
:1040A00030E03093450720934407E4CE23303105B8
:1040B00009F00ACF89831A820091220810912308FF
:1040C0000F5F1F4FB8018EE198E00E946E0B8823AE
:1040D00009F4FACE20911E0830911F088091220821
:1040E00090912308BE016F5F7F4F820F931F0E9444
:1040F000F7281093230800932208E6CE813091051B
:10410000E9F08230910509F078C18091480781304B
:1041100009F459C10E94DB0B56C18DE193E00E9466
:10412000A40A88EE92E00E94A40A90E080E00E9437
:10413000DA0C89EE92E00E94A40A45C180914807FA
:10414000813009F440C10E94CC02009140071091D7
:1041500041072091420730914307601B710B820B8E
:10416000930B683E73408105910508F42CC18EE3E2
:1041700093E00E94A40A8DE493E00E94A40A8EE0DA
:104180000E9463020E946E0989EE92E00E94A40AD6
:1041900082E593E00E94A40A8FE00E9463020E94DD
:1041A0006E0989EE92E00E94A40A87E593E00E94DE
:1041B000A40A80E10E9463020E946E0989EE92E0E7
:1041C0000E94A40A8CE593E00E94A40A81E10E9467
:1041D00063020E946E0989EE92E00E94A40A81E6C1
:1041E00093E00E94A40A82E10E9463020E946E0989
:1041F00089EE92E00E94A40A86E693E00E94A40A57
:1042000083E10E9463020E946E0989EE92E00E949F
:10421000A40A8BE793E00E94A40A84E10E9463024F
:104220000E946E0989EE92E00E94A40A80E893E061
:104230000E94A40A85E10E9463020E946E0989EE31
:1042400092E00E94A40A85E893E00E94A40A80E01C
:104250000E9405010E946E0989EE92E00E94A40A64
:104260008AE893E00E94A40A81E00E9405010E946E
:104270006E0989EE92E00E94A40A8FE893E00E9402
:10428000A40A82E00E9405010E946E0989EE92E074
:104290000E94A40A8EE993E00E94A40A83E00E948F
:1042A00005010E946E0989EE92E00E94A40A83EA49
:1042B00093E00E94A40A84E00E9405010E946E0916
:1042C00089EE92E00E94A40A88EA93E00E94A40A80
:1042D00085E00E9405010E946E0989EE92E00E942D
:1042E000A40A8DEA93E00E94A40A86E00E940501D8
:1042F0000E946E0989EE92E00E94A40A84EC93E089
:104300000E94A40A87E00E9405010E946E0989EEBE
:1043100092E00E94A40A89EC93E00E94A40A88E03B
:104320000E9405010E946E0989EE92E00E94A40A93
:104330008EEC93E00E94A40A89E00E9405010E948D
:104340006E0989EE92E00E94A40A83ED93E00E9438
:10435000A40A8AE00E9405010E946E0989EE92E09B
:104360000E94A40A89ED93E00E94A40A8BE00E94B7
:1043700005010E946E0989EE92E00E94A40A8FED69
:1043800093E00E94A40A8CE00E9405010E946E093D
:1043900089EE92E00E94A40A85EE93E00E94A40AAE
:1043A0008DE00E9405010E946E0989EE92E00E9454
:1043B000A40A0E94CC026093400770934107809347
:1043C000420790934307E0E3F0E0F0934A07E0935D
:1043D00049078EE198E00E94C10B109245071092A8
:1043E00044072114310409F460CC0E944903882356
:1043F00009F453CC0E94000050CC83309105C9F4DD
:10440000809148078130F9F2109247070E94450BCE
:1044100021E016161706180619060CF020E0209366
:1044200046070E94450BAB01BC018AE00E94E90DE2
:10443000CACF84309105B1F480914807813019F2D8
:1044400084E080934707D09246076AEE72E08EE1DF
:1044500098E00E94510B8823F9F040E050E0BA0147
:104460008BE0E4CF8B30910549F58091480781308E
:1044700009F4A9CF8FE080934707D09246076AEEF0
:1044800072E08EE198E00E94510B882389F140E0B0
:1044900050E0BA0185E1CACF0E94450BDC01CB0197
:1044A00041E050E060E070E0181619061A061B069D
:1044B0001CF040E050E0BA018CE0B8CF85309105A7
:1044C00049F580914807813009F47DCF8AE08093D7
:1044D0004707D09246076AEE72E08EE198E00E94AC
:1044E000510B882389F140E050E0BA018DE09ECF66
:1044F0000E94450BDC01CB0141E050E060E070E040
:10450000181619061A061B061CF040E050E0BA0106
:1045100086E18CCF8630910549F58091480781303E
:1045200009F451CF8BE080934707D09246076AEE9B
:1045300072E08EE198E00E94510B882331F140E057
:1045400050E0BA018FE072CF0E94450BDC01CB0135
:1045500041E050E060E070E0181619061A061B06EC
:104560001CF040E050E0BA018EE060CF8C30910545
:1045700091F08730910561F18830910509F043C0D1
:1045800040E050E0BA0188E251CF0E94450BAB01F8
:10459000BC0180E14BCF80914807813009F413CFF3
:1045A0002EE020934707D09246076AEE72E08EE134
:1045B00098E00E94510B882329F040E050E0BA01B6
:1045C00087E134CF0E94450BAB01BC0188E12ECFBF
:1045D00080914807813009F4F6CE3DE030934707DB
:1045E0006AEE72E08EE198E00E94510B882329F078
:1045F00040E050E0BA0181E119CF0E94450BAB01C8
:10460000BC0182E113CF8930910571F48091480794
:10461000813009F4D8CEC0924707D092460740E0D7
:1046200050E0BA0183E102CF8A30910541F08D302C
:104630009105A1F440E050E0BA0181E0F7CE80910D
:104640004807813009F4BFCE88E080934707D092B5
:10465000460740E050E0BA0184E1E8CE8E30910593
:1046600029F440E050E0BA0182E0E0CE8F309105BD
:1046700029F440E050E0BA0183E0D8CE409709F039
:10468000A2CE80914807813009F49DCE8BEE93E055
:104690000E94A40A8AE094E00E94A40A8CE394E0B9
:1046A0000E94A40A83E694E00E94A40A8FE794E0A3
:1046B0000E94A40A8CEA94E00E94A40A81EE94E08D
:1046C0000E94A40A85E195E00E94A40A81E495E095
:1046D0000E94A40A8DE795E00E94A40A83EB95E06E
:1046E0000E94A40A89ED95E00E94A40A88EF95E053
:1046F00022CD89E791E09093FD078093FC072091FC
:1047000008082631C0F4EDE6F0E0283030F0EBE6A2
:10471000F0E02E3010F0ECE6F0E03081422F50E077
:104720002830A8F481E090E001C0880F2A95EAF7CC
:1047300080958323808380911808909119080E94A6
:104740008D2480911E0890911F080C948D242E308A
:1047500048F44850510981E090E001C0880F4A9523
:10476000EAF7E6CF4E505109F6CF1F93FC01992787
:104770008827BC01E89411911032E9F3193010F048
:104780001E30C8F31B3251F01D3249F4689406C044
:104790000E94DC23610F711D811D911D1191105329
:1047A0001A30B0F33EF490958095709561957F4FE7
:1047B0008F4F9F4F1F910895592F482F372F262F26
:1047C000660F771F881F991F660F771F881F991F15
:1047D000620F731F841F951F660F771F881F991F15
:1047E00008950F931F93CF93DF938230910510F4B8
:1047F00082E090E0E0913108F091320830E020E072
:10480000B0E0A0E0309799F42115310509F44AC0D1
:10481000281B390B24303105D8F58A819B8161151D
:10482000710589F1FB0193838283FE0111C04081F0
:1048300051810281138148175907E0F04817590741
:1048400099F4109761F012960C93129713961C939B
:104850003296CF01DF91CF911F910F910895009370
:10486000310810933208F4CF2115310551F0421769
:10487000530738F0A901DB019A01BD01DF01F801FE
:10488000C1CFEF01F9CF9093320880933108CDCF9B
:10489000FE01E20FF31F8193919322503109398376
:1048A0002883D7CF20912F0830913008232B41F453
:1048B00020912D0130912E013093300820932F0844
:1048C00020912B0130912C012115310541F42DB798
:1048D0003EB740912F0150913001241B350BE091E0
:1048E0002F08F0913008E217F307A0F42E1B3F0BBE
:1048F0002817390778F0AC014E5F5F4F2417350752
:1049000048F04E0F5F1F5093300840932F0881935B
:1049100091939FCFF0E0E0E09CCFCF93DF9300979F
:10492000E9F0FC01329713821282A0913108B09114
:104930003208ED0130E020E01097A1F420813181B0
:10494000820F931F20912F083091300828173907C4
:1049500009F061C0F0933008E0932F08DF91CF9108
:104960000895EA01CE17DF07E8F54A815B819E01D1
:1049700041155105B1F7E901FB83EA83499159914A
:10498000C40FD51FEC17FD0761F480819181029659
:10499000840F951FE90199838883828193819B838A
:1049A0008A83F0E0E0E012968D919C911397009736
:1049B000B9F52D913C911197CD010296820F931F6D
:1049C00020912F08309130082817390739F6309791
:1049D00051F51092320810923108B0933008A0932C
:1049E0002F08BCCFD383C28340815181840F951F90
:1049F000C817D90761F44E5F5F4F88819981480FCE
:104A0000591F518340838A819B819383828321151F
:104A1000310509F0B0CFF0933208E09331089ECF12
:104A2000FD01DC01C0CF13821282D7CF0E9458252E
:104A300008F481E00895E89409C097FB3EF490954E
:104A40008095709561957F4F8F4F9F4F9923A9F067
:104A5000F92F96E9BB279395F695879577956795F6
:104A6000B795F111F8CFFAF4BB0F11F460FF1BC03A
:104A70006F5F7F4F8F4F9F4F16C0882311F096E9CD
:104A800011C0772321F09EE8872F762F05C066237B
:104A900071F096E8862F70E060E02AF09A95660F34
:104AA000771F881FDAF7880F9695879597F90895ED
:104AB000990F0008550FAA0BE0E8FEEF161617062F
:104AC000E807F907C0F012161306E407F50798F097
:104AD000621B730B840B950B39F40A2661F0232BB0
:104AE000242B252B21F408950A2609F4A140A6952C
:104AF0008FEF811D811D08950E948F250C94002643
:104B00000E94F22538F00E94F92520F0952311F03B
:104B10000C94E9250C94EF2511240C9434260E9462
:104B2000112670F3959FC1F3950F50E0551F629FBA
:104B3000F001729FBB27F00DB11D639FAA27F00DF6
:104B4000B11DAA1F649F6627B00DA11D661F829F1D
:104B50002227B00DA11D621F739FB00DA11D621F02
:104B6000839FA00D611D221F749F3327A00D611D1F
:104B7000231F849F600D211D822F762F6A2F112401
:104B80009F5750409AF0F1F088234AF0EE0FFF1F34
:104B9000BB1F661F771F881F91505040A9F79E3F8B
:104BA000510580F00C94E9250C9434265F3FE4F322
:104BB000983ED4F3869577956795B795F795E795E1
:104BC0009F5FC1F7FE2B880F911D9695879597F9EA
:104BD000089597F99F6780E870E060E008959FEF7F
:104BE00080EC089500240A94161617061806090684
:104BF000089500240A941216130614060506089553
:104C0000092E0394000C11F4882352F0BB0F40F4DA
:104C1000BF2B11F460FF04C06F5F7F4F8F4F9F4F1A
:104C2000089557FD9058440F551F59F05F3F71F09C
:104C30004795880F97FB991F61F09F3F79F0879503
:104C40000895121613061406551FF2CF4695F1DF8C
:104C500008C0161617061806991FF1CF869571051C
:104C6000610508940895E894BB2766277727CB0150
:104C700097F90895F999FECF92BD81BDF89A9927C9
:104C800080B50895262FF999FECF1FBA92BD81BD38
:104C900020BD0FB6F894FA9AF99A0FBE01960895BE
:104CA0000E949226A59F900DB49F900DA49F800D09
:104CB000911D112408952F923F924F925F926F920F
:104CC0007F928F929F92AF92BF92CF92DF92EF929C
:104CD000FF920F931F93CF93DF93CDB7DEB7CA1B1D
:104CE000DB0B0FB6F894DEBF0FBECDBF09942A8848
:104CF000398848885F846E847D848C849B84AA84F0
:104D0000B984C884DF80EE80FD800C811B81AA817C
:104D1000B981CE0FD11D0FB6F894DEBF0FBECDBF47
:104D2000ED010895A29FB001B39FC001A39F700D34
:104D3000811D1124911DB29F700D811D1124911DA3
:104D400008955058BB27AA270E94B9260C94002624
:104D50000E94F22538F00E94F92520F039F49F3F97
:104D600019F426F40C94EF250EF4E095E7FB0C946F
:104D7000E925E92F0E94112658F3BA176207730735
:104D80008407950720F079F4A6F50C9433260EF4E9
:104D9000E0950B2EBA2FA02D0B01B90190010C014B
:104DA000CA01A0011124FF27591B99F0593F50F463
:104DB000503E68F11A16F040A22F232F342F4427BB
:104DC000585FF3CF469537952795A795F0405395B3
:104DD000C9F77EF41F16BA0B620B730B840BBAF083
:104DE0009150A1F0FF0FBB1F661F771F881FC2F7EE
:104DF0000EC0BA0F621F731F841F48F48795779502
:104E00006795B795F7959E3F08F0B0CF9395880FBB
:104E100008F09927EE0F9795879508950E9422270D
:104E20000C9400260E94F92558F00E94F22540F0CB
:104E300029F45F3F29F00C94E92551110C94342694
:104E40000C94EF250E94112668F39923B1F35523A2
:104E500091F3951B550BBB27AA276217730784078D
:104E600038F09F5F5F4F220F331F441FAA1FA9F323
:104E700035D00E2E3AF0E0E832D091505040E69511
:104E8000001CCAF72BD0FE2F29D0660F771F881F72
:104E9000BB1F261737074807AB07B0E809F0BB0B65
:104EA000802DBF01FF2793585F4F3AF09E3F510579
:104EB00078F00C94E9250C9434265F3FE4F3983E97
:104EC000D4F3869577956795B795F7959F5FC9F762
:104ED000880F911D9695879597F90895E1E0660FE3
:104EE000771F881FBB1F621773078407BA0720F05C
:104EF000621B730B840BBA0BEE1F88F7E0950895C5
:104F00000E94192688F09F5798F0B92F9927B7511A
:104F1000B0F0E1F0660F771F881F991F1AF0BA955D
:104F2000C9F714C0B13091F00E943326B1E0089562
:104F30000C943326672F782F8827B85F39F0B93F54
:104F4000CCF3869577956795B395D9F73EF4909510
:104F50008095709561957F4F8F4F9F4F08950E9468
:104F6000582508F48FEF08950E945825880B990B57
:104F70000895AA1BBB1B51E107C0AA1FBB1FA617A0
:104F8000B70710F0A61BB70B881F991F5A95A9F7F2
:104F900080959095BC01CD01089597FB072E16F4DE
:104FA000009407D077FD09D00E94B92707FC05D0EF
:104FB0003EF4909581959F4F0895709561957F4F30
:104FC0000895A1E21A2EAA1BBB1BFD010DC0AA1F4A
:104FD000BB1FEE1FFF1FA217B307E407F50720F062
:104FE000A21BB30BE40BF50B661F771F881F991FDD
:104FF0001A9469F760957095809590959B01AC0126
:10500000BD01CF010895052E97FB1EF400940E9468
:105010001A2857FD07D00E94E12707FC03D04EF461
:105020000C941A2850954095309521953F4F4F4F3D
:105030005F4F089590958095709561957F4F8F4F44
:105040009F4F0895EE0FFF1F0590F491E02D0994F6
:10505000B0E0A0E0EEE2F8E20C945D268C0100974F
:1050600051F4CB010E94F1238C01C801CDB7DEB70A
:10507000E0E10C947926FC01E60FF71F9C01225019
:105080003109E217F30708F49DC0D901CD91DC91F5
:105090001197C617D70798F0C530D10530F3CE0168
:1050A00004978617970708F3C61BD70B2297C1935F
:1050B000D1936D937C93CF010E948D24D6CF5B0159
:1050C000AC1ABD0A4C018C0E9D1EA0913108B09106
:1050D0003208512C412CF12CE12C109731F58091A4
:1050E0002F08909130088815990509F05CC0461684
:1050F000570608F058C080912B0190912C01009721
:1051000041F48DB79EB740912F0150913001841B1F
:10511000950BE817F90708F055C0F0933008E093B5
:105120002F08F90171836083A0CF8D919C91119715
:1051300012966C90129713967C901397A815B90548
:1051400059F56C0142E0C40ED11CCA14DB0420F1F5
:10515000AC014A195B09DA011296159780F0628258
:10516000738251834083D9016D937C93E114F104E0
:1051700071F0D7011396FC93EE93129776CF229697
:105180008C0F9D1FF90191838083F301EFCFF09382
:105190003208E093310869CF4816590608F42C010B
:1051A0007D01D3019ACFCB010E94F1237C010097AE
:1051B00049F0AE01B8010E94E528C8010E948D2483
:1051C000870153CF10E000E050CFFB01DC0102C0AB
:1051D00001900D9241505040D8F70895FB01DC0139
:1051E0008D91019080190110D9F3990B0895FB015D
:1051F000DC0101900D920020E1F7089510E0C1EB71
:10520000D0E004C0FE010E9422282196C23BD107B3
:06521000C9F7F894FFCF7E
:105216000F2701000100FF314E6F646500324E6FAB
:10522600646500334E6F646500344E6F6465003507
:105236004E6F646500364E6F64650000003308806B
:10524600003F065B4F666D7D077F6F777C395E7921
:10525600711B06260630063A063F06D40544064963
:10526600064F0656065B06600665066E06700672F3
:10527600067406000000007F03DF020C03CC033D2A
:10528600031B032F03000000006D08DF02610412F8
:105296000421043904F8036E616E00696E66006FBE
:1052A60076660030002E0053454E534F525F4D4FE9
:1052B60044453A200053454E534F525F4D415F5689
:1052C600414C5545535F4E554D3A20000A72200019
:1052D600207374617274656400526573756C7473BF
:1052E60020636C6561726564000A534156455F52DE
:1052F6004553554C54533A20000A53657420534184
:1053060056455F524553554C54533A2000526563F7
:1053160069657665642074657374696E673A000A18
:1053260042617465727920766F6C746167653A00C4
:105336000A4D4F44453A200020284C41505329003D
:1053460020284C494E4529000A536574204D4F4488
:10535600453A20000A4C4150535F4E554D42455246
:105366003A20000A536574204C4150535F4E554D08
:105376004245523A20000A53454E534F525F54520B
:1053860055455F4C4556454C3A20000A53657420F6
:1053960053454E534F525F545255455F4C45564503
:1053A6004C3A20000A53454E534F525F54494D45DF
:1053B6004F55543A20000A5365742053454E534FB7
:1053C600525F54494D454F55543A20000A4D5554A5
:1053D600453A20000A536574204D5554453A20003D
:1053E60043616E63656C20726163653A20000A5200
:1053F6006573756C743A20000A0A000A4C617020C5
:10540600000A526573756C743A00536574207261B4
:105416006365723A20000A203D3D3D3D20544320FD
:105426005374617274203D3D3D3D200A000A526569
:1054360073756C747320616C6C000A526573756CBD
:10544600747320666F7220726163657220000A4968
:105456006E7075742076616C7565730A0041303A1A
:10546600200041313A200041323A200041333A20AF
:105476000041343A2000413520286C617365725F23
:1054860073656E7350494E293A200041363A200022
:1054960041373A200044303A200044313A20004453
:1054A60032202873656E7350494E293A20004433E2
:1054B6003A200044343A200044353A20004436204D
:1054C600286C6173657250494E204F4E2F4F4646E9
:1054D600293A200044373A200044383A200044391B
:1054E6003A20004431303A20004431313A20004419
:1054F60031323A20004431333A20000A3C2C5E2CEB
:105506003E203A2072656C6561736520312C322C21
:105516003320427574746F6E73000A676574726522
:1055260073756C7473203C312D3235353E3A2072DA
:10553600657475726E7320726573756C7420666F10
:10554600722072616365722F616C6C000A67657404
:10555600696E70757473203A2072657475726E7315
:1055660020616C6C20696E707574732076616C7541
:105576006573000A676574636F6E666967203A2013
:1055860072657475726E7320636F6E666967000A62
:1055960072616365203C312D3235353E3A20676FA6
:1055A60020746F2072616365206D6F646520616E83
:1055B6006420736574207261636572000A73617694
:1055C60065203C312D303E3A206765742F73657433
:1055D60020736176696E6720726573756C747320CB
:1055E600746F206D656D6F7279206F7074696F6E60
:1055F600000A6C617073203C312D3235353E3A20FD
:105606006765742F736574206C617073206E756D99
:105616006265722028666F72204C617073206D6F10
:1056260064652920000A6C6576656C203C312D3155
:105636003032343E3A206765742F73657420736583
:105646006E736F722054525545206C6576656C20DA
:10565600000A7374696D656F7574203C302D3130A6
:105666003030303E3A206765742F73657420736559
:105676006E736F722074696D656F757420696E2024
:105686006D696C6C697365636F6E6473000A636140
:105696006E63656C203A2063616E63656C2072618F
:1056A600636520666F72206375726574207261632C
:1056B6006572202869662069742073746172746546
:1056C6006429000A7363616C203A20676F20746F47
:1056D6002073656E736F722063616C6962726174A8
:1056E600696F6E206D6F6465000A62617472203A9C
:1056F6002072657475726E732062617465727920AA
:10570600766F6C74616765000A6D757465203C314F
:105716002D303E3A206765742F736574206D75745D
:10572600696E6720736F756E647300676574726562
:1057360073756C747300676574696E707574730045
:10574600676574636F6E666967007261636500738F
:10575600617665006C617073006C6576656C0063DC
:10576600616E63656C007363616C006261747200E4
:105776006D757465007374696D656F7574003C00B2
:0A5786005E003E0068656C700000D4
:00000001FF
