:100000000C94B2000C94DA000C94DA000C9456179D
:100010000C94FC170C94D8170C94DA000C947C16F2
:100020000C94DA000C94DA000C94DA000C94DA00E8
:100030000C94DA000C94DA000C94DA000C94DA00D8
:100040000C9432160C94DA000C9424170C94FE16BF
:100050000C94DA000C94DA000C94DA000C94DA00B8
:100060000C94DA000C94DA0000C2010001001100C7
:1000700011000C0000E100000A002500250021000D
:10008000009600001900390039003600127A00008D
:100090001F004600460044008070000022004D0012
:1000A0004D004A00004B00003600750075007200DC
:1000B000403800004A009C009C0099008025000008
:1000C0007200EC00EC00E900C0120000E900DA0167
:1000D000DA01D70160090000D701B603B603B30304
:1000E000B0040000B3036E076E076B0758020000F0
:1000F0006E07DC0EDC0ED80E2C010000DC0EC11DDC
:10010000C11DBE1D0200000000240027002A0000BF
:1001100000000800020100000304070000000000C6
:10012000000000000000002300260029000000005D
:1001300000250028002B0004040404040404040225
:100140000202020202030303030303010204081074
:100150002040800102040810200102040810200041
:100160003818AF1F11241FBECFEFD8E0DEBFCDBFC0
:1001700028E0A4E8B6E001C01D92A632B207E1F77C
:1001800016E0A0E0B1E0EEE9F9E402C005900D92BE
:10019000A438B107D9F710E0C1EBD0E004C0219733
:1001A000FE010E94C122C03BD107C9F70E942A1953
:1001B0000C94C2240C940000833081F028F4813028
:1001C00099F08230A9F008958730A9F08830C9F0FD
:1001D0008430B1F4809180008F7D03C080918000D5
:1001E0008F7780938000089584B58F7784BD0895BC
:1001F00084B58F7DFBCF8091B0008F778093B00066
:1002000008958091B0008F7DF9CFCF93DF93282F91
:1002100030E0F901E15FFE4F8491F901E55BFE4FAB
:10022000D491F901E95CFE4FC491CC23A1F0811176
:100230000E94DC00EC2FF0E0EE0FFF1FED5DFE4FA3
:10024000A591B491EC91ED2381E090E009F480E078
:10025000DF91CF91089580E090E0FACF1F93CF9384
:10026000DF93282F30E0F901E15FFE4F8491F9011F
:10027000E55BFE4FD491F901E95CFE4FC491CC23BC
:10028000A9F0162F81110E94DC00EC2FF0E0EE0F98
:10029000FF1FE35DFE4FA591B4918FB7F894EC91E9
:1002A000111108C0D095DE23DC938FBFDF91CF9171
:1002B0001F910895DE2BF8CFCF93DF9390E0FC01E0
:1002C000E55BFE4F2491895C9E4FFC01849188235D
:1002D000C9F090E0880F991FFC01EB5FFE4FA591DC
:1002E000B491FC01E35DFE4FC591D49161110DC045
:1002F0009FB7F8948C91209582238C938881282332
:1003000028839FBFDF91CF910895623051F49FB74A
:10031000F8943C91822F809583238C93E8812E2B37
:10032000EFCF8FB7F894EC912E2B2C938FBFEACFA1
:100330000F931F93CF93DF9307EF17E061E0F8016E
:1003400081810E945C01C3ECD0E0CE010197F1F7FE
:1003500060E0F80180810E945C01CE010197F1F715
:1003600060E0F80181810E945C012197F1F7DF9143
:10037000CF911F910F910895EF92FF920F931F93CA
:10038000CF93DF93082F18E0C3ECD0E061E08091B9
:10039000F7070E945C01CE010197F1F7E02EF12CE6
:1003A00060E000FF61E08091F8070E945C01CE01EF
:1003B0000197F1F760E08091F7070E945C01CE01A0
:1003C0000197F1F7F594E7940E2D1150F9F661E0DD
:1003D0008091F7070E945C0160E08091F8070E941D
:1003E0005C01CE010197F1F760E08091F7070E9470
:1003F0005C012197F1F78091F8070E940501182F01
:10040000811105C061E08091F8070E945C01C3EC96
:10041000D0E0CE010197F1F761E08091F7070E94EB
:100420005C012197F1F781E0111101C080E0DF91BB
:10043000CF911F910F91FF90EF90089561E080910F
:10044000F8070E945C0183EC90E00197F1F70895B2
:100450000F931F93CF93DF938C010E941E0280E4C1
:100460000E94BC010E9498010E941E0280EC0E9422
:10047000BC01E8010C5F1F4F89910E94BC01C017AD
:10048000D107D1F70E9498010E941E028091F907BE
:100490008F7080580E94BC01DF91CF911F910F9106
:1004A0000C9498018E50806480937C0080917A0037
:1004B000806480937A0080917A0086FDFCCF8091E1
:1004C00078009091790008953FB7F894809156078D
:1004D00090915707A0915807B091590726B5A89B4E
:1004E00005C02F3F19F00196A11DB11D3FBFBA2FC6
:1004F000A92F982F8827BC01CD01620F711D811D86
:10050000911D42E0660F771F881F991F4A95D1F70A
:1005100008958F929F92AF92BF92CF92DF92EF9207
:10052000FF924B015C010E9464026B017C010E94FE
:1005300064026C197D098E099F09683E734081052C
:100540009105A8F321E0821A9108A108B10888EE6C
:10055000C80E83E0D81EE11CF11C81149104A10493
:10056000B10429F7FF90EF90DF90CF90BF90AF904C
:100570009F908F9008952FB7F894609152077091D3
:10058000530780915407909155072FBF0895AF925C
:10059000BF92CF92DF92EF92FF920F931F93CF9370
:1005A000DF936C017B018B01040F151FEB015E01D2
:1005B000AE18BF08C017D10759F06991D601ED9167
:1005C000FC910190F081E02DC6010995892B79F706
:1005D000C501DF91CF911F910F91FF90EF90DF90B8
:1005E000CF90BF90AF900895FC01538D448D252F7F
:1005F00030E0842F90E0821B930B541710F0CF96BD
:10060000089501970895FC01918D828D981761F0EE
:10061000A28DAE0FBF2FB11D5D968C91928D9F5F05
:100620009F73928F90E008958FEF9FEF0895FC01E4
:10063000918D828D981731F0828DE80FF11D858D97
:1006400090E008958FEF9FEF0895FC01918D228D2A
:10065000892F90E0805C9F4F821B91098F739927AF
:1006600008958AE597E00E94250321E0892B09F48B
:1006700020E0822F089580E090E0892B29F00E94ED
:10068000310381110C9400000895FC01A48DA80F82
:10069000B92FB11DA35ABF4F2C91848D90E00196C4
:1006A0008F739927848FA689B7892C93A089B189E4
:1006B0008C91837080648C93938D848D981306C085
:1006C0000288F389E02D80818F7D80830895EF92E9
:1006D000FF920F931F93CF93DF93EC0181E0888FFC
:1006E0009B8D8C8D98131AC0E889F989808185FFCC
:1006F00015C09FB7F894EE89FF896083E889F9896E
:1007000080818370806480839FBF81E090E0DF916F
:10071000CF911F910F91FF90EF900895F62E0B8DC2
:1007200010E00F5F1F4F0F731127E02E8C8D8E117D
:100730000CC00FB607FCFACFE889F989808185FFE4
:10074000F5CFCE010E944503F1CFEB8DEC0FFD2FCD
:10075000F11DE35AFF4FF0829FB7F8940B8FEA899F
:10076000FB8980818062CFCFCF93DF93EC01888DAE
:100770008823B9F0AA89BB89E889F9898C9185FD1C
:1007800003C0808186FD0DC00FB607FCF7CF8C91AA
:1007900085FFF2CF808185FFEDCFCE010E9445031A
:1007A000E9CFDF91CF910895DC015196ED91FC9155
:1007B0005297908150968C918095892380830895DB
:1007C00020912707309128072817390781F4909145
:1007D000250780912607981751F0E0912507F0E052
:1007E000EB51F94F8081082E000C990B08958FEF83
:1007F0009FEF089520912707309128072817390780
:1008000039F48FB7F89410922607109225078FBFFE
:10081000089520912707309128072817390771F488
:10082000809126072091250790E0805C9F4F821BD6
:10083000910960E470E00E946C22089590E080E0ED
:100840000895209127073091280728173907B9F410
:100850009091250780912607981789F0E091250748
:10086000F0E0EB51F94F80812091250730E02F5FB8
:100870003F4F2F7333272093250790E008958FEF84
:100880009FEF089520E001972FEF8F3F9207D9F750
:10089000089590E080E008954F925F926F927F926A
:1008A000AF92BF92CF92DF92EF92FF920F931F937E
:1008B000CF932091E406211109C05B018C01809146
:1008C0000401813189F08F3F09F46AC0CF911F91F3
:1008D0000F91FF90EF90DF90CF90BF90AF907F90FF
:1008E0006F905F904F900895E4E0F1E0C491C7FDF0
:1008F000EDCF61E081E10E945C01CC2319F0C230B0
:1009000009F04AC12801712C612C60E472E48FE087
:1009100090E0A30198010E94A22269017A0181E07E
:10092000C81AD108E108F108C23009F0A8C09FEF49
:10093000C916D104E104F10409F00CF469C160E9BD
:1009400070ED83E090E0A30198010E94A22269016A
:100950007A0181E0C81AD108E108F10883E09FEF2D
:10096000C916D104E104F10409F00CF40EC168E4E5
:1009700078EE81E090E0A30198010E94A222690133
:100980007A0191E0C91AD108E108F1088FEFC81681
:10099000D104E104F10411F00CF0CBC084E0F5C007
:1009A00081E180930401E4E0F1E0C491CF3F09F4D8
:1009B0008DCFC13021F150F0C23009F43EC0C7FDE7
:1009C00085CF61E081E10E945C0199CF14BC15BC28
:1009D00084B5826084BD85B5816085BDE8E4F1E0C1
:1009E000E491F0E0EE0FFF1FE35DFE4F85919491DF
:1009F000ECE5F1E0E491E093DB06C0E07ACF109201
:100A00008000109281008091810088608093810035
:100A100080918100816080938100E8E4F1E0E491BD
:100A2000F0E0EE0FFF1FE35DFE4F85919491ECE542
:100A3000F1E0E491E093DA065CCF1092B0001092FE
:100A4000B1008091B00082608093B0008091B100CD
:100A500081608093B100E8E4F1E0E491F0E0EE0F12
:100A6000FF1FE35DFE4F8591949190934B07809318
:100A70004A07ECE5F1E0E491E0934C073ACF8FEFC1
:100A8000C816D104E104F10409F00CF47AC068E45A
:100A900078EE81E090E0A30198010E94A222690112
:100AA0007A0191E0C91AD108E108F10884E0C11186
:100AB00050C083E09FEFC916D104E104F10489F02E
:100AC00084F062E17AE780E090E0A30192010E9465
:100AD000A22269017A0191E0C91AD108E108F1085E
:100AE00084E095B5987F892B85BDC0E09801220FE1
:100AF000331FD5010E94A32128EE33E040E050E0EF
:100B00000E948022C13009F461C0C23009F470C073
:100B1000C111DCCEC7BC2093E0063093E1064093C0
:100B2000E2065093E30680916E00826080936E002F
:100B3000CDCE64E274EF80E090E0A30192010E94C8
:100B4000A22269017A0181E0C81AD108E108F108FE
:100B500085E09FEFC916D104E104F10499F090F00B
:100B600062E17AE780E090E0A30192010E94A22274
:100B700069017A0181E0C81AD108E108F10886E02C
:100B800004C082E0CC2309F4ACCF9091B100987FEF
:100B9000892B8093B100AACF980150E040E060E03B
:100BA00072E18AE790E00E94A22269017A0181E065
:100BB000C81AD108E108F108C13009F097CF809137
:100BC0008100887F81608093810090CFD0928900DE
:100BD000C09288002093DC063093DD064093DE0649
:100BE0005093DF0680916F00826080936F006ECE1D
:100BF000C092B30020934D0730934E0740934F07A8
:100C000050935007809170008260809370005ECE98
:100C100082E0BBCFCF93DF9300D000D0CDB7DEB75B
:100C200089836A834B832C83CE0101960E9428021C
:100C30000F900F900F900F90DF91CF9108952F920A
:100C40003F924F925F926F927F928F929F92AF925C
:100C5000BF92CF92DF92EF92FF920F931F93CF93A9
:100C6000DF93CDB7DEB728970FB6F894DEBF0FBE7F
:100C7000CDBF4B015C0128EE33E040E050E00E9424
:100C800080222D833E834F83588710E1811617E21F
:100C90009106A104B10408F071C0CD80DE80C501C9
:100CA000B40124E630E040E050E00E9480222901B7
:100CB0002AE02C9DC0012D9D900D11247201E81A8F
:100CC000F90AC501B4012AE030E040E050E00E949A
:100CD0008022E6EF1E2FB20116031001179F300C81
:100CE0001124220E331E1203C001139F900D1124F4
:100CF0009C01280D391DEC2DEF70F0E0E55FFE4FF3
:100D000080818983EE2DEF70F0E0E55FFE4F8081FA
:100D1000022D0F70E02FF0E0E55FFE4F90819B8386
:100D20002F70E22FF0E0E55FFE4F90819C8320E181
:100D3000821627E29206A104B10408F080C08F77E2
:100D40008A83CE0101960E94280228960FB6F89455
:100D5000DEBF0FBECDBFDF91CF911F910F91FF90EE
:100D6000EF90DF90CF90BF90AF909F908F907F904B
:100D70006F905F904F903F902F900895D501C401E0
:100D800080519742A109B1098035934CA105B10565
:100D9000C8F5C501B40120E137E240E050E00E940F
:100DA0008022690166EF62037001639FF00C1124D9
:100DB0008D819E81E80EF91EC501B40124E630E064
:100DC00040E050E00E948022290146EF2D813E81C3
:100DD00042038001439F100D11241801240C351C7F
:100DE000C501B4012AE030E040E050E00E948022DA
:100DF00016EFB2011603C001179F900D1124280FA2
:100E0000391F79CF2D813E81C90168E572E00E94CA
:100E100058226B01C9016CE370E00E9458224AE03D
:100E20004C9D90014D9D300D11247B01E21AF30A77
:100E30006AE070E00E9458221B019C015CCF806830
:100E40007FCFCF93DF9300D000D0CDB7DEB7E82FB0
:100E5000392F68EE73E00E945822F62F8E2F932FC1
:100E600060E177E20E94582226EFAF2F269FA00D67
:100E70001124AF70B0E0A55FBE4F8C9189838E2F97
:100E8000932F64E670E00E945822462FA62F2F9FD2
:100E9000A00D1124AF70B0E0A55FBE4F8C918A8386
:100EA0008E2F932F6AE070E00E945822A62F249F75
:100EB000A00D1124AF70B0E0A55FBE4F8C918B8365
:100EC000269FE00D1124EF70F0E0E55FFE4F80817A
:100ED0008C83CE0101960E9428020F900F900F90F4
:100EE0000F90DF91CF910895CF93DF9300D000D082
:100EF000CDB7DEB7E82F392F81E389838E2F64E6E3
:100F000070E00E945822462F8E2F932F68EE73E0D8
:100F10000E94582226EFA42F269FA00D1124AF7007
:100F2000B0E0A55FBE4F8C918A838E2F932F6AE02D
:100F300070E00E945822A62F249FA00D1124AF70AC
:100F4000B0E0A55FBE4F8C918B83269FE00D1124EE
:100F5000EF70F0E0E55FFE4F80818C83CE0101965B
:100F60000E9428020F900F900F900F90DF91CF9169
:100F70000895DF92EF92FF920F931F93CF93DF9329
:100F8000EC01898D9A8D892B71F481E090E09B832F
:100F90008A8390E080E0DF91CF911F910F91FF90C5
:100FA000EF90DF900895162FDFB6F8948B8D81FDBA
:100FB00029C0CE010E94D403898D9A8D05960E9486
:100FC00042048B8D98E0E92EF12C01E081FF28C0CE
:100FD000812F8023F1F0CE010E94D403898D9A8D58
:100FE0000E944204000F81E0E81AF10889F7CE015F
:100FF0000E94D403DFBE898D9A8D0E94420481E055
:1010000090E0C9CFE989FA8980819889892B80830A
:10101000D3CFE989FA8980819889892B8083DECFB3
:10102000812F8023B1F0E989FA8980819889892B01
:101030008083898D9A8D0E944204000F81E0E81A16
:10104000F10871F7E989FA8980819889892B808371
:10105000D1CFCE010E94D403ECCFFB010190002040
:10106000E9F73197AF01461B570BDC01ED91FC917D
:101070000280F381E02D09948F929F92AF92BF92EC
:10108000EF92FF920F931F93CF93DF93CDB7DEB70D
:10109000A1970FB6F894DEBF0FBECDBF7C01FA0159
:1010A000CB0119A2223008F42AE08E010F5D1F4FF8
:1010B000822E912CB12CA12CBF01A50194010E947C
:1010C0008022F901CA016A300CF5605DD8016E9387
:1010D0008D01232B242B252B79F790E080E01097AE
:1010E00021F0BD01C7010E942D08A1960FB6F8940A
:1010F000DEBF0FBECDBFDF91CF911F910F91FF904B
:10110000EF90BF90AF909F908F900895695CDECF75
:10111000CF92DF92EF92FF920F931F93CF93DF93C3
:1011200077FF21C06A017B01EC01E881F981019020
:10113000F081E02D6DE209958C0144275527BA0115
:101140004C195D096E097F092AE0CE010E943C0816
:10115000800F911FDF91CF911F910F91FF90EF9022
:10116000DF90CF9008952AE0DF91CF911F910F91EA
:10117000FF90EF90DF90CF900C943C08CF92DF92DD
:10118000EF92FF926C01990FEE08FF08B701A601DC
:101190008AE597E00E948808B701A6018AEF97E0E8
:1011A000FF90EF90DF90CF900C948808CF92DF9261
:1011B000EF92FF92C82ED12CF12CE12CB701A601A1
:1011C0008AE597E00E948808B701A6018AEF97E0B8
:1011D0000E948808FF90EF90DF90CF900895CF9203
:1011E000DF92EF92FF92C82ED12CF12CE12C2AE055
:1011F000B701A6018AE597E00E943C082AE0B70102
:10120000A6018AEF97E00E943C08FF90EF90DF90E4
:10121000CF900895CF92DF92EF92FF926C01F12C64
:10122000E12C2AE0B701AC018AE597E00E943C0876
:101230002AE0B701A6018AEF97E0FF90EF90DF90D8
:10124000CF900C943C08CF93DF93EC01BC018AE56E
:1012500097E00E942D08BE018AEF97E0DF91CF91C1
:101260000C942D082F923F924F925F926F927F9233
:101270008F929F92AF92BF92CF92DF92EF92FF92A6
:101280000F931F93CF934B015C0128EE33E040E0B6
:1012900050E00E9480222901C501B40120E63AEE07
:1012A00040E050E00E948022690128EE33E0249D56
:1012B000C001259D900D349D900D11248401081BC3
:1012C000190BCCE3CC9DC001CD9D900D11241201D2
:1012D000281A390AC501B40120E83EEE46E350E081
:1012E0000E948022C29FC001C39F900D1124C81A82
:1012F000D90A8AE0C816D10408F440C085EF92E00C
:101300000E942309C6010E940A0988EF91E00E9409
:1013100023098AE028163104A0F185EF92E00E94AB
:101320002309C1010E940A0983E691E00E94230972
:1013300085EF92E00A30110510F481E691E00E94F9
:10134000230985EF92E00436110510F481E691E05F
:101350000E942309C801CF911F910F91FF90EF9038
:10136000DF90CF90BF90AF909F908F907F906F90C5
:101370005F904F903F902F900C940A0981E691E086
:10138000BFCF81E691E0CBCF909303018093020120
:1013900080910201909103010E94740785E691E01B
:1013A0000E94230980910201909103010E940A0981
:1013B00084EF92E00C94230980911C0890911D0801
:1013C000009711F00C94EB1F60E070E0CB010895E2
:1013D000FC0124813581232B31F421E0FB01672BB3
:1013E00049F4822F0895808191816115710539F446
:1013F00021E0FC0180818823A1F320E0F2CF0E944C
:10140000B22421E0892B69F3F8CF0F931F93CF9378
:10141000DF93EC0188819981009759F02A813B8103
:101420002617370730F081E0DF91CF911F910F91A0
:1014300008958B016F5F7F4F0E94EC23009759F056
:10144000998388831B830A832C813D81232B59F741
:10145000FC011082E8CF80E0E7CFEF92FF920F937C
:101460001F93CF93DF93EC017B018A01BA010E94A5
:10147000050A28813981811114C02115310519F01F
:10148000C9010E946323198218821D821C821B825B
:101490001A82CE01DF91CF911F910F91FF90EF90B3
:1014A00008951D830C83B701C9010E94BB24F1CFAD
:1014B00050E040E065EF72E00C942D0A0F931F930B
:1014C000CF93DF938C01EB010E944B218883C801ED
:1014D00001960E944B218983CE01DF91CF911F910C
:1014E0000F91089582E090E00E944B218093D906ED
:1014F00084EB91E00E9423098091D9060E94D608CE
:1015000084EF92E00E94230983E090E00E944B2147
:1015100080932A0781E791E00E94230980912A079E
:101520000E94EF0884EF92E00E9423091092D806EF
:1015300087E092E00E9423098091D8060E94EF087C
:1015400084EF92E00E94230960E377E085E090E079
:101550000E945E0AFC018081918190933107809303
:1015600030078FE791E00E94230980913007909126
:1015700031070E940A0984EF92E00E9423096CE27D
:1015800077E087E090E00E945E0AFC018081918113
:1015900090932D0780932C078DE492E00E942309FD
:1015A00080912C0790912D070E940A0984EF92E008
:1015B0000E94230966ED76E089E090E00E945E0AD1
:1015C000FC01808191819093D7068093D6068BE2AF
:1015D00092E00E9423098091D6069091D7060E943E
:1015E0000A0984EF92E00E9423098BE090E00E94B8
:1015F0004B218093E40683EA92E00E9423098091C4
:10160000E4060E94D60884EF92E00E94230964ED6C
:1016100076E08CE090E00E945E0AFC01808191817E
:101620009093D5068093D4068BE792E00E9423091D
:101630008091D4069091D5060E940A0984EF92E029
:101640000E94230984EF92E00C942309CF92DF9249
:10165000EF92FF920F931F93CF93DF93CDB7DEB737
:101660002C970FB6F894DEBF0FBECDBF26E0289FA3
:101670007001299FF00C11248701005E1F4F6E013D
:1016800087E0C80ED11CE6E2EE0EF11CC8010E94F4
:101690004B21F60181936F010F5F1F4FE016F1069A
:1016A000A9F786E0FE013796DE01119601900D92B2
:1016B0008A95E1F729813A814B815C816D817E8138
:1016C00080E090E02C960FB6F894DEBF0FBECDBF41
:1016D000DF91CF911F910F91FF90EF90DF90CF900E
:1016E0000895CF92DF92EF92FF920F931F93CF93C3
:1016F000DF93CDB7DEB728970FB6F894DEBF0FBEE5
:10170000CDBF6C01BE01695F7F4F90E080E00E9419
:101710005E0AFC018081918198878F83892BA9F1D2
:10172000F12CE12C10E000E08F81988506978E1552
:101730009F0558F1C8010E94260B29833A834B83E9
:101740005C836D837E8389819A81C114D10419F0F1
:10175000C816D90681F40E940A098CE095E00E941F
:1017600023096B817C818D819E810E94320984EFE7
:1017700092E00E942309F6E0EF0EF11C083E83E0A0
:10178000180719F00F5F1F4FCFCF28960FB6F894A8
:10179000DEBF0FBECDBFDF91CF911F910F91FF90A4
:1017A000EF90DF90CF900895FF920F931F93CF9308
:1017B000DF93EC01F62E08811981C8010E944B21AC
:1017C000F81621F06F2DC8010E945321CE01DF9140
:1017D000CF911F910F91FF900895EF92FF920F9379
:1017E0001F93CF93DF9300D0CDB7DEB78C017B0181
:1017F0009A838983FB016081CE0101960E94D40BFC
:101800000F5F1F4F1A830983F7016181CE01019693
:101810000E94D40BC7010F900F90DF91CF911F91C1
:101820000F91FF90EF9008950F931F93CF93DF9345
:1018300000D0CDB7DEB78B019A838983FB0160812D
:10184000CE0101960E94D40BC8010F900F90DF913A
:10185000CF911F910F9108953F924F925F926F9297
:101860007F928F929F92AF92BF92CF92DF92EF9230
:10187000FF920F931F93CF93DF93CDB7DEB72A97D5
:101880000FB6F894DEBF0FBECDBF182F2A013B0163
:101890008111EBC00E94BB02C0909B06D0909C06B9
:1018A000E0909D06F0909E066C197D098E099F09B7
:1018B000623371058105910508F4C5C080E10E947D
:1018C00005015C0188248394892B09F0812C82E036
:1018D0000E9405016C0133243394892B09F0312CCB
:1018E00083E00E9405017C0101E0892B09F000E002
:1018F000982C9328902AB1F08091970690919806A1
:10190000A0919906B0919A06892B8A2B8B2B51F4C2
:101910000E94BB0260939706709398068093990685
:1019200090939A06AB28C1F080919606882339F1EE
:10193000809296060E94BB0260939B0670939C0661
:1019400080939D0690939E0611E06AE070E08CE81B
:1019500090E00E944C048FC00E94BB022091970629
:10196000309198064091990650919A06621B730B2C
:10197000840B950B693E734081059105D8F68092E2
:101980009606CD28C1F080919506882339F1009301
:1019900095060E94BB0260939B0670939C06809301
:1019A0009D0690939E0664E170E080E991E00E94BC
:1019B0004C0412E048C00E94BB022091970630916F
:1019C00098064091990650919A06621B730B840BFE
:1019D000950B693E734081059105D8F630929506C6
:1019E000EF2891F080919406882309F100939406E2
:1019F0000E94BB0260939B0670939C0680939D0699
:101A000090939E0613E0A1CF0E94BB02C090970660
:101A1000D0909806E0909906F0909A066C197D098E
:101A20008E099F09693E73408105910508F700936F
:101A30009406911008C01092970610929806109282
:101A4000990610929A06809146078111F4C58091FB
:101A500045071130A9F490914407911123C08111D9
:101A60000DC080E1809345071DC0813009F46DCF22
:101A7000833009F46ACF123031F795CF8150F2CF1D
:101A80001230F9F490914607913061F09091460739
:101A9000911102C0813031F08091440791E0892793
:101AA0008093440700914507011188C08091440745
:101AB000811114C029E749E367E781E30E940A0620
:101AC00031C1133079F7909144079111EBCF8031F8
:101AD00018F010924507E6CF8F5FC4CF80910201C6
:101AE000909103010E947407113001F58091020169
:101AF000909103010297A0F080910201909103015F
:101B000001979093030180930201809102019091CB
:101B100003010E94C40980914407882309F435C158
:101B2000809145078F7E09F030C180C5133069F47C
:101B30008091020190910301873E934088F7809144
:101B40000201909103010196DCCF143061F581E030
:101B5000809346070E94BB026093CC067093CD062B
:101B60008093CE069093CF061092C8061092C906B5
:101B70001092CA061092CB061092C7061092C606A3
:101B80006CE271E08AE593E20E944C0486E991E000
:101B90000E94230980910201909103010E940A0989
:101BA0008AE991E025C21A3009F04CC14114510470
:101BB0006104710409F4B4CFC201ABCF013009F064
:101BC0009AC08091440781110EC028E748E36DE672
:101BD00081E30E940A06123009F0A4C00093440772
:101BE0001092C50698CFBE01695F7F4F90E080E0FC
:101BF0000E945E0AFC018081918198878F83009703
:101C000021F52FE347E368E088E00E940A061230DE
:101C100021F41092C506109244072A960FB6F89444
:101C2000DEBF0FBECDBFDF91CF911F910F91FF900F
:101C3000EF90DF90CF90BF90AF909F908F907F906C
:101C40006F905F904F903F90089566E070E00E9423
:101C500058226150710980910001909101018F30EB
:101C6000974221F47093010160930001809100017B
:101C700090910101113039F50097F9F47093010149
:101C80006093000180910001909101010E94260B58
:101C900029833A834B835C836D837E838091C50661
:101CA00081111DC089819A810E947407123009F048
:101CB000B6C081E08093C5062ECF019790930101B5
:101CC00080930001DFCF1330E9F68617970728F0DD
:101CD0001092010110920001D5CF0196EFCF8B81B8
:101CE0009C810E947407123009F099C01092C506B9
:101CF0001092440710CF0230C9F48091440781113B
:101D000005C026E74DE668E381E7D8CE90E080E0A5
:101D10000E94710B64EF71E080E090E00E94890204
:101D200010924407112309F478CF2FC0033079F5BE
:101D300080914407811105C028E041E368E389E30D
:101D4000BDCE24E548E068E08EE60E940A06113028
:101D500079F2133009F076C01A821982BE016F5FE2
:101D60007F4F90E080E00E94ED0B83EA91E00E94BB
:101D7000230984EF92E00E94230964EF71E080E080
:101D800090E00E9489021092440760E050C4043041
:101D900009F049C08091440729E74CE167E78823AF
:101DA00009F439C4912F9D7F9130F1F48091D906C7
:101DB00089278093D90669ED76E082E090E00E9461
:101DC000140C1C30F9F481E045284628472809F412
:101DD00080E08093D90669ED76E082E090E00E9491
:101DE000140C83EC91E004C083EB91E01B3049F7C5
:101DF0000E9423098091D9060E94D60884EF92E0C0
:101E00000E9423098091D9062DE649E76EE68111EB
:101E100003C02FE347E368E088E00E940A0611232D
:101E200009F4FBCE78CE053089F480914407811106
:101E300005C02DE347E360E183E740CE90E080E01A
:101E40000E942107112309F4E8CE6ACE063049F436
:101E5000809144078111F2CF28E74DE66FE388E3D4
:101E60002DCE073009F05EC080914407811105C076
:101E700028E74DE669E788E721CE0E94BB02C090C3
:101E8000C106D090C206E090C306F090C4066C195B
:101E90007D098E099F096D3271408105910598F089
:101EA0008091BF069091C00601969093C0068093E2
:101EB000BF060E94BB026093C1067093C206809366
:101EC000C3069093C406153011F54092BB0650929C
:101ED000BC066092BD067092BE0687ED91E00E943E
:101EE00023098CE095E00E9423092AE0B301A201B6
:101EF0008AE597E00E943C082AE0B301A2018AEF3C
:101F000097E00E943C0884EF92E00E9423096091D0
:101F1000BB067091BC068091BD069091BE060E94E2
:101F20001F067DCF083009F0C8C080914407811199
:101F300005C021E348E767E78FE7C0CD209132076E
:101F4000309133074091340750913507A8EEB3E044
:101F50000E9461210E942C202CEB3CE644EA5BE3CA
:101F60000E948D200E941F22CB010E942107143164
:101F700009F068CF89EE91E00E9423098CE095E09A
:101F80000E942309609132077091330780913407D2
:101F9000909135070E942C202CEB3CE644EA5BE351
:101FA0000E948D206B017C01AC019B010E94532299
:101FB0006AEF71E0811116C02FEF3FEF4FE75FE747
:101FC000C701B6010E945322811115C02FEF3FEFC8
:101FD0004FE75FE7C701B6010E94272018165CF49F
:101FE0006EEF71E08AEF97E00E942D0884EF92E097
:101FF0000E94230990CD2FEF3FEF4FE75FE4C70129
:10200000B6010E944E2218161CF462E072E0EACF7C
:102010002FEF3FEF4FE75FECC701B6010E9427208B
:1020200087FDF3CF2EE632E143E05AE3C701B60164
:102030000E94B3216B017C010E941F224B015C01B5
:102040000E942C209B01AC01C701B6010E94B22165
:102050006B017C012AE0B501A4018AEF97E00E94A0
:102060003C086EE28AEF97E00E94B90714E0115035
:1020700009F4BCCF20E030E040E251E4C701B601F2
:102080000E948D204B015C010E941F226B01F12CEC
:10209000E12C2AE0B701A6018AEF97E00E943C08F4
:1020A000C701B6010E942C209B01AC01C501B401FF
:1020B0000E94B2216B017C01DACF093089F5809151
:1020C00044072DE647E369E7882309F4A4C2809119
:1020D0002A071130B1F4811112C081E080932A07E0
:1020E0006AE277E083E090E00E94201880912A075E
:1020F00081110EC028E340E167E781E78ECE815071
:10210000EDCF133099F7882341F310922A07E8CFD7
:10211000813009F084CE29E74DE660E181E37DCE90
:102120000A3009F04EC080914407811105C029E7AB
:102130004FE36FE384E5C2CC812F8D7F8130C9F4FA
:102140009091D806911180E08093D80668ED76E0F2
:1021500084E090E00E9420181E3009F54092D806D5
:1021600068ED76E084E090E00E9420188EE192E035
:1021700004C01D3089F786E092E00E942309809117
:10218000D8060E94EF088091D806811117C08EE012
:1021900092E00E94230984EF92E00E94230980913B
:1021A000D8062DE643E767E7882331F0813009F050
:1021B00036CE29E747E360E188E32FCE86E192E05F
:1021C000E8CF0B3009F079C080914407811132C00B
:1021D00027E343E767E788E30E940A06123009F520
:1021E0008091B9069091BA062091D6063091D70613
:1021F00082179307B1F09093D7068093D60666EDC9
:1022000076E089E090E00E94ED0B64E670E088EBF8
:102210009BE00E944C0466E970E080E090E00E9440
:1022200089028091D6069091D7069093BA06809342
:10223000B906F5CD8091B9069091BA06113001F535
:10224000009729F001979093BA068093B906809180
:10225000B9069091BA060E9421071F30C1F48091FF
:10226000D6069091D7060E9421078AE292E00E944A
:1022700023098091D6069091D7060E940A09B6CE0E
:10228000133029F78F3F910510F70196DCCF1031FD
:1022900009F0D8CD5092D7064092D60666ED76E08A
:1022A00089E090E00E94ED0B8091D6069091D706D0
:1022B0000E94210789E392E0DACF0C3009F052C086
:1022C00080914407811132C02DE34EE367E78DE62C
:1022D0000E940A06123009F58091B7069091B8065F
:1022E000209130073091310782179307B1F0909316
:1022F00031078093300760E377E085E090E00E944B
:10230000ED0B64E670E088EB9BE00E944C0466E90C
:1023100070E080E090E00E94890280913007909107
:1023200031079093B8068093B70679CD8091B706B0
:102330009091B806113079F48330910528F0019717
:102340009093B8068093B7068091B7069091B8062F
:102350000E942107E7CC1330B9F78F3F9105A0F712
:102360000196EECF0D3009F08CC0809144078111A9
:1023700046C028E34CE168E38DE60E940A0612306D
:1023800009F58091B5069091B60620912C07309101
:102390002D0782179307B1F090932D0780932C0798
:1023A0006CE277E087E090E00E94ED0B64E670E07D
:1023B00088EB9BE00E944C0466E970E080E090E0CE
:1023C0000E94890280912C0790912D079093B60668
:1023D0008093B506133071F58091B5069091B606DD
:1023E0008F3F910528F401969093B6068093B50629
:1023F0008091B5069091B6060E9421078CCB809102
:10240000B5069091B606113071F4009729F0019746
:102410009093B6068093B5068091B5069091B60666
:102420000E942107D7CF1330B9F78F3F9105A0F74E
:102430000196EECF113179F480912C0790912D0700
:102440000E9421078CE492E00E94230980912C07CE
:1024500090912D0712CF123109F0E1CC50922D0747
:1024600040922C076CE277E087E090E00E94ED0B51
:1024700080912C0790912D070E94210781E692E020
:10248000E3CF0E3009F080C08091440781113DC038
:1024900028E744E568E78DE60E940A06123009F550
:1024A0008091B3069091B4062091D4063091D50660
:1024B00082179307B1F09093D5068093D40664ED0C
:1024C00076E08CE090E00E94ED0B64E670E088EB33
:1024D0009BE00E944C0466E970E080E090E00E947E
:1024E00089028091D4069091D5069093B40680938A
:1024F000B306133011F58091B3069091B40601969E
:102500009093B4068093B30677CF8091B3069091F1
:10251000B406113071F4009729F001979093B40636
:102520008093B3068091B3069091B4060E94210770
:10253000E0CF1330B9F70196F1CF173179F48091DC
:10254000D4069091D5060E9421078AE792E00E9466
:1025500023098091D4069091D5068FCE183109F0C9
:102560005ECC5092D5064092D40664ED76E08CE0C5
:1025700090E00E94ED0B8091D4069091D5060E94C8
:1025800021078CE892E0E3CF0F30D9F58091440722
:1025900029E748E76EE3882309F4CCCD912F9D7F8E
:1025A0009130F1F48091E40689278093E40664EE8B
:1025B00076E08BE090E00E94140C1631F9F481E093
:1025C00045284628472809F480E08093E40664EE15
:1025D00076E08BE090E00E94140C8AEA92E004C05E
:1025E00082EA92E0153149F70E9423098091E406BE
:1025F0000E94D60884EF92E00E9423098091E406AD
:1026000003CC003109F00BCC80914407811105C047
:1026100028E347E769E38DE651CA80912E07909140
:102620002F070E942107112309F4F7CA61E086E011
:102630000E942E01F2CA80914607813009F0A0C2A3
:10264000123019F0183209F067C086EB92E00E9450
:10265000230980910201909103010E940A0984EFED
:1026600092E00E94230928E349E367E389E30E949B
:102670000A061092C8061092C9061092CA06109255
:10268000CB061092C7061092C6061092AF061092A3
:10269000B0061092B1061092B20668EC70E088EBBA
:1026A0009BE00E944C046AEF70E080E090E00E94A2
:1026B000890268EC70E088EB9BE00E944C046AEFB2
:1026C00070E080E090E00E9489021092460710922C
:1026D00044070E94BB02C090AB06D090AC06E090CD
:1026E000AD06F090AE066C197D098E099F09683E13
:1026F00073408105910508F492CB0E94BB02C09003
:10270000CC06D090CD06E090CE06F090CF066C19A6
:102710007D098E099F0903CC1430D9F68091D80623
:102720008111D7CF68E270E080EA9FE00E944C04FC
:102730006CE370E080E090E00E94890268E270E063
:1027400080EA9FE00E944C040E94BB026093AB06AB
:102750007093AC068093AD069093AE06E090C606EB
:10276000F090C7068FEFE81AF80AF092C706E092D9
:10277000C6060E94BB024090CC065090CD066090E9
:10278000CE067090CF066419750986099709809066
:10279000AF069090B006A090B106B090B20668194E
:1027A00079098A099B096093A7067093A80680930C
:1027B000A9069093AA060E94BB02641975098609AE
:1027C00097096093AF067093B0068093B10690931B
:1027D000B206C7010E94210784EC92E00E942309FF
:1027E0008091C6069091C7060E940A098AEB93E081
:1027F0000E9423096091AF067091B0068091B106E6
:102800009091B2060E9432098CE095E00E94230963
:102810006091A7067091A8068091A9069091AA06DA
:102820000E9432094091A3065091A4066091A5062A
:102830007091A6068091A7069091A806A091A9067E
:10284000B091AA06411551056105710509F0FEC058
:1028500020910201309103018093A3069093A40676
:10286000A093A506B093A6062091C6063091C70690
:102870008091D6069091D7062817390708F429CFFA
:102880008091AF069091B006A091B106B091B206CA
:102890008093C8069093C906A093CA06B093CB064E
:1028A0008CED92E00E9423098CE095E00E942309C0
:1028B00080910201909103010E940A098AEB93E042
:1028C0000E9423096091C8067091C9068091CA06CA
:1028D0009091CB060E9432091092C7061092C6064C
:1028E000C090C806D090C906E090CA06F090CB060A
:1028F000C701B6010E941F0664E670E088EB9BE00A
:102900000E944C0466E970E080E090E00E94890239
:1029100064E670E088EB9BE00E944C0466E970E09E
:1029200080E090E00E94890264E670E088EB9BE022
:102930000E944C0466E970E080E090E00E94890209
:1029400080919F069091A006A091A106B091A20649
:102950000097A105B10509F0CCC0809102019091CA
:102960000301C0929F06D092A006E092A106F092C9
:10297000A20683EF92E00E9423098091D906882362
:1029800009F444C08091C8069091C906A091CA0676
:10299000B091CB0620910201309103013A83298343
:1029A0008B839C83AD83BE83BE01675F7F4F90E0C6
:1029B00080E00E945E0AC984DA84760190E2E90E22
:1029C000F11CFE0131965F01F6E2CF0ED11CF886B4
:1029D000EF82F50161915F01CE0107960E94D40B51
:1029E000FFEFEF1AFF0ACE14DF0489F789859A8575
:1029F00006969A878987BE01675F7F4F90E080E0E7
:102A00000E94ED0B86EF92E00E942309BE016F5FEA
:102A10007F4F90E080E00E945E0AFC0180819181FE
:102A200066E070E00E9458226150710970930101C4
:102A3000609300011092AF061092B0061092B1069A
:102A40001092B20682E08093460743CE8417950722
:102A5000A607B70708F008CF2091020130910301C3
:102A60008093A3069093A406A093A506B093A60610
:102A70008AEC92E00E94230964E670E080E090E036
:102A80000E94890262E870E08BE092E00E944C04B0
:102A90006CE870E080E090E00E94890262E870E0FB
:102AA0008BE492E00E944C046CE870E080E090E0DF
:102AB0000E94890262E870E083E992E00E944C047F
:102AC0006CE870E080E090E00E9489026CE271E0C6
:102AD00080E793E00E944C046CE271E080E090E0BB
:102AE0000E94890260E971E08BED93E00E944C0442
:102AF000BBCEC816D906EA06FB0608F03ACF80918D
:102B0000020190910301C0929F06D092A006E0922C
:102B1000A106F092A20685EE92E00E94230964E6E7
:102B200070E080E090E00E94890262E870E083E952
:102B300092E00E944C046CE870E080E090E00E941B
:102B4000890262E870E083E992E00E944C046CE83C
:102B500070E080E090E00E94890262E870E083E922
:102B600092E00E944C046CE870E080E090E00E94EB
:102B7000890268E572E08BE092E00E944C04F9CE95
:102B800080914607823009F04AC96091C806709169
:102B9000C9068091CA069091CB0661157105810521
:102BA000910511F00E941F068FEF810F833020F4F2
:102BB000109246070C948B0D143009F030C981E057
:102BC000809346070E94BB026093CC067093CD06AB
:102BD0008093CE069093CF066CE271E08AE593E293
:102BE0000E944C041092C8061092C9061092CA06A0
:102BF0001092CB061092C7061092C6060C94C60D12
:102C00000F931F930E94BB020091D0061091D10632
:102C10002091D2063091D306AB01BC01401B510B71
:102C2000620B730B8091D4069091D506B0E0A0E0C2
:102C3000481759076A077B0790F00E94BB02609310
:102C4000D0067093D1068093D2069093D30640E0CD
:102C500050E0BA0184E01F910F910C942C0C1F914D
:102C60000F9108951F920F920FB60F9211242F9378
:102C70003F938F939F93AF93BF938091520790910F
:102C80005307A0915407B09155073091510723E0A5
:102C9000230F2D3758F50196A11DB11D2093510723
:102CA0008093520790935307A0935407B09355070E
:102CB0008091560790915707A0915807B0915907F6
:102CC0000196A11DB11D8093560790935707A093BD
:102CD0005807B0935907BF91AF919F918F913F9142
:102CE0002F910F900FBE0F901F90189526E8230F7D
:102CF0000296A11DB11DD2CF1F920F920FB60F9257
:102D000011242F933F934F935F936F937F938F93F0
:102D10009F93AF93BF93EF93FF9380914D07909153
:102D20004E07A0914F07B0915007892B8A2B8B2B10
:102D3000D1F190914C07E0914A07F0914B078081C7
:102D40008927808380914D0790914E07A0914F076E
:102D5000B0915007181619061A061B069CF48091AC
:102D60004D0790914E07A0914F07B09150070197E2
:102D7000A109B10980934D0790934E07A0934F0787
:102D8000B0935007FF91EF91BF91AF919F918F91B9
:102D90007F916F915F914F913F912F910F900FBE57
:102DA0000F901F90189580910401E4E0F1E0E49108
:102DB0009FEF90930401E13051F030F0E23069F080
:102DC00060E00E942E01DECF10926E00F9CF90914C
:102DD0006F009D7F90936F00F3CF909170009D7F67
:102DE0009093700091E09093B0009091B100987F23
:102DF00094609093B1001092B300E2CF1F920F92B3
:102E00000FB60F9211242F933F934F935F936F93BD
:102E10007F938F939F93AF93BF93EF93FF938AE535
:102E200097E00E944503FF91EF91BF91AF919F9171
:102E30008F917F916F915F914F913F912F910F9063
:102E40000FBE0F901F9018951F920F920FB60F9202
:102E500011242F938F939F93EF93FF93E0916A0731
:102E6000F0916B078081E0917007F091710782FD0E
:102E70001BC09081809173078F5F8F7320917407BF
:102E8000821741F0E0917307F0E0E65AF84F958F12
:102E900080937307FF91EF919F918F912F910F90E6
:102EA0000FBE0F901F9018958081F4CF1F920F9244
:102EB0000FB60F921124EF92FF920F931F932F934F
:102EC0003F934F935F936F937F938F939F93AF93B2
:102ED000BF93CF93DF93EF93FF93C0912707D091D8
:102EE0002807209749F0EE85FF859D858B8D81FF12
:102EF0001AC080818923D1F4FF91EF91DF91CF91A6
:102F0000BF91AF919F918F917F916F915F914F9101
:102F10003F912F911F910F91FF90EF900F900FBE57
:102F20000F901F9018958081892331F78B899C8998
:102F30000E94420488E0E82EF12C10E001E08D8927
:102F40009E890E944204EE85FF8580819D858923AC
:102F500039F1102B000F81E0E81AF10881F78F8911
:102F6000988D0E9442048B8D81FD109580912607DB
:102F70002091250790E001968F739927281719064D
:102F800099F0E0912607F0E0EB51F94F1083809122
:102F9000260790E001968F73992780932607ACCF80
:102FA000802F80951823D6CF8B8D81608B8FA4CFF7
:102FB0001F920F920FB60F9211242F933F934F93AE
:102FC0005F936F937F938F939F93AF93BF93EF9391
:102FD000FF930E945617FF91EF91BF91AF919F9180
:102FE0008F917F916F915F914F913F912F910F90B2
:102FF0000FBE0F901F9018951F920F920FB60F9251
:1030000011242F933F934F935F936F937F938F93ED
:103010009F93AF93BF93EF93FF930E945617FF9137
:10302000EF91BF91AF919F918F917F916F915F9140
:103030004F913F912F910F900FBE0F901F901895B9
:103040000F931F93CF93DF9300D0CDB7DEB78B01E3
:103050009A838983FB016081CE0101960E94D40B83
:10306000C8010F900F90DF91CF911F910F9108959C
:10307000CF92DF92EF92FF9210925D0710925C0761
:1030800098EEC92E93E0D92EE12CF12CC0925E0768
:10309000D0925F07E0926007F092610781E491E0CF
:1030A00090935B0780935A0785EC90E090936707B5
:1030B0008093660784EC90E090936907809368079B
:1030C00080EC90E090936B0780936A0781EC90E02E
:1030D00090936D0780936C0782EC90E090936F075C
:1030E00080936E0786EC90E0909371078093700751
:1030F000109273071092740710927507109276075A
:1031000010921D0810921C0810921F0810921E08A1
:10311000109221081092200850E040E065EF72E024
:103120008CE198E00E942D0A109217081092160860
:10313000109219081092180810921B0810921A0881
:1031400050E040E065EF72E086E198E00E942D0AD1
:103150001092FD071092FC07C092FE07D092FF0765
:10316000E0920008F092010883E591E09093FB075C
:103170008093FA0710920E0810920D081092100812
:1031800010920F0810921208109211081092140851
:1031900010921308809115088E7F8D7F80931508FB
:1031A00061E087E00E945C0161E087E00E942E01FF
:1031B000E2E5F1E0E491E0930A08EEE3F1E0E49166
:1031C000F0E0EE0FFF1FE35DFE4F85919491909329
:1031D0000C0880930B0860E088E00E945C018091FD
:1031E000150881FD04C061E088E00E942E0188E09E
:1031F00080930608E3E5F1E0E491E0930708EFE34C
:10320000F1E0E491F0E0EE0FFF1FED5DFE4F8591E0
:103210009491909309088093080885E08093F707BC
:1032200084E08093F80760E085E00E945C0160E044
:103230008091F8070E945C0160E08091F7070E948E
:103240002E0160E08091F807FF90EF90DF90CF9023
:103250000C942E01CF93DF93CDB7DEB72C970FB62A
:10326000F894DEBF0FBECDBF789484B5826084BD74
:1032700084B5816084BD85B5826085BD85B581607A
:1032800085BD80916E00816080936E0010928100F8
:1032900080918100826080938100809181008160B3
:1032A0008093810080918000816080938000809174
:1032B000B10084608093B1008091B0008160809300
:1032C000B00080917A00846080937A0080917A00C7
:1032D000826080937A0080917A00816080937A0086
:1032E00080917A00806880937A001092C100E0910A
:1032F0006A07F0916B0782E08083E0916607F091A6
:1033000067071082E0916807F09169078FEC80836E
:1033100010927207E0916E07F0916F0786E080834C
:10332000E0916C07F0916D07808180618083E0916E
:103330006C07F0916D07808188608083E0916C0755
:10334000F0916D07808180688083E0916C07F09137
:103350006D0780818F7D808310921408109213086E
:1033600010921208109211081092100810920F0873
:1033700090E080E0FC01E859FF4F4591559165913F
:10338000749141155B446105710509F072C2FC013D
:10339000E459FF4F2591349130930E0820930D0886
:1033A000FC01E259FF4F259134913093100820938E
:1033B0000F08FC01E059FF4F25913491309312081A
:1033C00020931108FC01EE58FF4F85919491909342
:1033D0001408809313088091110890911208892B8A
:1033E000B1F190910608963160F52091680084E073
:1033F000983048F031E09E3008F430E081E001C0C0
:10340000880F3A95EAF7822B80936800EDE6F0E0AA
:10341000983050F0EBE6F0E09E3030F0ECE6F0E073
:10342000963110F0F0E0E0E04081292F30E0983054
:1034300008F029C281E001C0880F9A95EAF7842B31
:10344000808380911308909114080E944204809117
:103450002707909128078A5F974091F0809115087F
:103460008E7F809315088FB7F894109226071092DC
:1034700025072AEF37E030932807209327078FBFCF
:1034800084E690E0A0E0B0E08093FE079093FF0711
:10349000A0930008B09301088FEF92E00E942309E7
:1034A0000E94720A62E082E10E945C0162E080E1B7
:1034B0000E945C0162E082E00E945C0162E083E0C5
:1034C0000E945C0161E081E10E945C0161E082E1B7
:1034D0000E945C0160E082E10E942E0160E08FE0CA
:1034E0000E945C0161E086E00E945C0160E086E091
:1034F0000E942E0160E083E10E945C018FE08093D6
:10350000F90729E749E367E781E30E940A0664E6D1
:1035100070E08CEA9DE00E944C0466E970E080E077
:1035200090E00E94890264E670E088EB9BE00E94D4
:103530004C0466E970E080E090E00E94890264E655
:1035400070E084EC99E00E944C0466E970E080E051
:1035500090E00E9489023AE0832E912CA12CB12C9C
:1035600066246394712C11E090E3492E512C0DE0F8
:1035700020E0222E20E0322E20912E0730912F07BE
:1035800080913007909131070197829F7001839F4E
:10359000F00C929FF00C112483E10E9452028E0DD8
:1035A0009F1D60913007709131070E9458227093DF
:1035B0002F0760932E0720912E0730912F078091BF
:1035C0002C0790912D072817390708F469C110932B
:1035D0002B07F12C80912A07811167C1F11008C0D7
:1035E00080912907882321F0109229070E94001654
:1035F000F092290740E050E0BA0180E00E942C0CD4
:103600000E94BB02C0903607D0903707E090380781
:10361000F09039076C197D098E099F096436710590
:103620008105910538F1C0903207D0903307E090C2
:103630003407F09035078FE0C114D104E104F104A0
:1036400009F03DC10E945202092E000CAA0BBB0BCF
:103650008093320790933307A0933407B0933507D4
:103660000E94BB0260933607709337078093380738
:10367000909339078AEF97E00E94090418161906FB
:103680000CF060C08091420790914307892B61F450
:10369000709243076092420786E198E00E94580AC0
:1036A0008CE198E00E94580A80914207909143076C
:1036B000029731F483E090E09093430780934207B0
:1036C0008AEF97E00E942104803209F016C1E2E0FF
:1036D000F0E0F0934307E0934207209142073091D6
:1036E00043072130310509F012C189831A82E09025
:1036F0001A08F0901B083FEFE31AF30AB70186E1BE
:1037000098E00E94050A882399F0209116083091CC
:10371000170880911A0890911B08BE016F5F7F4FB8
:10372000820F931F0E94BB24F0921B08E0921A089C
:103730000E94BB0260933A0770933B0780933C075B
:1037400090933D078091420790914307049709F5B4
:103750008BE1C82E81E0D82EF12CE12CF60161918D
:1037600071916F0186E198E00E94E809882321F0B9
:10377000F0924807E0924707FFEFEF1AFF0A21E1B6
:10378000E216F10459F7109349071092430710927B
:1037900042070E94BB02C0903A07D0903B07E090DE
:1037A0003C07F0903D076C197D098E099F096B302D
:1037B00071058105910550F0809142079091430772
:1037C000892B21F0109243071092420780914907FC
:1037D000882309F436C210924907809147079091D7
:1037E0004807009709F0BCC080914607813009F472
:1037F0001CC20E94DC09672B682B692B09F4BFC02F
:1038000083E293E00E9423091A8219821C821B82A0
:103810001E821D8260911C0870911D086115710542
:1038200041F04091200850912108CE0101960E945C
:103830002D0A4D815E8169817A818AE597E00E9437
:10384000C7024D815E8169817A818AEF97E00E948B
:10385000C7028F8198850E94632389819A810E9483
:10386000632383EF92E00E9423090E94DC09CB01CD
:1038700090C00C968C39910509F07CCD10920E0801
:1038800010920D08A8CD9E3040F42850310981E0F7
:1038900001C0880F2A95EAF7D2CD2E503109F7CF13
:1038A000F0902B0710922B0795CEFF2009F4A0CEA5
:1038B0008091290781119CCE1093290797CE0E94F1
:1038C0005202FC01A9E0B0E0A70196010E9461212B
:1038D0006F01FF0FEE08FF086C0D7D1D8E1D9F1DF3
:1038E000A50194010E948022209332073093330770
:1038F0004093340750933507B3CE8B3309F0EDCEA8
:1039000024E030E03093430720934207E6CE233093
:10391000310509F00DCF89831A82E0902008F090DC
:1039200021088FEFE81AF80AB7018CE198E00E94AD
:10393000050A882309F4FCCE20911C0830911D084B
:103940008091200890912108BE016F5F7F4F820F08
:10395000931F0E94BB24F0922108E0922008E8CE39
:1039600081309105E9F08230910509F076C18091AE
:103970004607813009F459C10E94720A56C186E196
:1039800093E00E94230983EF92E00E94230990E0D4
:1039900080E00E94710B84EF92E00E94230945C1F0
:1039A00080914607813009F440C10E94BB02C0905B
:1039B0003E07D0903F07E0904007F09041076C1918
:1039C0007D098E099F09683E73408105910508F4C1
:1039D0002CC187E393E00E94230986E493E00E94D0
:1039E00023098EE00E9452020E94BE0884EF92E0FA
:1039F0000E9423098BE493E00E9423098FE00E9438
:103A000052020E94BE0884EF92E00E94230980E5E2
:103A100093E00E94230980E10E9452020E94BE08A6
:103A200084EF92E00E94230985E593E00E94230938
:103A300081E10E9452020E94BE0884EF92E00E943F
:103A400023098AE593E00E94230982E10E94520241
:103A50000E94BE0884EF92E00E9423098FE593E064
:103A60000E94230983E10E9452020E94BE0884EF53
:103A700092E00E94230984E793E00E94230984E1F5
:103A80000E9452020E94BE0884EF92E00E94230925
:103A900089E793E00E94230985E10E9452020E9477
:103AA000BE0884EF92E00E9423098EE793E00E9413
:103AB000230980E00E9405010E94BE0884EF92E085
:103AC0000E94230983E893E00E94230981E00E9479
:103AD00005010E94BE0884EF92E00E94230988E855
:103AE00093E00E94230982E00E9405010E94BE0823
:103AF00084EF92E00E94230987E993E00E94230962
:103B000083E00E9405010E94BE0884EF92E00E94BB
:103B100023098CE993E00E94230984E00E940501B7
:103B20000E94BE0884EF92E00E94230981EA93E09C
:103B30000E94230985E00E9405010E94BE0884EFCF
:103B400092E00E94230986EA93E00E94230986E01E
:103B50000E9405010E94BE0884EF92E00E942309A2
:103B60008DEB93E00E94230987E00E9405010E94EB
:103B7000BE0884EF92E00E94230982EC93E00E9449
:103B8000230988E00E9405010E94BE0884EF92E0AC
:103B90000E94230987EC93E00E94230989E00E9498
:103BA00005010E94BE0884EF92E00E9423098CEC7C
:103BB00093E00E9423098AE00E9405010E94BE084A
:103BC00084EF92E00E94230982ED93E00E94230992
:103BD0008BE00E9405010E94BE0884EF92E00E94E3
:103BE000230988ED93E00E9423098CE00E940501DF
:103BF0000E94BE0884EF92E00E9423098EED93E0BC
:103C00000E9423098DE00E9405010E94BE0884EFF6
:103C100092E00E9423090E94BB0260933E077093CA
:103C20003F07809340079093410750924807409286
:103C300047078CE198E00E94580A109243071092BF
:103C400042072114310409F497CC0E9431038823E0
:103C500009F489CC0E94000086CC83309105C9F418
:103C600080914607813009F3109245070E94DC09D4
:103C700021E016161706180619060CF020E020930E
:103C800044070E94DC09AB01BC018AE00E942C0CB5
:103C9000CCCF84309105B1F480914607813029F270
:103CA00084E0809345071093440765EF72E08CE150
:103CB00098E00E94E8098823F9F040E050E0BA015A
:103CC0008BE0E4CF8B30910549F580914607813038
:103CD00009F4ABCF8FE0809345071093440765EF5D
:103CE00072E08CE198E00E94E809882389F140E0C5
:103CF00050E0BA0185E1CACF0E94DC09DC01CB01AA
:103D000041E050E060E070E0181619061A061B0644
:103D10001CF040E050E0BA018CE0B8CF853091054E
:103D200049F580914607813009F47FCF8AE080937E
:103D300045071093440765EF72E08CE198E00E941C
:103D4000E809882389F140E050E0BA018DE09ECF78
:103D50000E94DC09DC01CB0141E050E060E070E052
:103D6000181619061A061B061CF040E050E0BA01AE
:103D700086E18CCF8630910549F5809146078130E8
:103D800009F453CF8BE0809345071093440765EF08
:103D900072E08CE198E00E94E809882331F140E06C
:103DA00050E0BA018FE072CF0E94DC09DC01CB0148
:103DB00041E050E060E070E0181619061A061B0694
:103DC0001CF040E050E0BA018EE060CF8C309105ED
:103DD00091F08730910561F18830910509F042C07A
:103DE00040E050E0BA0188E251CF0E94DC09AB010B
:103DF000BC0180E14BCF80914607813009F415CF9B
:103E00008EE0809345071093440765EF72E08CE1E4
:103E100098E00E94E809882329F040E050E0BA01C8
:103E200087E134CF0E94DC09AB01BC0188E12ECFD1
:103E300080914607813009F4F8CE0093450765EF7D
:103E400072E08CE198E00E94E809882329F040E0C4
:103E500050E0BA0181E11ACF0E94DC09AB01BC013C
:103E600082E114CF8930910579F480914607813041
:103E700009F4DBCE80E1809345071093440740E0CE
:103E800050E0BA0183E102CF8A30910541F08D30D4
:103E90009105A1F440E050E0BA0181E0F7CE8091B5
:103EA0004607813009F4C1CE98E0909345071093FE
:103EB000440740E050E0BA0184E1E8CE8E3091053D
:103EC00029F440E050E0BA0182E0E0CE8F30910565
:103ED00029F440E050E0BA0183E0D8CE409709F0E1
:103EE000A4CE80914607813009F49FCE84EE93E002
:103EF0000E94230983E094E00E94230985E394E073
:103F00000E9423098CE594E00E94230988E794E04D
:103F10000E94230985EA94E00E9423098AED94E037
:103F20000E9423098EE095E00E9423098AE395E030
:103F30000E94230986E795E00E9423098CEA95E018
:103F40000E94230982ED95E00E94230981EF95E00C
:103F50000E94230984E196E00E9423091CCD83E599
:103F600091E09093FB078093FA0720910608263191
:103F7000C0F4EDE6F0E0283030F0EBE6F0E02E3073
:103F800010F0ECE6F0E03081422F50E02830A8F449
:103F900081E090E001C0880F2A95EAF7809583239D
:103FA000808380911608909117080E946323809166
:103FB0001C0890911D080C9463232E3048F448503F
:103FC000510981E090E001C0880F4A95EAF7E6CFF9
:103FD0004E505109F6CF1F93FC0199278827BC0149
:103FE000E89411911032E9F3193010F01E30C8F343
:103FF0001B3251F01D3249F4689406C00E94122011
:10400000610F711D811D911D119110531A30B0F374
:104010003EF490958095709561957F4F8F4F9F4F9F
:104020001F910895592F482F372F262F660F771F7E
:10403000881F991F660F771F881F991F620F731FB4
:10404000841F951F660F771F881F991F08950E9470
:10405000692008F481E00895E89409C097FB3EF4D4
:1040600090958095709561957F4F8F4F9F4F9923C5
:10407000A9F0F92F96E9BB279395F6958795779543
:104080006795B795F111F8CFFAF4BB0F11F460FF03
:104090001BC06F5F7F4F8F4F9F4F16C0882311F05B
:1040A00096E911C0772321F09EE8872F762F05C06F
:1040B000662371F096E8862F70E060E02AF09A950A
:1040C000660F771F881FDAF7880F9695879597F9FF
:1040D0000895990F0008550FAA0BE0E8FEEF161699
:1040E0001706E807F907C0F012161306E407F507EC
:1040F00098F0621B730B840B950B39F40A2661F060
:10410000232B242B252B21F408950A2609F4A14002
:10411000A6958FEF811D811D08950E94A0200C940B
:1041200011210E94032138F00E940A2120F09523DA
:1041300011F00C94FA200C94002111240C944521C8
:104140000E94222170F3959FC1F3950F50E0551FF7
:10415000629FF001729FBB27F00DB11D639FAA27DC
:10416000F00DB11DAA1F649F6627B00DA11D661F2B
:10417000829F2227B00DA11D621F739FB00DA11D4C
:10418000621F839FA00D611D221F749F3327A00D06
:10419000611D231F849F600D211D822F762F6A2FA2
:1041A00011249F5750409AF0F1F088234AF0EE0F07
:1041B000FF1FBB1F661F771F881F91505040A9F734
:1041C0009E3F510580F00C94FA200C9445215F3FEE
:1041D000E4F3983ED4F3869577956795B795F79570
:1041E000E7959F5FC1F7FE2B880F911D96958795E8
:1041F00097F9089597F99F6780E870E060E0089567
:104200009FEF80EC089500240A94161617061806EE
:104210000906089500240A941216130614060506CA
:104220000895092E0394000C11F4882352F0BB0F5B
:1042300040F4BF2B11F460FF04C06F5F7F4F8F4FBE
:104240009F4F089557FD9058440F551F59F05F3FF9
:1042500071F04795880F97FB991F61F09F3F79F0A8
:1042600087950895121613061406551FF2CF46952A
:10427000F1DF08C0161617061806991FF1CF8695AC
:104280007105610508940895E894BB276627772790
:10429000CB0197F90895F999FECF92BD81BDF89AA7
:1042A000992780B50895262FF999FECF1FBA92BDA0
:1042B00081BD20BD0FB6F894FA9AF99A0FBE019607
:1042C00008950E94A321A59F900DB49F900DA49FD7
:1042D000800D911D112408952F923F924F925F926D
:1042E0006F927F928F929F92AF92BF92CF92DF9206
:1042F000EF92FF920F931F93CF93DF93CDB7DEB76B
:10430000CA1BDB0B0FB6F894DEBF0FBECDBF0994FE
:104310002A88398848885F846E847D848C849B8455
:10432000AA84B984C884DF80EE80FD800C811B8163
:10433000AA81B981CE0FD11D0FB6F894DEBF0FBE92
:10434000CDBFED010895A29FB001B39FC001A39F0F
:10435000700D811D1124911DB29F700D811D1124BE
:10436000911D08955058BB27AA270E94CA210C947A
:1043700011210E94032138F00E940A2120F039F413
:104380009F3F19F426F40C9400210EF4E095E7FB0E
:104390000C94FA20E92F0E94222158F3BA176207E1
:1043A00073078407950720F079F4A6F50C9444214F
:1043B0000EF4E0950B2EBA2FA02D0B01B901900140
:1043C0000C01CA01A0011124FF27591B99F0593F84
:1043D00050F4503E68F11A16F040A22F232F342FCC
:1043E0004427585FF3CF469537952795A795F0401A
:1043F0005395C9F77EF41F16BA0B620B730B840B2F
:10440000BAF09150A1F0FF0FBB1F661F771F881FE6
:10441000C2F70EC0BA0F621F731F841F48F487953E
:1044200077956795B795F7959E3F08F0B0CF939530
:10443000880F08F09927EE0F9795879508950E94A9
:104440002A2188F09F5798F0B92F9927B751B0F0DB
:10445000E1F0660F771F881F991F1AF0BA95C9F708
:1044600014C0B13091F00E944421B1E008950C9441
:104470004421672F782F8827B85F39F0B93FCCF3F4
:10448000869577956795B395D9F73EF49095809585
:10449000709561957F4F8F4F9F4F08950E946920BF
:1044A00008F48FEF08950E946920880B990B0895F6
:1044B000AA1BBB1B51E107C0AA1FBB1FA617B7074A
:1044C00010F0A61BB70B881F991F5A95A9F7809566
:1044D0009095BC01CD01089597FB072E16F400942A
:1044E00007D077FD09D00E94582207FC05D03EF482
:1044F000909581959F4F0895709561957F4F089590
:10450000A1E21A2EAA1BBB1BFD010DC0AA1FBB1FD7
:10451000EE1FFF1FA217B307E407F50720F0A21B49
:10452000B30BE40BF50B661F771F881F991F1A94B6
:1045300069F760957095809590959B01AC01BD01E0
:10454000CF010895052E97FB1EF400940E94B92216
:1045500057FD07D00E94802207FC03D04EF40C9434
:10456000B92250954095309521953F4F4F4F5F4F61
:10457000089590958095709561957F4F8F4F9F4FCF
:104580000895EE0FFF1F0590F491E02D09940F930D
:104590001F93CF93DF938230910510F482E090E077
:1045A000E0912408F091250830E020E0B0E0A0E0A0
:1045B000309799F42115310509F44AC0281B390BAD
:1045C00024303105D8F58A819B816115710589F107
:1045D000FB0193838283FE0111C0408151810281DE
:1045E000138148175907E0F04817590799F41097B5
:1045F00061F012960C93129713961C933296CF018A
:10460000DF91CF911F910F9108950093240810938B
:104610002508F4CF2115310551F04217530738F022
:10462000A901DB019A01BD01DF01F801C1CFEF0152
:10463000F9CF9093250880932408CDCFFE01E20F97
:10464000F31F819391932250310939832883D7CF67
:104650002091220830912308232B41F42091070157
:1046600030910801309323082093220820910501FE
:10467000309106012115310541F42DB73EB7409127
:10468000090150910A01241B350BE0912208F09199
:104690002308E217F307A0F42E1B3F0B2817390756
:1046A00078F0AC014E5F5F4F2417350748F04E0F8E
:1046B0005F1F5093230840932208819391939FCFCB
:1046C000F0E0E0E09CCFCF93DF930097E9F0FC01AE
:1046D000329713821282A0912408B0912508ED012F
:1046E00030E020E01097A1F420813181820F931FE8
:1046F00020912208309123082817390709F061C05A
:10470000F0932308E0932208DF91CF910895EA0106
:10471000CE17DF07E8F54A815B819E0141155105FF
:10472000B1F7E901FB83EA8349915991C40FD51F81
:10473000EC17FD0761F4808191810296840F951F2B
:10474000E90199838883828193819B838A83F0E046
:10475000E0E012968D919C9113970097B9F52D91F9
:104760003C911197CD010296820F931F2091220850
:10477000309123082817390739F6309751F51092F0
:10478000250810922408B0932308A0932208BCCFD8
:10479000D383C28340815181840F951FC817D907E5
:1047A00061F44E5F5F4F88819981480F591F518393
:1047B00040838A819B81938382832115310509F08F
:1047C000B0CFF0932508E09324089ECFFD01DC01D3
:1047D000C0CF13821282D7CFB0E0A0E0E2EFF3E2C5
:1047E0000C946E218C01009751F4CB010E94C722DA
:1047F0008C01C801CDB7DEB7E0E10C948A21FC0141
:10480000E60FF71F9C0122503109E217F30708F465
:104810009DC0D901CD91DC911197C617D70798F0AB
:10482000C530D10530F3CE0104978617970708F3FA
:10483000C61BD70B2297C193D1936D937C93CF0165
:104840000E946323D6CF5B01AC1ABD0A4C018C0ECB
:104850009D1EA0912408B0912508512C412CF12CCB
:10486000E12C109731F5809122089091230888154A
:10487000990509F05CC04616570608F058C08091AB
:10488000050190910601009741F48DB79EB74091C4
:10489000090150910A01841B950BE817F90708F0EC
:1048A00055C0F0932308E0932208F90171836083D7
:1048B000A0CF8D919C91119712966C9012971396A0
:1048C0007C901397A815B90559F56C0142E0C40E08
:1048D000D11CCA14DB0420F1AC014A195B09DA01CE
:1048E0001296159780F06282738251834083D901BA
:1048F0006D937C93E114F10471F0D7011396FC934E
:10490000EE93129776CF22968C0F9D1FF90191831B
:104910008083F301EFCFF0932508E093240869CF5B
:104920004816590608F42C017D01D3019ACFCB011A
:104930000E94C7227C01009749F0AE01B8010E9495
:10494000A924C8010E946323870153CF10E000E02F
:1049500050CFFB01DC0102C001900D92415050404C
:10496000D8F70895FB01DC018D91019080190110A9
:10497000D9F3990B0895FB01DC0101900D92002001
:10498000E1F7089510E0C1EBD0E004C0FE010E9401
:0E499000C1222196C23BD107C9F7F894FFCF90
:10499E000F270100FF0000260880003F065B4F66D0
:1049AE006D7D077F6F777C395E7971280633063D02
:1049BE000647064C06CD05510656065C066306688C
:1049CE00066D0672067B0626067D067F0600000033
:1049DE00006703C702F402B40325030303170300A1
:1049EE00000000B907C7024904FA0309042104E0D4
:1049FE000330002E005365742072616365723A2095
:104A0E000053454E534F525F4D4F44453A2000538D
:104A1E00454E534F525F4D415F56414C5545535F86
:104A2E004E554D3A20000A72200020737461727444
:104A3E00656400526573756C747320636C65617286
:104A4E006564000A534156455F524553554C5453C5
:104A5E003A20000A53657420534156455F52455320
:104A6E00554C54533A20005265636965766564204F
:104A7E0074657374696E673A000A4261746572797F
:104A8E0020766F6C746167653A006E616E00696EB8
:104A9E0066006F7666000A4D4F44453A2000202886
:104AAE004C415053290020284C494E4529000A53A9
:104ABE006574204D4F44453A20000A4C4150535FD7
:104ACE004E554D4245523A20000A536574204C41D2
:104ADE0050535F4E554D4245523A20000A53454EB3
:104AEE00534F525F545255455F4C4556454C3A20F4
:104AFE00000A5365742053454E534F525F5452551E
:104B0E00455F4C4556454C3A20000A53454E534F8F
:104B1E00525F54494D454F55543A20000A5365741F
:104B2E002053454E534F525F54494D454F55543ABD
:104B3E0020000A4D5554453A20000A536574204D05
:104B4E005554453A200043616E63656C2072616373
:104B5E00653A20000A4C6170200020426573742073
:104B6E006C617020726573756C7421000A526573E6
:104B7E00756C743A00204265737420726573756C9F
:104B8E007421000A0A005B53617665645D0A000AAF
:104B9E00203D3D3D3D205443205374617274203DB1
:104BAE003D3D3D200A000A526573756C7473206199
:104BBE006C6C000A526573756C747320666F72208C
:104BCE00726163657220000A496E70757420766199
:104BDE006C7565730A0041303A200041313A20006D
:104BEE0041323A200041333A200041343A2000410C
:104BFE003520286C617365725F73656E7350494E14
:104C0E00293A200041363A200041373A20004430FC
:104C1E003A200044313A20004432202873656E73E6
:104C2E0050494E293A200044333A200044343A2069
:104C3E000044353A2000443620286C61736572506A
:104C4E00494E204F4E2F4F4646293A200044373AC0
:104C5E00200044383A200044393A20004431303A9A
:104C6E0020004431313A20004431323A20004431A0
:104C7E00333A20000A3C2C5E2C3E203A2072656CA2
:104C8E006561736520312C322C3320427574746F3C
:104C9E006E73000A676574726573756C7473203C6D
:104CAE00312D3235353E3A2072657475726E732031
:104CBE00726573756C7420666F72207261636572B3
:104CCE002F616C6C000A676574696E707574732061
:104CDE003A2072657475726E7320616C6C20696E09
:104CEE00707574732076616C756573000A676574F0
:104CFE00636F6E666967203A2072657475726E73A3
:104D0E0020636F6E666967000A72616365203C31CD
:104D1E002D3235353E3A20676F20746F20726163F5
:104D2E0065206D6F646520616E64207365742072FA
:104D3E0061636572000A73617665203C312D303EE9
:104D4E003A206765742F73657420736176696E6798
:104D5E0020726573756C747320746F206D656D6F42
:104D6E007279206F7074696F6E000A6C61707320B7
:104D7E003C312D3235353E3A206765742F7365749C
:104D8E00206C617073206E756D6265722028666F7F
:104D9E0072204C617073206D6F64652920000A6C5F
:104DAE006576656C203C312D313032343E3A2067C9
:104DBE0065742F7365742073656E736F7220545211
:104DCE005545206C6576656C20000A7374696D65B7
:104DDE006F7574203C302D31303030303E3A2067C4
:104DEE0065742F7365742073656E736F72207469AA
:104DFE006D656F757420696E206D696C6C69736575
:104E0E00636F6E6473000A63616E63656C203A2093
:104E1E0063616E63656C207261636520666F7220DC
:104E2E0063757265742072616365722028696620ED
:104E3E006974207374617274656429000A73636106
:104E4E006C203A20676F20746F2073656E736F72DB
:104E5E002063616C6962726174696F6E206D6F643C
:104E6E0065000A62617472203A2072657475726E02
:104E7E00732062617465727920766F6C74616765F8
:104E8E00000A6D757465203C312D303E3A20676501
:104E9E00742F736574206D7574696E6720736F75EA
:104EAE006E6473000A68656C70203A207072696EC9
:104EBE007420746869735E00676574726573756CCF
:104ECE00747300676574696E7075747300676574CA
:104EDE00636F6E6669670072616365007361766504
:104EEE00006C617073006C6576656C0063616E6357
:104EFE00656C007363616C0062617472006D757431
:104F0E0065007374696D656F7574003C003E0068D2
:044F1E00656C70004E
:00000001FF
