:100000000C946B000C9493000C9493000C9493004C
:100010000C9493000C9493000C9493000C94930014
:100020000C9493000C9493000C9493000C94930004
:100030000C9493000C9493000C9493000C949300F4
:100040000C940D030C9493000C947D030C945703B3
:100050000C9493000C9493000C9493000C949300D4
:100060000C9493000C9493001112131415160A0BA0
:100070000C0D0E0F00010203040500000000240017
:1000800027002A0000000000250028002B000000A7
:1000900000002300260029000404040404040404CE
:1000A0000202020202020303030303030102040823
:1000B00010204080010204081020010204081020D2
:1000C0000000000800020100000304070000000017
:1000D00000000000F50C11241FBECFEFD8E0DEBFFA
:1000E000CDBF22E0ACECB1E001C01D92AF3BB20746
:1000F000E1F711E0A0E0B1E0E2E2FFE102C005902B
:100100000D92AC3CB107D9F710E0CBE6D0E004C0CB
:100110002197FE010E94750FCA36D107C9F70E94C8
:100120004D0A0C948F0F0C940000CF92DF92EF9247
:10013000FF920F931F93CF93DF936C017A018B0192
:10014000C0E0D0E0CE15DF0589F0D8016D918D01BA
:10015000D601ED91FC910190F081E02DC601099549
:10016000892B11F47E0102C02196ECCFC701DF91EB
:10017000CF911F910F91FF90EF90DF90CF90089556
:10018000089580E090E00895FC01538D448D252F63
:1001900030E0842F90E0821B930B541710F0CF9621
:1001A000089501970895FC01918D828D981761F053
:1001B000828DDF01A80FB11D5D968C91928D9F5F9E
:1001C0009F73928F90E008958FEF9FEF0895FC0149
:1001D000918D828D981731F0828DE80FF11D858DFC
:1001E00090E008958FEF9FEF0895FC01918D228D8F
:1001F000892F90E0805C9F4F821B91098F73992714
:10020000089589E092E00E94F50021E0892B09F42D
:1002100020E0822F0895FC01848DDF01A80FB11D1D
:10022000A35ABF4F2C91848D90E001968F7399272C
:10023000848FA689B7892C93A089B1898C91806419
:100240008C93938D848D981306C00288F389E02DDA
:1002500080818F7D80830895EF92FF920F931F938B
:10026000CF93DF93EC0181E0888F9B8D8C8D981369
:1002700005C0E889F989808185FD24C0F62E0B8DA3
:1002800010E00F5F1F4F0F731127E02E8C8DE812C7
:100290000CC00FB607FCFACFE889F989808185FF89
:1002A000F5CFCE010E940B01F1CF8B8DFE01E80F3F
:1002B000F11DE35AFF4FF0820B8FEA89FB898081A1
:1002C000806207C0EE89FF896083E889F9898081AF
:1002D0008064808381E090E0DF91CF911F910F9146
:1002E000FF90EF900895CF93DF93EC01888D8823E2
:1002F000C9F0EA89FB89808185FD05C0A889B98993
:100300008C9186FD0FC00FB607FCF5CF808185FF6D
:10031000F2CFA889B9898C9185FFEDCFCE010E94DB
:100320000B01E7CFDF91CF91089580E090E0892B1A
:1003300029F00E94010181110C94000008952F9270
:100340003F924F925F926F927F928F929F92AF9265
:10035000BF92CF92DF92EF92FF920F931F93CF93B2
:10036000DF93CDB7DEB728970FB6F894DEBF0FBE88
:10037000CDBF6B017C01603117E2710781059105EA
:10038000D8F528EE33E040E050E00E94480F290104
:100390003A014901C701B60124E630E040E050E0EF
:1003A0000E94480F2D833E834F8358872AE0249D67
:1003B000C001259D900D1124AD80BE80A81AB90AF8
:1003C000C701B6012AE030E040E050E00E94480F4B
:1003D00086EF182F6D817E8116031001179F300C58
:1003E0001124220E331E12032001139F500C1124DE
:1003F00092012C0D3D1D88C0DC01CB01805197423C
:10040000A109B1098035934CA105B10508F047C099
:10041000C701B60120E137E240E050E00E94480FFA
:1004200029013A014901C701B60128EE33E040E055
:1004300050E00E94480F2D833E834F83588716EF6C
:10044000B20116035001179FB00C1124A20EB31E67
:10045000C701B60124E630E040E050E00E94480FBA
:1004600029013A0146EF2D813E8142038001439FDD
:10047000100D11241801240C351CC701B6012AE007
:1004800030E040E050E00E94480F16EFB201160342
:10049000C001179F900D1124280F391F35C0C701C7
:1004A000B60128EE33E040E050E00E94480F2901F9
:1004B0003A01C9016CE370E00E94200FFB010AE0E1
:1004C00010E0CB01B8010E94200F4B012AE0269FCB
:1004D000C001279F900D11245F01A81AB90A3CE3BF
:1004E0003E9FC0013F9F900D1124481A590AC20136
:1004F000B8010E94200F1B01269FC001279F900D6D
:1005000011249201281B390BE82DEF70F0E0EA5D11
:10051000FE4F80818983EA2DEF70F0E0EA5DFE4FA7
:100520008081022D0F70E02FF0E0EA5DFE4F908198
:100530009B832F70E22FF0E0EA5DFE4F90819C8359
:1005400020E1C21627E2D206E104F10410F48F770D
:1005500001C080688A83CE0101960E9465092896B1
:100560000FB6F894DEBF0FBECDBFDF91CF911F91C4
:100570000F91FF90EF90DF90CF90BF90AF909F9042
:100580008F907F906F905F904F903F902F90089545
:10059000CF93DF9300D000D0CDB7DEB7E82F392F4F
:1005A00081E389838E2F64E670E00E94200F462F3E
:1005B0008E2F932F68EE73E00E94200F26EFA42F5A
:1005C000269FA00D1124AF70B0E0AA5DBE4F8C91A4
:1005D0008A838E2F932F6AE070E00E94200FA62F4F
:1005E000249FA00D1124AF70B0E0AA5DBE4F9C9176
:1005F0009B83269FE00D1124EF70F0E0EA5DFE4F33
:1006000080818C83CE0101960E9465090F900F9026
:100610000F900F90DF91CF9108951F920F920FB618
:100620000F9211242F933F938F939F93AF93BF9378
:100630008091010290910202A0910302B091040204
:100640003091000223E0230F2D3720F40196A11DE5
:10065000B11D05C026E8230F0296A11DB11D2093F0
:1006600000028093010290930202A0930302B093D0
:1006700004028091050290910602A0910702B091B8
:1006800008020196A11DB11D8093050290930602F8
:10069000A0930702B0930802BF91AF919F918F91F1
:1006A0003F912F910F900FBE0F901F9018951F92A2
:1006B0000F920FB60F9211242F933F934F935F9396
:1006C0006F937F938F939F93AF93BF93EF93FF931A
:1006D00089E092E00E940B01FF91EF91BF91AF91F1
:1006E0009F918F917F916F915F914F913F912F914A
:1006F0000F900FBE0F901F9018951F920F920FB67C
:100700000F9211242F938F939F93EF93FF93E09178
:100710001902F0911A028081E0911F02F0912002EB
:1007200082FD12C09081809122028F5F8F73209191
:100730002302821751F0E0912202F0E0E75FFD4FC3
:10074000958F8093220201C08081FF91EF919F914C
:100750008F912F910F900FBE0F901F9018958EBD07
:1007600000000DB407FEFDCF8EB508951F93CF9303
:10077000DF936093E5017093E6018093E701909326
:10078000E801C091F3010E94FB078C2F8770886AF3
:100790000E94AF03C5EED1E01C2F1C5F1C1721F097
:1007A00089910E94AF03FACFDF91CF911F910C94F2
:1007B000F8074F925F926F927F928F929F92AF92C3
:1007C000BF92CF92DF92EF92FF921F93CF93DF936E
:1007D00000D000D0CDB7DEB7182FE090DF01F09049
:1007E000E001E114F104D9F46091EB017091EC01A6
:1007F0008091ED019091EE010E94F70D28E538EE11
:100800004AEA5BE30E94AE0E20E030E048EC52E49E
:100810000E94AE0E0E94C10DCB010E949D091530B1
:10082000C1F48091F4019091F5019093DE018093E1
:10083000DD018091F8019091F9019093DC018093A2
:10084000DB018091FC019091FD019093DA0180938E
:10085000D9018091D801823051F4112341F0809167
:10086000DD019091DE01049711F01092D801809182
:10087000D8018111C7C0153009F03EC28091DD0159
:100880009091DE0181309105F9F48091DB01909126
:10089000DC01019709F030C28091D9019091DA0111
:1008A0009093E0018093DF010E94410A6093D4019C
:1008B0007093D5018093D6019093D70181E0809306
:1008C000D80180E591E0F6C18230910529F580914B
:1008D000DB019091DC01019709F00EC28091D901F2
:1008E0009091DA019093E0018093DF018FE591E030
:1008F0000E943C076091DF017091E00180E090E090
:100900004AE00E943E0783E991E00E943C07809103
:10091000DF019091E0012DC08330910591F4809129
:10092000DB019091DC01019709F0E6C16091D001F3
:100930007091D1018091D2019091D3010E94B603B0
:10094000DBC18430910539F58091DB019091DC01A8
:10095000019709F0D1C18091D801811116C0EF280B
:1009600059F48091D9019091DA019093E00180933C
:10097000DF010E94C802C0C18091D9019091DA01C3
:100980009093E0018093DF01B7C18091D80181305D
:1009900009F0B2C1E6CF069709F0AEC18091DB0144
:1009A0009091DC01019709F0A7C18BE691E00E94CC
:1009B0003C0789E691E00E943C076091D901709163
:1009C000DA0180E090E04AE00E943E0783E991E08E
:1009D0000E943C0764E670E080E090E00E94F60927
:1009E000E090D901F090DA0184E68E9DB0018F9DF0
:1009F000700D112480E090E00E94B603C7010E94B0
:100A00009D097AC18091D801813009F067C10E94A7
:100A1000410AC090D401D090D501E090D601F09069
:100A2000D7016C197D098E099F090E949F0114301E
:100A300009F007C10E94410A6093CC017093CD0177
:100A40008093CE019093CF018091CC019091CD0104
:100A5000A091CE01B091CF014091D4015091D50128
:100A60006091D6017091D7014697A109B109841B05
:100A7000950BA60BB70B8093D0019093D101A09357
:100A8000D201B093D3018EE791E00E943C0789E642
:100A900091E00E943C076091DF017091E00180E0ED
:100AA00090E04AE00E943E0788E691E00E943C0701
:100AB0006091D0017091D1018091D2019091D301C8
:100AC0000E94F70D2FE632E143E85AE30E94AE0E92
:100AD0006B017C014B015C019B01AC010E941B0F6F
:100AE000882319F086E891E01AC026013701E894BE
:100AF00077F82FEF3FEF4FE75FE7C301B2010E94A6
:100B00001B0F81110FC02FEF3FEF4FE75FE7C301CE
:100B1000B2010E94BC0D18162CF48AE891E00E94E4
:100B20002A077DC02FEF3FEF4FE75FE4C701B60113
:100B30000E94A90E18161CF48EE891E0F0CF2FEF5A
:100B40003FEF4FE75FECC701B6010E94BC0D87FD88
:100B5000F3CF20E030E0A901C701B6010E94BC0D2F
:100B600087FF11C0E0910902F0910A020190F08123
:100B7000E02D6DE289E092E0099546015701B7FA50
:100B8000B094B7F8B0942EE632E143E05AE3C501E1
:100B9000B4010E94500D6B017C010E94C80D4B01F5
:100BA0005C010E94F70D9B01AC01C701B6010E94D8
:100BB0004F0D6B017C014AE0C501B4010E943E0764
:100BC000E0910902F0910A020190F081E02D6EE2BD
:100BD00089E092E0099514E0115009F120E030E03D
:100BE00040E251E4C701B6010E94AE0E4B015C0128
:100BF0000E94C80D6B01E12CF12C4AE0C701B6013F
:100C00000E943E07C701B6010E94F70D9B01AC018F
:100C1000C501B4010E944F0D6B017C01DDCF82E95B
:100C200091E00E943C076091D0017091D1018091C8
:100C3000D2019091D3010E94B60382E08093D80143
:100C40005BC0153009F058C08091DD019091DE0144
:100C5000019709F051C08091DB019091DC0102976E
:100C600009F04AC01092D4011092D5011092D60119
:100C70001092D7011092CC011092CD011092CE01AA
:100C80001092CF011092D0011092D1011092D20196
:100C90001092D3011092D80189E3898387E38A8374
:100CA00088E38B838EE58C83CE0101960E946509D3
:100CB00085E991E00E943C0789E691E00E943C07AB
:100CC0006091DF017091E00180E090E04AE00E94D5
:100CD0003E0783E991E00E943C070EC08091D80155
:100CE000823051F46091D0017091D1018091D20194
:100CF0009091D3010E949F010F900F900F900F9041
:100D0000DF91CF911F91FF90EF90DF90CF90BF9038
:100D1000AF909F908F907F906F905F904F900895CD
:100D20000F931F930E94410A0091E1011091E2018B
:100D30002091E3013091E401E0910001F091010183
:100D4000AB01BC01401B510B620B730BCF01A0E048
:100D5000B0E0481759076A077B07B0F00E94410AC4
:100D60006093E1017093E2018093E3019093E401C9
:100D700040E050E0BA0184E00E94D90384EA91E0A7
:100D80001F910F910C943C071F910F910895833090
:100D900081F028F4813099F08230A1F008958730F5
:100DA000A9F08830B9F08430D1F4809180008F7D33
:100DB00003C0809180008F7780938000089584B570
:100DC0008F7702C084B58F7D84BD08958091B00077
:100DD0008F7703C08091B0008F7D8093B00008951D
:100DE0003FB7F8948091050290910602A091070206
:100DF000B091080226B5A89B05C02F3F19F00196B7
:100E0000A11DB11D3FBFBA2FA92F982F8827820F90
:100E1000911DA11DB11DBC01CD0142E0660F771FE0
:100E2000881F991F4A95D1F708950E948A0F81E47F
:100E300080937C0080917A00806480937A00809116
:100E40007A0086FDFCCF809178002091790090E0B7
:100E5000922B0895009769F0FC0101900020E9F7BA
:100E60003197AF01481B590BBC0189E092E00C940B
:100E7000950080E090E008950C942A078F929F924D
:100E8000AF92BF920F931F93CF93DF93CDB7DEB78F
:100E9000A1970FB6F894DEBF0FBECDBF19A24230A6
:100EA00008F44AE08E010F5D1F4F842E912CA12C77
:100EB000B12CA50194010E94480FE62FB901CA0187
:100EC00001501109EA3014F4E05D01C0E95CD80179
:100ED000EC93232B242B252B61F7C8010E942A07B2
:100EE000A1960FB6F894DEBF0FBECDBFDF91CF91B4
:100EF0001F910F91BF90AF909F908F900895CF93C7
:100F0000DF93282F30E0F901E054FF4F8491F9017D
:100F1000E455FF4FD491F901E856FF4FC491CC231B
:100F200091F081110E94C706EC2FF0E0EE0FFF1F39
:100F3000E257FF4FA591B491EC91ED2381E090E051
:100F400021F480E002C080E090E0DF91CF9108952D
:100F50001F93CF93DF93282F30E0F901E054FF4F28
:100F60008491F901E455FF4FD491F901E856FF4F00
:100F7000C491CC23C9F0162F81110E94C706EC2F13
:100F8000F0E0EE0FFF1FEC57FF4FA591B4918FB724
:100F9000F894111105C09C91ED2FE095E92302C052
:100FA000EC91ED2BEC938FBFDF91CF911F910895C2
:100FB0009CB59F7D9CBD9CB5937F9CBD9CB59C7F43
:100FC0009CBD9DB591609DBD682F8091AA020E9435
:100FD000A8078091BB029091BC028230910538F045
:100FE000880F991F880F991F05970197F1F70895AA
:100FF00081E00C94D80780E00C94D807CF93DF935E
:101000001F92CDB7DEB789830E94FB0789818F715C
:101010000E94AF038FEF0E94AF0389830E94F807FD
:1010200089810F90DF91CF9108951F93CF93DF9324
:1010300000D0CDB7DEB76A8389830E94FB07898120
:101040008F7180620E94AF03182F6A81862F0E94E1
:10105000AF030E94F807812F0F900F90DF91CF917F
:101060001F9108950F931F93CF938C0186E00E94E8
:10107000FE07C82FC77D0230110531F4C0628BE92D
:1010800090E0A0E0B0E00DC00130110529F085E549
:1010900090E0A0E0B0E005C0C86081E490E0A0E08E
:1010A000B0E08093B7029093B802A093B902B093D6
:1010B000BA026C2F86E00E94150886E00E94FE07A7
:1010C00091E08C1390E0892FCF911F910F9108959B
:1010D000EF92FF920F931F93CF93DF9300D01F9255
:1010E000CDB7DEB7162F4A837B8389830E94FB0727
:1010F00089818F7180620E94AF03082FE12E7B816E
:10110000F72E4A81140F1E1531F0F70181917F01EE
:101110000E94AF03F8CF0E94F807802F0F900F9026
:101120000F90DF91CF911F910F91FF90EF90089555
:10113000CF93DF9390E0FC01E455FF4F2491FC0135
:10114000E856FF4F8491882361F190E0880F991F42
:10115000FC01E658FF4FC591D491FC01EC57FF4FBD
:10116000A591B491611109C09FB7F8948881209529
:1011700082238883EC912E230BC0623061F49FB7E9
:10118000F8943881822F809583238883EC912E2BCD
:101190002C939FBF06C08FB7F894E8812E2B28832D
:1011A0008FBFDF91CF9108950F931F93CF93DF935C
:1011B00006EA12E061E0F80181810E949808C3EC20
:1011C000D0E0CE010197F1F760E0F80180810E9444
:1011D0009808CE010197F1F760E0F80181810E9443
:1011E00098082197F1F7DF91CF911F910F91089502
:1011F000EF92FF920F931F93CF93DF93082F18E086
:1012000083ECE82EF12C61E08091A6020E94980800
:10121000C7010197F1F700FF02C060E001C061E083
:101220008091A7020E949808C3ECD0E0C701019703
:10123000F1F760E08091A6020E949808C70101972B
:10124000F1F706951150F9F661E08091A6020E942F
:10125000980860E08091A7020E949808CE0101974B
:10126000F1F760E08091A6020E9498082197F1F7BB
:101270008091A7020E947F07182F811105C061E0AD
:101280008091A7020E949808C3ECD0E0CE0101979C
:10129000F1F761E08091A6020E9498082197F1F78A
:1012A00081E0111101C080E0DF91CF911F910F917A
:1012B000FF90EF90089561E08091A7020E94980846
:1012C00083EC90E00197F1F70895EF92FF920F936E
:1012D0001F93CF93DF931F92CDB7DEB7182F99835B
:1012E0000E945B0980E40E94F8080E94D4080E94D2
:1012F0005B0980EC0E94F808E12E9981F92E8701A4
:101300000C5F1F4FF70181917F010E94F808E016E2
:10131000F106C1F70E94D4080E945B098091A802DF
:101320008F7080580E94F8080F90DF91CF911F9125
:101330000F91FF90EF900C94D4088F929F92AF92F0
:10134000BF92CF92DF92EF92FF920F931F93CF93B2
:10135000DF9300D000D0CDB7DEB77C018EE3C82E7E
:1013600081E0D82E8E010F5F1F4F41E020E0480141
:10137000F601B290A2906F01C701B5010E94340F2F
:101380006115710529F44423A1F02330A1F411C0A3
:10139000E62FEF70F0E0EA5DFE4F30816A9DC001FC
:1013A0006B9D900D7A9D900D1124E81AF90A40E08A
:1013B00003C03FE301C030E0F80131938F012F5F9C
:1013C0002430B1F6C4010E9465090F900F900F9070
:1013D0000F90DF91CF911F910F91FF90EF90DF90D1
:1013E000CF90BF90AF909F908F9008958F929F92D3
:1013F000AF92BF92CF92DF92EF92FF926B017C018E
:101400000E94F0064B015C01C114D104E104F10417
:10141000F1F00E94F006DC01CB0188199909AA09B4
:10142000BB09883E9340A105B10570F321E0C21AC3
:10143000D108E108F10888EE880E83E0981EA11C0F
:10144000B11CC114D104E104F10419F7DDCFFF9000
:10145000EF90DF90CF90BF90AF909F908F900895C6
:1014600080E00E94FE0781FD0BC0682F626080E073
:101470000E94150865E070E080E090E00C94F609A9
:1014800008952FB7F8946091010270910202809143
:101490000302909104022FBF0895CF93DF93CDB73D
:1014A000DEB728970FB6F894DEBF0FBECDBF789495
:1014B00084B5826084BD84B5816084BD85B5826059
:1014C00085BD85B5816085BD80916E00816080930A
:1014D0006E00109281008091810082608093810073
:1014E0008091810081608093810080918000816083
:1014F000809380008091B10084608093B1008091DE
:10150000B00081608093B00080917A008460809305
:101510007A0080917A00826080937A0080917A00CC
:10152000816080937A0080917A00806880937A004D
:101530001092C10062E082E00E9498088091A902A6
:101540009091AA02891719F061E00E949808809191
:10155000AA029091A902981719F061E00E949808D8
:101560001FB7F8948091E901811127C0E2EAF0E009
:101570008491E6EBF0E09491E82FF0E0EE0FFF1F8E
:10158000E658FF4FA591B491EC91E92321F461E075
:101590008AE00E94A80761E08AE00E9498088CB562
:1015A00080618CBD8CB580648CBD61E08DE00E9453
:1015B000980861E08BE00E9498088091E9018F5FB4
:1015C0008093E9011FBF8091A9029091AA02891717
:1015D00019F060E00E94A80781E00E94D80765E04A
:1015E00070E080E090E00E94F6096CE080E00E94EC
:1015F00015086FE584E00E94150882E090E00E94E3
:101600003208882319F081E08093AD0286E00E94C1
:10161000FE0780E090E00E9432080E94FB0780E510
:101620000E94AF0383E70E94AF030E94F80760E0C7
:101630008DE10E94150860E08CE10E94150860E7CA
:1016400087E00E9415086CE485E00E9415080E945E
:10165000FB0782EE0E94AF030E94F8070E94FB077F
:1016600081EE0E94AF030E94F8070E94300A80E0DA
:101670000E94FE07682F6E7F80E00E9415086FE3CE
:1016800081E00E9415086FE084E00E9415088DE15A
:101690000E94FE07682F66608DE10E9415088CE1AC
:1016A0000E94FE07682F63608CE10E94150881E0AC
:1016B0008093AF0280E28093AE02EFE6F0E0849187
:1016C0004091B50262E071E00E946808E9E6F0E04E
:1016D00084916091AE020E94150882E00E94FE078C
:1016E000E5E7F0E0E49161E070E001C0660FEA95A3
:1016F000EAF7682B82E00E9415086CE085E00E9402
:10170000150886E00E94FE07887F682F616086E0EA
:101710000E94150880E090E00E9432080E94300A82
:101720000E94300A80E00E94FE07682F616080E01E
:101730000E94150860E787E00E9415088091A902C1
:101740009091AA02891719F061E00E94A807809180
:10175000B002882341F04091B50260EB72E08AE06C
:101760000E94680812C082E00E94FE07E4E7F0E0F1
:10177000E49121E030E001C0220FEA95EAF72095DC
:10178000622F682382E00E9415088DE10E94FE0707
:1017900081FF07C00E94FB0781EE0E94AF030E94F9
:1017A000F80761E088E00E94980860E08FE00E94FE
:1017B0009808E0911902F0911A0282E08083E0918A
:1017C0001502F09116021082E0911702F0911802B2
:1017D0008FEC808310922102E0911D02F0911E0295
:1017E00086E08083E0911B02F0911C028081806181
:1017F0008083E0911B02F0911C02808188608083CD
:10180000E0911B02F0911C02808180688083E0914E
:101810001B02F0911C0280818F7D808385EB91E01B
:101820000E942A0789EC91E00E942A078FE08093AA
:10183000A80286E7898389E78A8388E38B838C8380
:10184000CE0101960E94650964EF71E080E090E0AE
:101850000E94F6094AE0842E912CA12CB12C84EF31
:1018600091E06C01990FEE08FF0882E00E947F076B
:1018700011E0892B49F010E08091EA01882321F0E2
:101880001092EA010E9490061093EA0140E050E0B5
:10189000BA0180E00E94D9030E94410A0091EF0141
:1018A0001091F0012091F1013091F201DC01CB01A6
:1018B000801B910BA20BB30B84369105A105B105DA
:1018C00008F454C02091EB013091EC014091ED01FE
:1018D0005091EE01211531054105510579F40E9421
:1018E0001707092E000CAA0BBB0B8093EB019093FA
:1018F000EC01A093ED01B093EE0122C02D833E8355
:101900004F8358870E9417072C01990F66087708A4
:10191000A9E0B0E02D813E814F8158850E946A0F79
:10192000640D751D861D971DA50194010E94480F29
:101930002093EB013093EC014093ED015093EE01C5
:101940000E94410A6093EF017093F0018093F101CE
:101950009093F2010BC00E94F80760E787E00E94B5
:101960001508B701A60185E00E94D90387E10E940E
:10197000FE0780FD35C00E94FB078FEF0E94AF037A
:101980008D830E94F8078D8190E0959587958770EB
:101990008093F3011091AE021C3028F10CE080918D
:1019A000AF02811102C0101B01C010E00E94FB07B2
:1019B00081E60E94AF0334EF632E31E0732E0150B5
:1019C00038F08FEF0E94AF03F30181933F01F7CF0F
:1019D000112309F4C0CF8FEF0E94AF031150F8CF4D
:1019E0000E94950142CF012FDACFCF93DF93E9E038
:1019F000F2E01382128288EE93E0A0E0B0E08483EC
:101A00009583A683B78382E491E09183808385ECFC
:101A100090E09587848784EC90E09787868780ECB8
:101A200090E0918B808B81EC90E0938B828B82ECA9
:101A300090E0958B848B86EC90E0978B868B118E53
:101A4000128E138E148EE9EAF2E089E080838AE038
:101A50008183148280E28583168285E0848745E055
:101A600050E060E070E0428B538B648B758B178283
:101A7000C6EAD2E0888384E0898360E085E00E9442
:101A8000980860E089810E94980860E088810E943F
:101A9000A80760E08981DF91CF910C94A807505886
:101AA000BB27AA270E94670D0C946F0E0E94610E3F
:101AB00038F00E94680E20F039F49F3F19F426F4A4
:101AC0000C945E0E0EF4E095E7FB0C94580EE92F93
:101AD0000E94800E58F3BA176207730784079507B0
:101AE00020F079F4A6F50C94A20E0EF4E0950B2EDE
:101AF000BA2FA02D0B01B90190010C01CA01A00160
:101B00001124FF27591B99F0593F50F4503E68F1BA
:101B10001A16F040A22F232F342F4427585FF3CFFB
:101B2000469537952795A795F0405395C9F77EF4CC
:101B30001F16BA0B620B730B840BBAF09150A1F015
:101B4000FF0FBB1F661F771F881FC2F70EC0BA0F9B
:101B5000621F731F841F48F4879577956795B79523
:101B6000F7959E3F08F0B0CF9395880F08F099271E
:101B7000EE0F9795879508950E94340E08F481E042
:101B800008950E94C80D6894B1110C94A30E089595
:101B90000E94880E88F09F5798F0B92F9927B75167
:101BA000B0F0E1F0660F771F881F991F1AF0BA9501
:101BB000C9F714C0B13091F00E94A20EB1E00895AF
:101BC0000C94A20E672F782F8827B85F39F0B93FA1
:101BD000CCF3869577956795B395D9F73EF49095B4
:101BE0008095709561957F4F8F4F9F4F0895E89432
:101BF00009C097FB3EF490958095709561957F4F55
:101C00008F4F9F4F9923A9F0F92F96E9BB27939502
:101C1000F695879577956795B795F111F8CFFAF412
:101C2000BB0F11F460FF1BC06F5F7F4F8F4F9F4F43
:101C300016C0882311F096E911C0772321F09EE8A1
:101C4000872F762F05C0662371F096E8862F70E007
:101C500060E02AF09A95660F771F881FDAF7880FE1
:101C60009695879597F90895990F0008550FAA0B37
:101C7000E0E8FEEF16161706E807F907C0F012169F
:101C80001306E407F50798F0621B730B840B950BA2
:101C900039F40A2661F0232B242B252B21F40895F7
:101CA0000A2609F4A140A6958FEF811D811D089594
:101CB00097F99F6780E870E060E008959FEF80ECFF
:101CC000089500240A9416161706180609060895A2
:101CD00000240A9412161306140605060895092E08
:101CE0000394000C11F4882352F0BB0F40F4BF2B77
:101CF00011F460FF04C06F5F7F4F8F4F9F4F0895B7
:101D000057FD9058440F551F59F05F3F71F04795AC
:101D1000880F97FB991F61F09F3F79F08795089591
:101D2000121613061406551FF2CF4695F1DF08C0B0
:101D3000161617061806991FF1CF869571056105CD
:101D400008940895E894BB2766277727CB0197F975
:101D500008950E94340E08F48FEF08950E94C10E7A
:101D60000C946F0E0E94610E38F00E94680E20F0F5
:101D7000952311F00C94580E0C945E0E11240C94C3
:101D8000A30E0E94800E70F3959FC1F3950F50E053
:101D9000551F629FF001729FBB27F00DB11D639F1D
:101DA000AA27F00DB11DAA1F649F6627B00DA11DC3
:101DB000661F829F2227B00DA11D621F739FB00D69
:101DC000A11D621F839FA00D611D221F749F3327D9
:101DD000A00D611D231F849F600D211D822F762F72
:101DE0006A2F11249F5750409AF0F1F088234AF04F
:101DF000EE0FFF1FBB1F661F771F881F91505040BB
:101E0000A9F79E3F510580F00C94580E0C94A30E38
:101E10005F3FE4F3983ED4F3869577956795B79541
:101E2000F795E7959F5FC1F7FE2B880F911D96955B
:101E3000879597F908950E94340E880B990B0895A1
:101E4000AA1BBB1B51E107C0AA1FBB1FA617B707E0
:101E500010F0A61BB70B881F991F5A95A9F78095FC
:101E60009095BC01CD01089597FB072E16F40094C0
:101E700007D077FD09D00E94200F07FC05D03EF463
:101E8000909581959F4F0895709561957F4F089526
:101E9000A1E21A2EAA1BBB1BFD010DC0AA1FBB1F6E
:101EA000EE1FFF1FA217B307E407F50720F0A21BE0
:101EB000B30BE40BF50B661F771F881F991F1A944D
:101EC00069F760957095809590959B01AC01BD0177
:101ED000CF0108950E947B0FA59F900DB49F900D98
:101EE000A49F800D911D11240895EE0FFF1F0590F2
:101EF000F491E02D0994A29FB001B39FC001A39F6C
:101F0000700D811D1124911DB29F700D811D112432
:101F1000911D089581E090E0F8940C948F0FF8944F
:021F2000FFCFF1
:101F2200E803314E6F646500324E6F646500334ED4
:101F32006F646500344E6F646500354E6F646500F2
:101F4200364E6F6465003F065B4F666D7D077F6F9F
:101F5200777C395E797101000A006400E8030000B1
:101F620000002C019500C4007301F500D300E700C6
:101F720054696D657220737461727465643A0053BA
:101F820065742072616365723A09005465737469FD
:101F92006E672072656369657665643A20005265F2
:101FA20073756C743A006E616E00696E66006F76CE
:101FB20066000A0A00526163652063616E63656CA4
:101FC20065643A0053656E736F722072656C656169
:101FD2007365640A00203D3D3D3D54432046696ED1
:0C1FE200697368203D3D3D3D000D0A0084
:00000001FF
